:10000000006100200D0D0100C5EB0100F90C01009D
:10001000F90C0100F90C0100F90C0100F90C0100C8
:10002000000000000000000000000000650E01005C
:10003000F90C010000000000090E0100F90C01009C
:10004000DD0F0100DD0F0100DD0F0100DD0F0100FC
:10005000DD0F0100DD0F0100DD0F0100DD0F0100EC
:10006000DD0F0100DD0F0100DD0F0100DD0F0100DC
:10007000DD0F0100DD0F0100DD0F0100DD0F0100CC
:10025000DD0F0100AF070200DD0F0100DD0F01001F
:10026000DD0F0100DD0F010099070200DD0F010025
:10027000DD0F0100DD0F0100DD0F0100DD0F0100CA
:10028000DD0F0100DD0F0100DD0F0100DD0F0100BA
:10029000DD0F0100DD0F0100DD0F0100DD0F0100AA
:1002A000DD0F0100DD0F0100DD0F0100DD0F01009A
:1002B000DD0F0100DD0F0100DD0F0100DD0F01008A
:1002C000DD0F0100DD0F0100DD0F0100DD0F01007A
:1002D000DD0F0100DD0F0100DD0F0100DD0F01006A
:1002E000DD0F0100DD0F0100DD0F0100DD0F01005A
:1002F000DD0F0100DD0F0100DD0F0100DD0F01004A
:10030000DD0F0100DD0F0100DD0F0100DD0F010039
:10031000DD0F0100DD0F0100DD0F0100DD0F010029
:10032000DD0F0100DD0F0100DD0F0100DD0F010019
:10033000DD0F0100DD0F0100DD0F0100DD0F010009
:10034000DD0F0100DD0F0100DD0F0100DD0F0100F9
:10035000DD0F0100DD0F0100DD0F0100DD0F0100E9
:10036000DD0F0100DD0F0100DD0F0100DD0F0100D9
:10037000DD0F0100DD0F0100DD0F0100DD0F0100C9
:10038000DD0F0100DD0F0100DD0F0100DD0F0100B9
:10039000DD0F0100DD0F0100DD0F0100DD0F0100A9
:1003A000DD0F0100DD0F0100DD0F0100DD0F010099
:1003B000DD0F0100DD0F0100DD0F0100DD0F010089
:1003C000DD0F0100DD0F0100DD0F0100DD0F010079
:1003D000DD0F010083070200DD0F0100DD0F0100CA
:1003E000DD0F0100DD0F0100DD0F0100DD0F010059
:1003F000DD0F0100DD0F0100DD0F0100DD0F010049
:10040000DD0F0100DD0F0100DD0F0100DD0F010038
:10041000DD0F0100DD0F0100DD0F0100DD0F010028
:10042000DD0F0100DD0F0100DD0F0100DD0F010018
:10043000DD0F0100DD0F0100DD0F0100DD0F010008
:10044000DD0F0100DD0F0100DD0F0100DD0F0100F8
:10045000DD0F0100DD0F0100DD0F0100DD0F0100E8
:10046000DD0F0100DD0F0100DD0F0100DD0F0100D8
:0C047000DD0F0100DD0F0100DD0F0100B9
:10048000064A074B5B7802604FF41A72C37100236F
:100490008280082203728271704700BF37D5000046
:1004A000980B0020064A074B9B7802604FF490722D
:1004B000C371FF238280082203728271704700BFDC
:1004C000CFD00000980B0020F8B5C41D00280546C9
:1004D00024F007040CBF0020204600F035FB071E67
:1004E00002DA6FF00B00F8BD0DB9FC42F9D4294EC9
:1004F0003189F0880331F37A0330B27A89B280B25D
:100500000AF04EFC0028ECDB3C4431787378002D77
:1005100004F10304194424F0030400FB01F10CBFAF
:100520000020204600F09AFC20440DB90028D8DBBA
:10053000B2780346B2B1F17CF37811441944FF2933
:10054000CFDC0330002DF289C9B220F003040CBFC8
:100550000020204600F0F2FC031EC2DB23440DB94C
:10056000002BBEDB317C81B1B27872B10733002D34
:1005700023F007040CBF0020204603F063FF031E96
:10058000AFDB23440DB9002BABDB002D0CBF1846AD
:100590000020A8E7980B00201FB572B6194BDD6A42
:1005A000E5B9BFF34F8F1849184BCA6802F4E062EF
:1005B0001343CB60BFF34F8F00BFFDE7B4FBF6F4EE
:1005C000D3B20132002CF9D103F110026A4402F8CF
:1005D0000C4C0A2233B901A8A847E2E704460022DE
:1005E0000A26EDE7013BDBB203F110040DEB040634
:1005F000B0FBF2F402FB1400303006F80C0C20467D
:10060000E8E700BF980B002000ED00E00400FA05C9
:100610000C4B07B5DA7A68468DF801209A7A8DF886
:1006200000201A89DB88ADF80420ADF8023002F012
:10063000C7FA18B1E8219C20FFF7AEFF03B05DF8C0
:1006400004FB00BF980B002038B5054668B309F0DD
:1006500019F810B94FF0FF3038BD07F0D3FCB0F5F2
:10066000FA7FF7D8134C1448E562002500F0E8F94A
:100670002A222946204684F830500DF004FA01233E
:100680006370A3701B23E380238140F20323638103
:100690001F23E38108232374EFF3108472B600F064
:1006A00023FD2CB962B62046D6E76FF01500D3E7DC
:1006B0002846D1E7980B00201106000010B500284D
:1006C00042D1244C94F83030032B3AD059B1002A4F
:1006D0003DD00239052937D8DFE801F00314283668
:1006E0002B2E137863700020FFF7EEFE0028B7BFB3
:1006F000012302236FF00B0084F83030A8BF84F888
:10070000303010BD137913B3537903B31188FB292B
:100710001DD81A2953881AD91B3BE02B17D8136808
:100720009288C4F806300C4B9A80DCE71378A370EB
:10073000D9E71388E381D6E71388FF2B07D8237402
:10074000D1E74FF0FF30DCE76FF02C00D9E76FF016
:100750001500D6E7980B00209E0B0020F8B50D463B
:10076000064630B329B311F0070422D1124F97F88F
:100770003030012B02D16FF00B00F8BD032B02D1FA
:100780004FF0FF30F9E700F09DF80028F8D0284638
:10079000FFF79AFE0028EEDB0CF032FF30462146D0
:1007A00002F0A2FAFFF734FF0323204687F8303027
:1007B000E3E76FF01500E0E7980B002010B5074C59
:1007C00094F83030032B03D102F0A6FA03F03EF97F
:1007D0000AF0DCFB002084F8300010BD980B0020EC
:1007E00050B1074B03F1140253F8041B934240F835
:1007F000041BF9D1002070476FF01500704700BF4F
:1008000038360200074B10B593F830403CB902F07F
:1008100035FA0120044900F08FF9204610BD4FF051
:10082000FF30FBE7980B0020A5040000074B10B534
:1008300093F830403CB902F035FA2046044900F004
:100840007BF9204610BD4FF0FF30FBE7980B0020EE
:1008500081040000054B10B593F830401CB902F03C
:10086000D9F9204610BD4FF0FF30FBE7980B002070
:10087000054B10B593F830401CB90BF00EFC204628
:1008800010BD4FF0FF30FBE7980B0020054B10B573
:1008900093F830401CB90BF003FC204610BD4FF01C
:1008A000FF30FBE7980B002002680020014B1A6024
:1008B000704700BFCC0B0020014B1B68184700BFDE
:1008C000CC0B0020024B1868003818BF012070477D
:1008D000CC0B00202DE9F7430446264E071D254882
:1008E000376003F0CBF80228054607D1214920469E
:1008F00009F0F7FD284603B0BDE8F0830428F9D1DC
:100900003378072B18D13E2000F04AF878B9F378F5
:1009100001A93279684643EA0223ADF800300AF0B3
:100920002DF80028DBD053210820FFF735FE0520E5
:1009300000F076F80028EAD03146204609F009FE9A
:10094000B0F5817F01D37221EEE70028C7D094F87B
:10095000008094F80290404600F022F80028BED0B3
:10096000B8F13E0FC6D1484600F05AF80028C1D170
:10097000B5E700BFD00B0020074B4FF0FF3141F629
:10098000FF72C3E9001205490022C1E900221F21BC
:10099000C3E90212704700BF40000020140C002081
:1009A0003F280CD801380B4BC0F3421200F01F0057
:1009B00053F8223023FA00F000F001007047FF28BE
:1009C00006D04038044BC0F3421200F01F00EFE79E
:1009D0000120704740000020140C0020074B014606
:1009E000006849681A4603C240F48C221A6041F03C
:1009F000107242F4FF625A60704700BF400000204E
:100A00000246024B0068516803C37047140C002073
:100A10000246024B0068516803C37047480000203B
:100A20000138064BC0F3421200F01F0003EB8203B3
:100A30009B6823FA00F000F001007047400000209E
:100A4000014B1860704700BF1C0C002010B5FFF769
:100A500093FF0AF072FF034B04461B6803B19847EB
:100A6000204610BD1C0C002070B50C88C27CA6B2BC
:100A7000C4F30E04931C058804F118021D44825A25
:100A8000ADB21A4443882A44013AB2FBF5F202FBA4
:100A9000054292B29342044B8BBF3340B34313439E
:100AA0009BB20B8070BD00BF0080FFFF4A1E062A6C
:100AB00008B50346084604D84FF4D1711520FFF756
:100AC0006BFD094A914202D940F2A311F6E711B930
:100AD00003B1196008BD2BB11B680022C3E90121D5
:100AE0001A1D1A600430F5E7FAFFFF7F10B5114BAD
:100AF00000EB41041A786389B3FBF2F303FB022392
:100B0000013A1A44B2F5706F027928BF00231A44E3
:100B10008378B2FBF3F0194403FB1020091AB1FBF0
:100B2000F3F003FB101313446FEA43436FEA53439C
:100B3000638110BD200C0020024B03EB8003596041
:100B4000704700BF200C00202DE9F04F10F0070A7D
:100B500085B0054604D040F261111720FFF71CFD57
:100B6000544F04464FF0010B07F10C06B146B04656
:100B700057F8043B8DF80BA03BB101A898479DF8AE
:100B80000A30082B01D9E821E7E79DF80B1081BB5B
:100B900005B13160B94506F10406E9D12DB3002352
:100BA000DFF814E102221E468EF8003058F82200C9
:100BB000013A60B190F804A08178BAF1FF0F64D1D6
:100BC0004FF000078E4207713CBFCEB20123511C8B
:100BD000ECD10BB18EF80060022640F6FF6A58F89F
:100BE0002670002F63D1013EF9D2601B05B0BDE82D
:100BF000F08F9DF80AC04A1DBCF1020FE64604EBD7
:100C0000420438BF4FF0020E53000EF1FF3004448F
:100C1000CEF100002040BDF808406444CCF1000C47
:100C2000013C04EA0C04B4F5803F01D3F82194E7B9
:100C300075B1C31A336099701C8083F803B09DF8B6
:100C40000C201A71019A4FEA124C1A81A3F806C0BF
:100C500004FB01049EE758F82C90B9F1000F06D070
:100C600099F804B0D34504BF99F802904F440CF1B1
:100C7000FF3CBCF1000FEEDA3944FF29A2D90BB1D9
:100C80008EF8006040F2271167E794460027F0E7EE
:100C900007EB410309F101093846A3F80AA0FFF761
:100CA00025FF5FFA89F1BB788B42F1D89BE74FF0C3
:100CB0000009F6E7240C0020200C0020F8B54FF6C0
:100CC000FF7305460380184B03EB81031869B8B125
:100CD00086780379B3FBF6F206FB1233DBB21946D2
:100CE0000A1D00EB4202B2F902705488002F09DBA2
:100CF0000131B1FBF6F206FB1211C9B28B42EFD102
:100D00000020F8BDFF29FBD0C4F30E03C4782B806C
:100D100024B94FF4D5711720FFF73EFC5380BDE88E
:100D2000F8400AF01CB800BF200C00201D4B03EB5C
:100D3000810370B51C69054644B3030404D54FF420
:100D4000DC711720FFF728FC0146204609F0EAFF76
:100D5000FF28014604D02046BDE8704009F0FFBFDF
:100D6000A078B5FBF0F300FB1353DBB219460A1D64
:100D700004EB4206B6F90260002E09DB0131B1FB3B
:100D8000F0F200FB1211C9B28B42F0D1002070BD0D
:100D9000FF29FBD08B4204EB42021CBF0023E3700F
:100DA0005580D8E7200C0020094B03EB8103014656
:100DB00010B51C69204609F0B5FFFF28014604D094
:100DC0002046BDE8104009F0CABF002010BD00BF9A
:100DD000200C0020F8B5104B074603EB81030146B9
:100DE0001C69204609F09EFFFF28054611D0E688C1
:100DF000238953EA064606D00146204609F0AFFF94
:100E000001463846B04720462946FFF76FFE0020CE
:100E1000F8BD0520FCE700BF200C002038B50E4BC4
:100E20000446827903EB8203186908B9052038BDAE
:100E30008278E1799142F9D24B1CE37100EB4103D6
:100E40005D89B3F90A30002BF3DBA58009F087FF39
:100E500020600020EBE700BF200C002070B50446A6
:100E600010F003000E4603D04E211820FFF794FB2C
:100E7000FFF71CFE054624B1034831460460FFF726
:100E800015FE284670BD00BF3C0C00202DE9F14F37
:100E9000DFF870B01E4607460D46DBF8003090467E
:100EA0009DF828A09DF82C901BB960211820FFF711
:100EB00073FB52460921404609F0B6FD4A4684B20A
:100EC0000921304609F0B0FD81B2DBF80000214471
:100ED00009F0FDFE386018B9286001B0BDE8F08F58
:100EE00004445346414609222C60386809F060FDED
:100EF0004B4609223146286801B0BDE8F04F09F0A1
:100F000057BD00BF3C0C002070B50E46044609F0EA
:100F10009EFD0546304609F09AFD044B2A182146ED
:100F20001868BDE8704009F0F6BE00BF3C0C002018
:100F3000014B186809F0BFBE3C0C00201F2AF8B511
:100F4000044613460ED89200033222F00303B3F591
:100F5000803F2DD2184DACB1A00710D05F210920E1
:100F6000FFF71AFBFF2B4FEA420204D9FF339A42E4
:100F7000A8BF1A46E8E77C2AB8BF7C22E4E72970BC
:100F80006C602B8122F0030228230127120403FB4B
:100F900001F06B680025120CEEB28E4200D3F8BD52
:100FA00014B126181F705E60104401352833F3E732
:100FB0004FF0FF30F3E700BF400C0020144A00213F
:100FC00038B553681478C8B2844203D8AB210920DD
:100FD000FFF7E2FA1846013128330578002DF2D0E8
:100FE00000218170012412898161051D44709208DD
:100FF000C16100F12001446821F8022B994245F8B3
:10100000044B1444F8D100234361037038BD00BF82
:10101000400C00202DE9F8434B7880460C4602F046
:10102000040602F0FB07D3B1DFB12E4BD4F80490D5
:101030001D89B7BB0123AD084A46211D637004F129
:10104000280004F12003A761E76123F8025B9842BE
:1010500041F8042B2A44F8D10023636101E0002FFA
:10106000E3D0FF23A370002E18BF0226A3191B7D17
:10107000032B03D1022F1CBF0136F6B2A3190122A4
:101080001A7506F10C02002304EB860624F81230D0
:101090007268A3704046C8F80020A8F80430BDE884
:1010A000F883002114226170A0180CF0ECFCB5F557
:1010B000FF7F0FD26B08ED1AADB209EB0502C4F841
:1010C00004902584A2606384C4F80C90A5842261F6
:1010D000E384C6E7B5F5EE6F4FF0FF03EBD940F2BE
:1010E0007265EAE7400C00201E4B01224FF0FF30F2
:1010F00000211B685A60C3F80803C3F80015C3F841
:101100000425194B1B685A60C3F80803C3F800157F
:1011100040F6FE71154B1648C3F8081501680BB26E
:10112000002B0BDB01F01F015B098A4020331149C2
:1011300041F82320BFF34F8FBFF36F8F026813B2C4
:10114000002B09DB01215B0902F01F02603301FA69
:1011500002F2084941F82320044B40F6FE72C3F81E
:1011600008257047DC170020D81700200020085001
:10117000F017002000E100E00A460648192302F8B3
:10118000033BC368C1F8033003695360436993604C
:10119000704700BF500C0020024B5A8C02435A8407
:1011A0005B6A1847500C0020014B00215B6A18470E
:1011B000500C002010B5154C05F0FCFD05F0EEF9C3
:1011C000208DFFF7F1FF237E63B12246104904F121
:1011D000190052F80C3BE36063685360A3689360A6
:1011E0000BF052FB0B4B228D93E8030003F0B4F994
:1011F000236B188803F0DAF8A36B94F8341094F892
:1012000035009847002384F83C3010BD500C002076
:10121000791100007C0C0020034B93F83C300BB19B
:10122000FFF7C8BF704700BF500C002070B51D4CC1
:101230000646636C256B236495F88C3094F848005F
:101240000BB10430C0B295F869102EB9FF2803D154
:1012500095F868308B4201D005F06EFC95F88C3023
:10126000D3B1E06C05F05EFE0123E16C84F87030D0
:10127000206CD5E93A23C4E9182305F0A7F816B97C
:10128000304605F091FE95F86810002005F0D6FE76
:10129000022384F83C3070BD206C05F043FE05F05D
:1012A0007DF9ECE7500C002008B5094B93F83C2081
:1012B000022A04D040F231212720FFF76DF9DA7AB3
:1012C00042F00102DA72BDE80840FFF773BF00BFC9
:1012D000500C002003280B4B10B5044605D19A6F23
:1012E000D278022A01D1002010BDD86F09F02EFC5F
:1012F0000028F9D1032CF6D001F0E6FE80F00100C1
:10130000C0B2F1E7500C00202DE9F043454C85B008
:1013100006460F4694F83C30012B5FFA83F904D05F
:1013200040F2DC412720FFF737F9256B02A8A16FB7
:1013300009F02EFE95F87C309DF808803BB1002125
:10134000042085F87C10FFF727FF85F87E90B8F120
:10135000030F61D195F882301BB9A16F0220FFF70E
:101360001BFF032300E0012385F8823095F88C30C1
:10137000ABB1236B012294F8488084F87020D5E942
:101380003A01C4E9180193F8690009F012FE00223D
:101390000346254900920220424604F0C1FF26B1CF
:1013A00005B0BDE8F043FFF705BF002FF8D0D4F833
:1013B0008030304698470028F2D094F83430002B23
:1013C000EED194F88430DD06C3F3001005D5A36F89
:1013D000187800F00300FFF77DFF636CD4F88820D5
:1013E0001B78C3F300132AB9B4F88C2013B1B2FAF6
:1013F00082F35B09628C910709D5A36FDB78022B1E
:10140000CED1002005B0BDE8F043FFF70FBF002AA2
:10141000C6D10343F5D1C3E79DF80C30002BA2D011
:101420000223A1E7500C0020A00C002010B5094CAD
:10143000D4F8883023B940F2CE412720FFF7ACF82A
:10144000B4F88C201846216C033208F0EFFA2064BF
:1014500010BD00BF500C0020064B10B593F83C2087
:1014600002F0FF0422B91C7603F06EF8204610BD8E
:101470000C24FBE7500C00200A4B0B4A70B50646C3
:101480000D461A60FFF7E8FF18B1ED212720FFF79E
:1014900083F8064C012104F18E000BF065F96664B7
:1014A000E56470BD88000020BC1C0000500C0020CA
:1014B000024B012283F8B020704700BF500C00207F
:1014C0002DE9FF417A4C02AE0A9F86E8030094F8AA
:1014D0003C1001F0FF0511B90AB103B127B94FF46F
:1014E000BE712720FFF758F896E8030004F12C0C92
:1014F00084F8B05084F8345004F1500684F8B150A8
:1015000084F8355084F8B25084F8B350658425854A
:10151000C4F880306262A7638CE80300256B05F095
:101520003DFB05F03BF895F9700005F5807705F077
:101530008FFB686A05F0E8FCE86905F08FFB95F819
:101540009C0005F095FB95F86920C421012005F069
:101550001DFC584B186805F0DDFC2B69E3676B69CF
:10156000C4F8B43005F1F0031868083353F8041CCC
:101570003246BB4203C21646F6D159684E4A236B27
:10158000D5F8000103C293F88620A2F125010129B4
:1015900093F868100E4603D993F8870025285FD189
:1015A00093F83E322BB1012E03D0012B14BF02263B
:1015B000012605F13007314638460BF0F5F9314682
:1015C0000AF03DFFAB8F95F86910834228BF0346B0
:1015D000384684F8B8300BF0D0F995F8691095F8D2
:1015E0008C600429B5F8448008BF03210AF027FF66
:1015F0000EB9043080B2404595F88C3028BF404683
:101600005FFA80F884F8B98084F8488093B10123A8
:1016100095F86900D5E93A6784F87030C4E918672D
:1016200009F0C7FC002203462449009202204246EA
:1016300004F076FE0120FFF7F9FD002323606360CC
:10164000A360B5F8803063802B88238095F89C30A8
:101650002371EB6E0BB101221A6004B0BDE8F0817A
:10166000203A012A0CD8232893F826210AD012F018
:10167000010319D192079CD5012918BF022698E7CA
:1016800023280DD193F8262193F86130134013F0ED
:1016900001020BD19B078CD5012908BF0E46ECE750
:1016A000032908BF042684E71E4682E7164680E722
:1016B000500C002088000020B80C0020A00C002056
:1016C00008B50C4B93F83C201AB9BDE80840FFF769
:1016D00071BD93F83C20022A04D040F21321272048
:1016E000FEF75AFF1B6BD3F8B001BDE8084005F0C8
:1016F00033BC00BF500C0020014B1876704700BF70
:10170000500C0020014B93F8B2007047500C0020A1
:10171000024B188DC0F3C020704700BF500C002052
:10172000014B93F8B1007047500C00202DE9FF41A8
:10173000324C03460E4602A8216C256B09F028FCAA
:1017400013F001089DF80C7003F002002BD0002369
:1017500084F8BA3090B1FFF769FE0DF1020201A9D9
:10176000D4F8B40009F09DFA019809F080FA01223A
:1017700030603946D4F8B40009F028FAB8F1000F07
:101780000ED0D5E93A32013342F10002C5E93A32CE
:1017900095F88430012B0CBF0023012385F8843099
:1017A00004B0BDE8F08194F8BA30032B20D801A230
:1017B00052F823F055170000C5170000DF1700008E
:1017C000DF1700000028EBD0FFF730FE002239467B
:1017D000D4F8B40004B0BDE8F04109F0F7B900282E
:1017E000DED0D4F8B40004B0BDE8F04109F055BA39
:1017F00040F27A412720FEF7CFFE00BF500C0020B8
:101800002DE9F04F0023A84C89B080468A46276B0B
:10181000CDE9043394F83C30022B04D040F25F5100
:101820002720FEF7B9FE238D590606D44020FFF786
:10183000BBFC238D43F040032385216C06A809F0EF
:10184000A7FB97F88C30B8F1000F00F0C9809DF825
:1018500019B09DF81C507BB104F0AEFE60B95DB1CB
:1018600097F884305B4507D1012384F83530FFF7C2
:10187000A1FC09B0BDE8F08FA9B2A4F88C10F1B1B9
:10188000D4F8B40009F083F9C4F88800238D9DF8DA
:101890001A2043F40073238597F883309A4277D057
:1018A000266B96F88230002B3ED0022B11D104A972
:1018B000E06F09F015F928B940F21441B0E7C4F817
:1018C0008810E3E7D6E93832013342F10002C6E975
:1018D0003832002196F87E3086F8821023B110202D
:1018E00086F87E10FFF758FC96F87D30A3B14FF0D4
:1018F000000986F87D9001F0D1FB10B940F22B4130
:101900008EE749460820FFF747FCD6E93832013315
:1019100042F10002C6E9383296F88330012B0CBF41
:101920000023012386F88330238D4FF0000943F410
:101930000063238597F884305B4527D19DF81830E4
:10194000266B022B26D88BB385B3238D96F88C603B
:1019500043F48053238505F0A5F8042894F8B930A2
:1019600006D1002E14BF1B221F22934228BF13460C
:10197000AB422BD3D4F88850002D3FD094F8B03030
:10198000002B00F08E802020FFF70EFC002535E0B4
:10199000C146CFE7032B09D1238D0120216C43F4ED
:1019A000805386F87C002385FFF7F6FB96F8843099
:1019B000013B18BF012386F88430FDB1D6E93A32E5
:1019C000013342F10002C6E93A32DFE794F83430DD
:1019D000012043F0100384F8343006F0B3FBD5E760
:1019E0000BB104F0FDFD94F8B13000250133A94698
:1019F00084F8B130238D43F48063238597F88B30CE
:101A00008BB1002697F86800D7E9382384F8706016
:101A1000C4E9182309F0CDFAFB2203462349042028
:101A2000009604F07DFCBAF1000F41D1628C94F86D
:101A3000B130120703D5A26FD278022A38D0012B19
:101A400036D8D4F880300120984788B394F834A071
:101A5000BAF1000F2CD11DB105A90120FFF766FED8
:101A6000266B002396F88C208DF80D3094F84830C2
:101A70000AB10433DBB2FF2B96F8681003D196F855
:101A800069308B4202D0FF2005F056F896F882307C
:101A9000032B00F2F780DFE813F055008500DC002F
:101AA000ED004546AAE700BF500C0020A00C002026
:101AB00005F0E4FA002D00F0F18005A90320FFF7FE
:101AC00035FEB9F1000F0DD0B4F80720B4F8053099
:101AD0001343B7F8802013431EBFB4F80930013315
:101AE000A4F80930B8F1000F00F0DA80B4F805303E
:101AF0000133A4F80530002384F8B1306B4802F0BC
:101B000043FC049830B109F0B2F8216B0022027254
:101B100001F0F8FF059B33B1216B00221A720C22F1
:101B2000059801F0BDFF002D7FF4A1AE238D1B06AB
:101B30003FF59FAE8020FFF737FB238D43F08003F6
:101B4000238596E694F8B8305948ADF80E30A6F8DB
:101B5000583001F093FA50B1A16F4FF48070FFF745
:101B60001BFB012386F87D3084F8B3301CE00DF1B7
:101B70000D020DF10E01E06F08F090FFA06788B133
:101B800096F8C73073B99DF80D302BB90380012149
:101B90008370A06F0AF0E8FDA36FBDF80E205A70A5
:101BA0000123E1E7434BA367A16F96F883300878E0
:101BB000DB0003F0080200F0F30300F0030013431E
:101BC00096F88420920002F00402134323F01003DD
:101BD0000B70FFF77FFB0028A06F18BF4FF0100AB3
:101BE00003784AEA030A80F800A096F88B30002BAD
:101BF0004BD04378002B48D0E06C05F093F90022DD
:101C0000D6E9380184F87020C4E91801E16CA06FAE
:101C100005F06AFB18B9A16FE06C04F0D7FB96F8E9
:101C20006910012005F00AFAA26F0123118884F8D7
:101C3000B230A4F8841091781F4A84F83C30917037
:101C4000002D3FF43EAF05A902200025FFF76EFDF1
:101C500037E7B6F858300DF10D020DF10E01E06FC7
:101C6000ADF80E3008F01AFFA067002898D140F2B6
:101C7000D121D5E50E4801F001FA002890D140F2BB
:101C8000DB21CDE540F2E921CAE505F04BF904F08E
:101C900085FC0021A06F0BF0DAFCC0E7012510E7FE
:101CA000B4F807300133A4F8073027E77C0C002094
:101CB000C80C0020DE0C0020D40C0020A91200006B
:101CC0000118000009130000191200002DE9F04F5F
:101CD00004468BB01F460E46904690F869900AF075
:101CE00026FA94F89F310B2B04D940F2FB310620E1
:101CF000FEF752FCBA4A32F8135094F88730054484
:101D0000039388F00103ADB20493B8F1000F30D112
:101D100094F8DC31032B2CD1039B0D2B29D1B4F883
:101D20003C32B34225D1D4F8E4312046B4F8B42192
:101D3000C4F8D031A369C4F8D431B4F82A321344BA
:101D4000C4F8D83104F0B4F9D4E99023A262B4F80D
:101D50003E22A361A285D4F84822226241F64B526A
:101D600093428CBF0023012384F87230022384F84D
:101D7000DC31B4F8280204F5FC7AB4F880B0301AEB
:101D8000A6EB0B0B00B20FFA8BFB002812DA5846B9
:101D9000D4E98423C4E98823012294F8DC31DFF8F4
:101DA0004482032B00F27281DFE813F00600FB008F
:101DB00052001E013A46F0E7012100200AF066FBBE
:101DC0008146A06A2946484406F0D0F82946C4F85E
:101DD000E001A06906F0CAF807A9C4F8E40108A860
:101DE00005F054F9079BD4E988010093DDE9082345
:101DF0000BF029FD0590204609F0FFF8A16AD4F800
:101E00002C2294F869008D1805F068FAD4F8E011D6
:101E100000F52240BB3D059BB1306D1A30314D4479
:101E2000ED1A4FF47A73B0FBF3F0A38D2D1A94F8EA
:101E3000690003EB410109F0CCF8D4F82C32C8F862
:101E40000000EB1ACC2B5AD840F2DE4130204FE78D
:101E5000A36A2946D4F8D401184406F087F8294625
:101E6000C4F8E001A06906F081F8C4F8E401204656
:101E700009F0C3F8B4F8B431A56AD4F8D491002BB2
:101E800040F08A80002F00F08780A94494F8690010
:101E900005F024FAD4F8E051A9F1BB09834694F87F
:101EA0006900A9EB0509D4F81852D4E98423A944A0
:101EB000A9EB020905F012FA4FF47A7300F2E73544
:101EC0000BF52240B5FBF3F5B130A944B0FBF3F0BC
:101ED000A9EB0005D4F8E011D4F8D031D4F8D8211A
:101EE000303194F8690002FB0311A38D03EB41012B
:101EF00009F06FF80123C8F8000084F8DC31A36909
:101F00004FF00009D4F8E42104F13000A3F5A273E6
:101F100084F8F8919B1AD8F80020934228BF134602
:101F20009846C4F8B031D4E988325B1942F1000216
:101F3000C4E982320AF01FFDB4F8A011A4F82862A7
:101F400040448E1B84F80092C4F8FC0136B2D4E9F8
:101F500082234E45C4E98823C4BF022384F800329B
:101F6000039B0D2B00F09580002F40F0938094F898
:101F7000DC31002B00F0AB80A1695046D4F8E4318D
:101F8000C91A0AF02BFA80B2002800F0A080149B36
:101F900003B118800120A9E04D44D4F8E0012D1AC6
:101FA00098E7D4F8D811B4F8B431D4F8E421A5698D
:101FB0009B44CB43AD1A9B44D4F8E0314543D4F85D
:101FC000D001303300FB0133A18D94F8690002FB8E
:101FD0000B3301EB430108F0FCFFC8F800008EE76B
:101FE0004C3602000C0D0020D4F8E431A569ED1A3E
:101FF00094F88630252B00FB05F503D094F8873044
:10200000252B09D1B4F83C32F31A1B0404D494F8FC
:102010003F32002B18BF994652B3B4F8B4313BBBE2
:10202000D4E98423D4E9860182428B4102D340F271
:1020300032510BE794F8690005F050F9D4F81822F2
:102040000590BB3AD4E98401101A054494F869005C
:1020500005F044F94FF47A7200F2E730059BB0FBCB
:10206000F2F0054403F52240B130B0FBF2F02D1A36
:10207000B4F8B4114846D4F8E431594459433031E6
:10208000490008F0A6FF1B4B186038E740F24A51A0
:10209000DCE6E7B1B4F8C81111B3B4F8CA2194F87A
:1020A000CC31501CA4F8CA2102FB033399420EDD47
:1020B00094F800325BB10023A4F8CA0184F800321E
:1020C00001F0B6FD00F00700013084F8CC01514664
:1020D00094F8F30106F0C0FE20B940F29351B5E642
:1020E0000A46DCE7049B84F8F03100200BB0BDE821
:1020F000F08F00BF0C0D00202DE9F04104460D4685
:10210000164690F8F03003F0FF071BB10C27384655
:10211000BDE8F0810146454806F0FEFD20288046D6
:10212000F4D05822394604F1C8000BF0ACFC84F816
:10213000C880C4F8CC50FF2384F8F03035B101F0EA
:102140008FFD00F00700013085F8CC0102234FF02D
:102150000008A4F8003184F8F88005F05DFF00F174
:10216000490520460BF09AF80146ADB270B309F06C
:10217000DEFF00F5CD61304689B205F0F7FE304450
:10218000AE3EC4F8FC000BF0EEFA2818A4F8268046
:1021900041F10001C4E94201012084F8D0000BF0B4
:1021A00033F9361AC4F8D4604FF0FF326FF00043B1
:1021B000C4E9442304F1F80194F8C80006F04CFE89
:1021C00048BB40F2CD113020FEF7E6F92046DFF89B
:1021D00060800AF086FFAE30C4F8FC00B8F8040056
:1021E00048B1E08C38B101F03BFDB8F80430B0FBE9
:1021F000F3F202FB130005440BF0B5FA2D1841F180
:102200000001C4E94251002ECED0751941F1000100
:10221000C4E94451CEE7D4E9422300212046C4E971
:102220003823C4E93A230BF056F870E7A1B2000056
:102230000C0D0020F0B5002385B0CDE9003301235B
:102240008DF806306846FEF7E9FD70B11D4E01239A
:102250000027B371CDE9027702A8FEF7DFFD05463E
:10226000C8B10023B37105B0F0BD009809F0D2F8F1
:10227000E8E790F8F30106F0E3FE94F8F30107F0C5
:10228000D1F894F8F30184F8DC5106F06BFD2023BB
:1022900084F8F331DEE7029B002BDDD093F8F321C5
:1022A000202AD9D018884FF6FF739842D9D02946F2
:1022B000FEF77AFD04460028DBD14FF49B713020F5
:1022C000FEF76AF90C0D0020044B0022DA719A71B6
:1022D00042F210729A80FFF7ADBF00BF0C0D0020D4
:1022E000014BD871704700BF0C0D002008B504F0F9
:1022F000DFFB044B9A6882422ABF9879002080F065
:10230000010008BD0C0D00202DE9B7410446062947
:1023100072D8DFE801F0042815252C316C00384B09
:102320009B7903F0FF025BB900920123B0F8A4117E
:10233000FFF7CCFC38B140F2DC613020FEF72CF91D
:10234000042384F8DC3104F08BFD06F0FDFB002350
:10235000B4F88020A4F82A32A4F8EE2184F8F131F0
:1023600003B0BDE8B081032380F8DC31F8E70BF05F
:1023700064F9C4E98601F3E78569D0F8E431DFF850
:1023800080809D4288BFED1A98F8073098BF0025DD
:102390001BB9036B9D4228BF1D46D4F8B07104F1F0
:1023A00030000AF0E8FA0744022006F097FF022105
:1023B000ED1B25EAE575854228BF0546284606F04F
:1023C000D3FF00B92F4401234FF4807239462046D1
:1023D0000AF028FBD4F8B031C8F80800A069184406
:1023E00006F04EFF0028BBD140F28A31A5E703B0CA
:1023F000BDE8B04108F001BE4FF4F3619DE700BFB6
:102400000C0D00202DE9F84306460C4615467ABB14
:1024100004F04EFB84F8D0500746D4E9428984F892
:10242000F0500121D4F8CC0001F088F8D4F8CC00A9
:10243000C0E9848994F8C830C0F82C7280F8F33170
:10244000C0E9888908F0DEFE20B140F21C7130201E
:10245000FEF7A2F804F004FD06F076FB32460749C9
:1024600094F8C80005F05EFE28B940F2AB71EEE7C3
:1024700040F2C271EBE7BDE8F88300BF23B0000073
:10248000014B9880704700BF0C0D0020304BF0B519
:102490005A8885B0B0F85C700C46B0F85A60974224
:1024A0009D8828BF1746964228BF16461B2E2ED061
:1024B000B5F5A47F2DD040F6480301A99D4228BF61
:1024C0001D4609F008F9BDF80A309F4228BF1F4693
:1024D000BDF80C30AB42E78028BF2B462381BDF806
:1024E00006309E4228BF1E46BDF808309D426680D9
:1024F00028BF1D46A580FF232370E3881B3B9BB2AA
:10250000E02B08D940F277613920FEF745F81B2F00
:10251000CED105B0F0BD63881B3B9BB2E02B02D946
:1025200040F27961F0E72389A3F5A4739BB2B3F578
:10253000E06F02D940F27B61E6E7A388A3F5A473BC
:102540009BB2B3F5E06FE4D940F27D61DCE700BFF8
:10255000180D002010B501210020FEF725FC0446CF
:1025600070B90121FEF7E2FB044620B940F2913137
:102570003920FEF711F8034B93F906100AF079FDA4
:10258000204610BD180D002008B509F0DAFE00F055
:10259000E1FE00F0F1FB0AF04FF901F061F801F003
:1025A00063FF0022084B1B214FF4A4701A60074BF5
:1025B00098801A8059800648064B186099805A7492
:1025C0005A829A829A7508BD8C000020180D00204E
:1025D00003021B0044110020044B41F64C52C3E996
:1025E00002221B221A74FFF7CFBF00BF4411002044
:1025F0002DE9FF41344D0446AB680363334B8361DF
:1026000008F03FFF064600F0A7FB2B7C10F0200FE0
:10261000668784F838302E4B0EBF1B22AA88698843
:102620001B6814BFA4F85A10A4F85A20A4F85C2020
:102630001BB194F9701020889847AE7CEF7CB5F8F8
:10264000148016B900F08EFB064687BB00F08AFBAB
:10265000074676B368B303A920468DF80C608DF861
:102660000D70ADF80E8009F00DFF012369786A88BE
:1026700004F11000E385AB8803320191033329781C
:1026800092B29BB2009104F11401FEF7FFFB2369A3
:1026900013B940F24E6114E0636913B940F24F611F
:1026A0000FE0002004B0BDE8F0810920FAE7002E19
:1026B000D1D100212088FEF78DFB0028F5D040F213
:1026C00024613920FDF768FF4411002000093D0016
:1026D00090000020F7B505460E460AF0FDFC0028E4
:1026E00074D028460AF0DAFD40B1B6F80130013B5B
:1026F0007F2B03D91224204603B0F0BD28460AF0F0
:10270000D1FD08B90C24F6E7284608F06FFF002831
:10271000F8D128460AF09EFC04460028F2D128464B
:1027200002F06EFB0028E5D042F21073B6F801709B
:10273000F17828465F430AF09DFD28460AF0A6FD81
:10274000014658B93A462846FFF7D6FC0446002809
:10275000D1D041F69F313920FDF71EFF21460DF102
:102760000600FEF7ABFA064670B3214600F0E6FE1F
:10277000BDF806302846314633800AF09DFD2846D4
:102780000AF096FDA0B9296A28460AF093FD014691
:102790003046FFF72DFF04460028ACD13A463146BB
:1027A0002846FFF7A9FC044620B141F6C231D2E722
:1027B0000121EDE7064B9B68002B9CD0024606F5F5
:1027C0008D713046984796E70D2494E7422492E7AE
:1027D000180D0020024B1B6803B118470C207047EE
:1027E0008C000020034B5A8802801B7883700020E5
:1027F000704700BF4411002037B5837805461A2B77
:1028000009D8042B05D9012202FA03F3134A134213
:1028100005D112241AE0292B01D03B2BF9D12888AD
:10282000B0F5706FF5D2694609F0CBFD88B9019B10
:1028300093F8182102F0FF046AB9AA7883F81921E5
:10284000FF2283F81821684609F0D1FF204603B023
:1028500030BD0224FAE70C24F8E700BF200038045A
:102860000188A1F11B039BB2E02B0CD8428844F2F3
:102870004810A2F5A4739BB2834204D8034B0020F6
:1028800059809A8070471220704700BF180D0020B1
:10289000034B5A889B88028043800020704700BF0A
:1028A000180D002038B50478427804F001038578CB
:1028B00004F0020452EA030101D1112038BDBCB971
:1028C000002DFAD0002B08BF144601E00024254655
:1028D000204608F0CBFE0028EFD0284608F0C6FEC0
:1028E0000028EAD0054B00209C74DD749882E5E74F
:1028F000002BEBD114461D46EAE700BF441100202F
:1029000013B50088694609F05CFD18B10224204621
:1029100002B010BD019A92F8DC31DBB292F8A82027
:10292000002AF3D113F0FB0FF0D0019890F82A3170
:102930000BB13A24EBE790F8D23003F0FF04002B00
:10294000F7D190F8C9309B0706D1FF2380F82A31D0
:10295000684609F04CFFDAE70249CA3009F094FFF3
:10296000D5E700BF53CF0000F0B5077885B0044627
:102970000D46EF2F03D91225284605B0F0BDB0F85B
:102980000130ADF80C309DF90C209DF80C30002A78
:10299000F1DB9DF80D209207EDD1DE063FD49806BD
:1029A00003F0030238D5002AE5D11907E3D4637890
:1029B0001A0711D42179E278E07942EA012261799B
:1029C00042EA0142A17941EA0021207A41EA00412C
:1029D0008A42D0D81F2ACED9627A013A062ACAD8AA
:1029E000A27A032AC7D813F0040102D1023A012ABD
:1029F00003D8E27A012ABED811B9A27C032ABAD838
:102A000013F01001227D19D0012AB4D1227E012AAF
:102A1000B1D8B1B91125AFE7032AC6D1ABE713F09E
:102A2000600FA8D103F00F0203F00703052BBED0FF
:102A3000931E012BBBD9002A9DD1B8E7022AE5D10C
:102A400099E7DB0713D46378227D03F01803082B82
:102A500012D1022ADED1BFB201213846FEF7A4F915
:102A6000064678B108F0C2FDB8B10C2584E700F045
:102A700035F90028E7D1CDE7022AECD0237F002BDF
:102A8000E9D0C7E701213846FEF750F9064650B3B2
:102A9000164B93F906100AF0ECFA30460AF0F3FBF5
:102AA00021462870E07430460AF037FBE37E054685
:102AB000002B3FF461AF00287FF45EAF0246316B1C
:102AC0006846FEF7A7FA2A46306B012108F0B0F9F4
:102AD000316B68460422FEF79DFA2A462946306B80
:102AE00008F0A6F948E7072546E700BF180D0020C3
:102AF00070B505798AB00346042D5CD84488B4F5D6
:102B0000804F58D82D480021465D2844ADF800106C
:102B10004279857A42F01002C07B8DF8081042EAB3
:102B200046028DF81D1042EA850242EAC00202F018
:102B30001F028DF80020BDF80020ADF809201A888A
:102B40008DF80E40240A8DF80B20120A8DF80D1016
:102B50008DF810108DF80C208DF80F405A7BD3F8AB
:102B600007008DF811205A79059002A88DF81220DF
:102B70009A798DF81320B3F80B209B7BADF81820C1
:102B80008DF81A307F238DF81B3001238DF81C300F
:102B90008DF81E308DF81F108DF820108DF8231041
:102BA0008DF824108DF821108DF822106946FFF75A
:102BB000DBFE0AB070BD1220FBE700BF64360200E6
:102BC0000278034672B1427862B142881A2A09D962
:102BD00082881A2A06D90068034A106000209B8860
:102BE0009380704712207047441100200268002033
:102BF000014B9A60704700BF441100200378A3F195
:102C00000A02112A9BBF024A002012201374704747
:102C10004411002008B5052000F090F803F078FA80
:102C2000014B024A9A6008BD180D00208D24000057
:102C300008B502F0CDF8FFF747FB0248BDE80840B1
:102C400002F0B0B8240D002010B501230A4C84F81E
:102C5000023102F0C5F80AF091FC09F070FB04F2B1
:102C600003112046FEF708FC002008F080F8BDE8BC
:102C7000104000F0FBBE00BF240D002010B5064C34
:102C8000064904F5027009F017FA04F503700449C7
:102C9000BDE8104009F010BA240D00209400002077
:102CA0009C00002010B5094C094904F5027009F098
:102CB00003FA04F50370074909F0FEF904F50470FE
:102CC0000549BDE8104009F0F7B900BF240D002008
:102CD000A4000020AC000020B4000020014B93F8B9
:102CE00002017047240D002010B5074C00F09AFE39
:102CF000D4F8080209F0D8F9FFF76EFC00F0C8FF1D
:102D0000012384F8143210BD240D0020014B93F8E8
:102D100014027047240D002010B5074CD4F80C02A3
:102D200009F0C2F9D4F8100209F0BEF9FFF72CFC43
:102D3000002384F8143210BD240D0020C208054978
:102D4000012300F0070003FA00F08B5C184388545D
:102D5000704700BF50000020014BD3E900017047CD
:102D600050000020034B1868C0F30020400040F0E2
:102D7000010070475000002008B505F043F900231A
:102D8000074A32F82310814205D302EB83039B7874
:102D9000044A137008BD01330C2BF2D10023F7E76E
:102DA00078360200390F002010B54468238884F873
:102DB0006711A4F8683194F86830012B06D0022B13
:102DC00004D040F249310620FDF7E6FB84F86A3171
:102DD00094F86930012B01D0022BF2D184F86B31C9
:102DE00004F5AF70034909F04FFD002384F8243146
:102DF00010BD00BF33C1000040680749038800F2DE
:102E00005110A0F8093010F8F13CC37210F8F03CF2
:102E1000037309F033BD00BF49C100002DE9F04341
:102E200089460979446885B099F8058001F0070161
:102E3000054694F8867008F007084B1E08F1FF322B
:102E40000B4002EA0802134394F88720232A2CD16E
:102E500004F18706002B43D1404609F0C4F968B35A
:102E600094F86830984229D094F82421012A0CBFA4
:102E700094F8262194F8642018EA020F30D0212F0C
:102E80001CD094F8612018EA020F17D10138C0B2A3
:102E9000032805D8013B524ADBB2105C032B0AD948
:102EA00040F21F210620FDF777FB212F40F0948090
:102EB00004F18606CEE7D35C834211D8084609F0B8
:102EC00092F9A8B394F86930834231D094F8243150
:102ED000012B0CBF94F8273194F86530194227D1A3
:102EE00094F82431012B13D11E212846FFF75CFFF3
:102EF000212F11D16B68182283F80921092283F848
:102F0000862093F8C230CBBB40F2B321AE20CAE793
:102F1000002384F82431EBE700232846337009F0BE
:102F2000CAFD1821284605B0BDE8F04309F0EBBD05
:102F3000B9F8067003AB4246204600933B4609F0C1
:102F40005DF96A680446F0B992F82431012B17D173
:102F500001462846FFF728FF34706B6803F18702AB
:102F6000964202D1002283F887206B68002403F187
:102F7000870296422DD1284609F09DFD00202CE0C5
:102F800082F82401E9E7B2F88030A2F83C72DB4312
:102F90001F4447F6FD73BFB29F4206D92823284637
:102FA00082F8A93000F0F8FFDFE792F887300D2BA8
:102FB00002D00A3B012B01D82A23F0E79DF80C3000
:102FC00082F83E329DF80D3082F83F32252333706F
:102FD000CBE783F8C240D1E7022005B0BDE8F0831B
:102FE000A8360200044B002283F822204FF6FF721D
:102FF0009A84DA841A8570473A0F0020054B9A8C20
:10300000824201BF002283F822204FF6FF729A8489
:10301000704700BF3A0F0020014BD884704700BFB3
:103020003A0F0020094A03464FF6FF71908C884200
:1030300006D192F82210012905D001201A607047AC
:103040000020186070470020704700BF3A0F002032
:10305000064B93F82220012A1BBF0120DA8C0020A6
:1030600083F8220018BF9A84704700BF3A0F0020EF
:10307000014B1885704700BF3A0F0020064B0246EF
:10308000198D988C884205D193F8220018B101203F
:1030900013607047002070473A0F0020094B998C4D
:1030A0001A8D914201D0002070474FF6FF729A842A
:1030B00093F82220002AF6D00022012083F8222053
:1030C000704700BF3A0F0020054B998C1A8D914232
:1030D00003BF93F82200B0FA80F040090120704746
:1030E0003A0F002050B90A4A0120134603F8010B99
:1030F0000868C2F801008A889A807047012805D1C3
:10310000034B0A68D8719A608A889A81704700BF19
:10311000640F002048B90A4B187880B1D3F8012019
:10312000B3F805300A608B807047012806D1044B44
:10313000D87920B19A689B890A60F4E7002070472B
:10314000640F002020B9054B187800F0010070478B
:1031500001280ABF014B0020D879F6E7640F002050
:10316000F7B58B8800228DF80600ADF804300868AA
:103170000B4B8DF8072001461C7803F5AC73019DBD
:10318000D0B2844201D8082007E0D3E900760132AA
:103190000833AE4208BF8F42F2D103B0F0BD00BF8A
:1031A000780F0020084B0146002230B55C7803F50B
:1031B0008173D0B2844201D8082004E013F8015B87
:1031C00001328D42F5D130BD780F0020F0B5254D8C
:1031D00089B095F8984105F299116846224606F0A3
:1031E00025FC2146684609F0CBF80446B8B300EB4D
:1031F000400102A8C9B2FDF75FFB601E95F8A1610E
:103200000124C0B295F8982105E0731CB3FBF2F1DC
:1032100002FB1133DEB206F120030DEB030111F8BE
:10322000203C002BF1D100EB400201F8204C06EBD2
:10323000460320322B446A4412F8187C83F8A271AA
:1032400012F8177C12F8162C83F8A37183F8A421C6
:103250000138AB19C0B283F89941FF28D2D109B027
:10326000F0BD00BF780F002070B5064688B00C4650
:10327000002A4ED0294A92F8A131D01890F899111D
:1032800019B9FF212820FDF787F903EB430101332A
:10329000114491F8A251E57091F8A35191F8A4114D
:1032A00025716171002180F8991192F89811B3FB92
:1032B000F1F001FB103382F8A13192F8C23123B949
:1032C000174902F5DD7009F0DCFA65790D2200215D
:1032D000684605F03F0545F0400565710AF0D3FBEF
:1032E000E37804AA69468DF80F30304623798DF8CB
:1032F0000D508DF80E3004230AF011FB9DF81F309D
:1033000023709DF81E3063709DF81D30A37008B0C7
:1033100070BD03216018FDF7CFFAD6E7780F0020C3
:10332000CD310000044B5A78824286BF1B1893F8B7
:103330004A010020704700BF780F0020044B5A78E4
:10334000824286BF1B1893F842010020704700BFDD
:10335000780F0020064B00224FF461711A8083F829
:10336000C32183F8C421A3F8C61183F8C221704792
:10337000780F0020014B83F8C4017047780F0020BC
:10338000014BB3F8C6017047780F00200A4B30B5E7
:103390005C7884420ED9184490F802012B3003EB7C
:1033A000C004A5790D7053F8300010600120A38887
:1033B000938030BD0020FCE7780F002002460748CC
:1033C00010B590F8C34124B1417821B1023002F028
:1033D000C5FE204610BD0C46FBE700BF780F00205D
:1033E0002DE9F74F2F4C9A468046894663788342F1
:1033F00056D9231893F8425185F00105F9B193F895
:103400004A31E3B945F002070135BAF1000F18D18E
:10341000FA070AD5062104EB0810524601FB0841C1
:10342000823001F58571FFF71FFFBB0734D504EB30
:103430000810524649460230FFF716FF2CE02F468F
:10344000E3E794F8A1614FF0010B002DE0D0A31940
:1034500093F89911019399B90092DAB100F0E8FB61
:10346000019B06EB4601009A4FEA102C83F899B1B4
:10347000214481F8A201000C81F8A3C181F8A401C4
:10348000013694F89831013DB6FBF3F103FB116668
:10349000F6B2DAE747F00407384603B0BDE8F08F2C
:1034A0000027F9E7780F0020074B5A78824209D9A4
:1034B0001A1892F842212AB9062202FB003000F5C0
:1034C0008570704700207047780F0020064B5A78AF
:1034D000824281BF1B1893F83A01B0FA80F040098C
:1034E00098BF0020704700BF780F002030B500243F
:1034F00042F21075A0F84040B0F844404C43B4FB91
:10350000F2F4A0F84440541E05FB0343B3FBF2F36E
:10351000A0F84230084BB3FBF2F30133A0F8483077
:10352000838F05FB0344436B5943B4FBF2F4B1FBB7
:10353000F2F28463426330BD005A620270B5044601
:103540000D4659BB4FF41A720AF09DFA012384F814
:10355000DE5084F88E306FF0360384F8D9300423BF
:1035600084F8DA306FF03B0384F8DB306F2384F8A3
:10357000DC306FF03C0384F8DD306FF07F0384F8BB
:10358000DF302B2384F8D830FE2384F80E317F23DC
:1035900084F88530202384F8F33170BD012917D1D8
:1035A0000023A0F8B43180F8AB310D4B826913448D
:1035B0001146B3FBF2F3C0F8B03040F6B833A0F8D0
:1035C000B430438C04F17800BDE87040FFF78EBF43
:1035D0000229E2D1B0F84A32D0F844228169F1E7F9
:1035E0007FC3C901034B80F870101B680BB10088C2
:1035F00018477047BC000020074B93F9003018446F
:10360000142804DC10F17F0F03DB40B27047142054
:1036100070476FF07E007047401100207F2307B590
:103620000DF107008DF8073003F0FCFC9DF9073021
:1036300068B10A4A5078404240B21844142808DC65
:1036400010F17F0F07DB40B203B05DF804FB1846B2
:10365000FAE71420F8E76FF07E00F5E7401100204C
:10366000024B00221A705A70704700BF40110020B0
:103670000346407898B1DB783F2B05D8084AD35CE5
:103680001B1A58425841704703F11402D2B2022A61
:1036900004D8034A134413F8AC3CF1E70120704707
:1036A000AC3602003F2908B5C17003D80B4B5B5CF8
:1036B000437008BD01F11403DBB2022B04D8074BA1
:1036C000194411F8AC3CF3E7FF2904D04FF48A61A8
:1036D0002A20FCF761FF0123EAE700BFAC360200B5
:1036E0002DE9F347894669461446984608F069FE75
:1036F000054600283AD1019E34B9012486F88D4050
:10370000204602B0BDE8F087D6F810A0214650460A
:1037100007F06FF9014658B3174B5B88A34229D3D2
:10372000504607F0A0FA96F88D3007460580002B2A
:1037300085700CBF4946022109F016F82246414621
:10374000F81C06F073F92146504607F08CF9044640
:1037500018B97E212B20FCF71FFF684609F047F8B7
:10376000019BA3F8A25186F88D50C9E70124C7E751
:103770000446C5E72C46C3E744110020024B987D60
:10378000C04300F00100704744110020034B987DB6
:1037900080F00200C0F34000704700BF44110020D9
:1037A00083230B70014B1B78CB7070475C1100209A
:1037B0002DE9F84FD0F804800D46D8F81460304653
:1037C00007F043FA044618B9FF211020FCF7E4FE85
:1037D0000146304607F047FAB4F800B082461FFAB7
:1037E0008BF717B940F20311EFE71E4B00F1030905
:1037F0001B688BB9B8F80030A5F806B0AB80002381
:103800006B729AF8003003F00303012B0FD0022BE8
:103810000DD040F21D11D8E73A464946B8F80000ED
:10382000984704460028E5D12046BDE8F88F304689
:103830002B7207F01EFA044610B94FF49371C4E7D7
:10384000FB2F02D940F23511BFE7286810B94FF4B9
:103850009B71BAE73A46494606F0E8F8304607F069
:1038600064F9E1E7C00000202DE9F347824689466C
:1038700005270025DFF84C81D9F8103053B11B7AA9
:103880001BB980211020FCF787FED9F81040B4B98D
:10389000002070E0D9F80440237A012BF8D0EFF330
:1038A000108372B6D9F804201268C9F8042003B94D
:1038B00062B6C9F81040237A0BB9A621E2E7267A4E
:1038C000F6B22772731E0B2B69D8DFE803F065068A
:1038D0001C3362683C6868686857636813B94FF4C2
:1038E000D771CFE72046514698470420EFF3108365
:1038F00072B6227A052AD1B25BD12572C9F810506E
:10390000ABB962B613E0636813B940F2B711B9E717
:103910005146204698470346ADF80400C0B2C3F3B1
:103920000723012B3ED0022BE0D1C9F8105000280C
:10393000A2D020E0636813B940F2BF11A2E720468D
:1039400098470020D2E763680BB9B5219AE70B22AC
:1039500000248AF800200122198818698AF80220B8
:10396000AAF803108AF805208AF8064007F0DDF867
:103970000420C9F8104002B0BDE8F087D8F8003044
:10398000514620469847034660B10220C9F81050BE
:10399000F1E74FF4FB7175E740F2F91172E74FF46C
:1039A000FE716FE726720028E5D1002B7FF464AF2B
:1039B0006EE711B940F21D2164E7002B7FF45CAF84
:1039C00062B659E7C400002070B5144C14260021DB
:1039D000231D324618460AF056F803460125257481
:1039E00004333246002104F11800C4E901330AF01F
:1039F0004AF884F8245004F11C03094AC4E9063348
:103A00000023E362236384F83430C4F83530C4F80B
:103A1000393084F83D30136070BD00BF5C11002068
:103A2000C000002010B5084C2378FF2B04D04FF4C1
:103A3000A0711020FCF7B0FD05F000FF2070BDE87C
:103A40001040FFF7C1BF00BF5D00002010B5034C60
:103A5000207805F00FFFFF23237010BD5D000020CC
:103A6000014B187805F016BF5D000020014B024A9B
:103A70001A607047C4000020B137000010B5064935
:103A80000446FFF7F1FE28B920460449BDE810407E
:103A9000FFF7EABE10BD00BF7411002060110020C6
:103AA000134610B5027A22B140F299211020FCF79A
:103AB00073FD0A4601460248BDE8104008F0BEBE4C
:103AC00060110020044890F834301BB903492C30B1
:103AD00008F0D1BE704700BF5C1100202FC8000065
:103AE0000346064890F83E203AB190F83D2022B9AE
:103AF000034900F8353B08F0BEBE70475C1100205A
:103B0000A13700000A4610B5037A23B140F2A12183
:103B10001020FCF741FD014607230248BDE8104094
:103B200008F08CBE741100201346027A0AB10372A9
:103B300070470A460146014808F080BE6011002027
:103B40001B234FF01B128384038482618382C26033
:103B5000038539B94FF4A473034AC3844384C26113
:103B6000C3820261704700BF48014801034608460E
:103B7000F0B4B3F85420B3F84840B3F85610944268
:103B8000B3F84460DF8F28BF1446B3F84C20B3F875
:103B900042508A42DC8728BF0A46B3F84610914259
:103BA000A3F8422038BF1146A64238BF2646A74296
:103BB000A3F84610A3F844601FD1AA1A18BF012227
:103BC000B3F84A50B3F85040B3F85270A5429E8FF4
:103BD000B3F8401028BF2546B3F84E40BC429D873D
:103BE00028BF3C46AE42A3F8404002D1A14200D1DA
:103BF0002AB10449F0BC08F047BE0122E0E7F0BC5E
:103C0000704700BF8FC800000B8BA2F80900104658
:103C1000A2F80B304B8BA2F80D308B8BA2F80F3033
:103C2000CB8B0249A2F8113008F028BEDFC8000093
:103C3000094AD2E90003434083EAB01181EA4321F3
:103C40004FEAF34311605360044B58434FEAF0606E
:103C500000EB8000704700BF9C110020BB79379EAD
:103C6000094AD2E90003434083EAB01181EA4321C3
:103C70004FEAF34311605360044B58434FEAF0603E
:103C800000EB8000704700BF60000020BB79379ECA
:103C900010B50A4C08210948FCF70EFED4E90023B0
:103CA0001343F7D0064CFFF7DBFF2060FFF7D8FF88
:103CB000236860600343F6D010BD00BF60000020A1
:103CC0009C110020174B184A9A60184A5A60184AEB
:103CD0001A60184A9A62184ADA62184ADA60184A70
:103CE0009A61184A1A63184A1A62184ADA64184A1A
:103CF0009A64184A5A62184B184A9A60184A5A62CB
:103D0000184ADA62184A1A61184A5A61184A9A61BE
:103D1000184A1A63184A9A64184ADA64184A9A6365
:103D2000704700BFC800002095CB0000C5CB000045
:103D300031CC000097CD0000EBCD0000C140000069
:103D400001CE0000F9420000A5410000CFCE0000E6
:103D5000EBCE0000ED410000D4010020B1CB00000B
:103D6000A1CE000023CE0000C7CD000047CE00004A
:103D70004541000071CF000019CF00000BCF0000BB
:103D800087CE0000044B054A5A65054B054A1A6563
:103D9000054A5A65704700BFC8000020E5CC000006
:103DA000D4010020CBCC000043CD0000054B064AD7
:103DB0009A65064A1A66064B064A9A65064ADA6505
:103DC000704700BFC80000207DC200001D2E00000B
:103DD000D4010020CDC100001FC30000252A0346E6
:103DE000084610B518D8012A19D9023A232A16D83C
:103DF000DFE802F01A1524232330153415233A4541
:103E00004915154D23236060767D1515151515157B
:103E1000151515151588939BFF2A00F08E8040F22A
:103E2000D4415120FCF7B8FB5A681B78012B0CBF1A
:103E300092F8103192F81931037110BD5968D1F818
:103E4000BE214260D1F8C22182605B68D3F80431A0
:103E5000C360F2E75B6893F81031EDE7014618465E
:103E6000BDE8104000F012BA0F23037159234371CB
:103E7000002383716923C37130230372DDE75B681C
:103E800093F80A31D8E7BDE8104000F0EFB95A685E
:103E90001B784BB992F8103133B192F80D310371A0
:103EA00092F80C314371C8E792F80B31037192F824
:103EB0000A31F7E75B68B3F854200271120A4271C5
:103EC000B3F812218271120AC271B3F85020027243
:103ED000120A4272B3F8103183721B0AC372ACE744
:103EE0005B6893F82621027193F82731DAE75B6863
:103EF00093F82421012AF4D093F86420027193F8F6
:103F00006530CFE7114A1468002C96D001461A4656
:103F100023202346BDE8104018470C4A1468002CA3
:103F20008BD001461A462420F3E7084A1468002C77
:103F300083D001461A462520EBE75B68BDE81040B8
:103F400093F83722D3F8381208F016BCE0020020AC
:103F50003F2803D8064B53F82000704700F11403A4
:103F6000DBB2022B01D8AC38F4E70020704700BF69
:103F7000C80000203F2803D8064B53F820007047A4
:103F800000F11403DBB2022B01D8AC38F4E70020B7
:103F9000704700BFD4010020F7B5456804464FF6CE
:103FA000FF772E690DF102010DF101023046ADF8E7
:103FB000027006F073FD01A9304606F091FD40B194
:103FC000019806F054FE616800220272FFF79AFD24
:103FD000E8E7044905F1A00003B0BDE8F04008F0AF
:103FE0004DBC00BF29CB0000F0B5044685B00D469E
:103FF000FF2600F8896C10F88A3CF3B1184F3B7823
:104000001BB148211F20FCF7C7FA0C21381DFCF713
:1040100053FC3E70002304F8893C07232A4602F82B
:10402000033BD4F80930C5F80330D4F80D305360A1
:10403000D4F81130936005B0F0BD01A80C21FCF755
:104040003BFCA4F51473039AC3F8042101AB03CB22
:1040500044F8920C44F88E1C04F88A6CDAE700BF2E
:10406000A411002010B5054C23782BB90C21201D7C
:10407000FCF722FCFF23237010BD00BFA411002019
:10408000024690F8C631BBB990F8C73103F0FF0182
:104090000BB100207047094B18780028F9D019702F
:1040A000D9680433C2F8041103CBC2F8BE01C2F8C8
:1040B000C211FF2382F8C63101207047A4110020ED
:1040C000426838B592F8873004460D463BB1132B51
:1040D00005D0113B0B2B94BF0820012038BD92F86E
:1040E000C83013B9204608F0DCFC6268D5F80E3001
:1040F000C2F8B631D5F81230C2F8BA316368D5F8D3
:104100001620C3F800211A88A3F859226A68C3F858
:104110005B22AA68C3F85F226368AA89A3F86322B6
:104120006368002583F8C6516068054900F514707E
:1041300008F0A1FB63681522284683F88720CDE7A5
:10414000E93F000038B54368044693F887201C2AED
:1041500004D04FF4DE711F20FCF71EFA002293F802
:10416000C8101D8803F5C97083F8C72069B10B49D1
:1041700083F8C820A3F89C5183F89B2108F07BFBAF
:104180006368002283F8872038BD012283F89B11E1
:10419000A3F89C51024983F89E21EFE783CD0000EC
:1041A00075CD000038B54568AB6F13F0010417D129
:1041B0004A680C4B896813400B4AC5F8D830C3F3E2
:1041C00007630A4043F00803C5F8DC2085F8DB30BC
:1041D00008F067FCAB6F204643F00103AB6738BDC6
:1041E0000120FCE72FC904F76FDB0080406810B5A1
:1041F00090F88630042B23D14B688A68C0F8D830F9
:10420000C3F30763C0F8DC2043F0080380F8DB3019
:10421000002380F8C23080F8863090F8742102F0D4
:10422000FF047AB9038800F5B670447243814B6885
:10423000C3608B680449036108F01DFB204610BD74
:104240000124FBE71C46F9E765CE0000406890F8C2
:10425000743143B9038800F5B670034943811A23CA
:10426000437208F008BB704765CE000010B50446E5
:10427000FEF772FD034A044B02400B406260A360EC
:1042800010BD00BF2FC904F76FDB008037B50C46A7
:104290004568FEF761FD084B084A03400A4095F85F
:1042A000D81000930B4001928DF800306B4603CB81
:1042B0006060A16003B030BD2FC904F76FDB0080E0
:1042C000DB0410B5144604D5037D13B1002343630A
:1042D00010BD436B0133436308F02BFED0E90D237F
:1042E0009A42F5D30023034943632046BDE81040BA
:1042F00008F0CABAC1CE000038B54468054694F843
:104300008630012B02D0A36F980739D494F8C930B6
:104310009A0715D40A79D80784F8D320B1F8052074
:10432000A4F8D420B1F80720A4F8D62043F0020264
:1043300084F8C9200FD5134904F1CA0008F0A4FA83
:1043400094F8C930D90711D4A36F9A0708D555211D
:104350004020FCF721F994F82A31002BEBD1EFE74C
:1043600043F002032846A36708F09BFB94F88630CD
:104370000020012B03D184F8860084F8C20038BDE8
:104380000120FCE753CF000070B545680446FFF7F5
:1043900045F9054B014685F885001B681BB1204691
:1043A000BDE87040184770BDE8020020024B1B6852
:1043B00003B11847704700BFE4020020F0B5204E5B
:1043C000054600243078147080B1431E7768DBB254
:1043D000181B01280BDC07EBC40057F83460406859
:1043E000884208BFAE4212D114700120F0BD1819E6
:1043F0004610C0F3470057F836C007EBC60EAC4571
:10440000DEF804608E412CBF03460446E0E7B54267
:1044100071EB000002D214700020E7E707EBC30045
:1044200057F833404068884208BFAC4201D113704E
:10443000DBE7A542814128BF01331370ECE700BFE1
:10444000C411002010F0070208B503D063214820F2
:10445000FCF7A2F818B1034B197258601A70C80023
:1044600008BD00BFC4110020014B00221A70704724
:10447000C4110020014B187A704700BFC4110020FE
:104480002DE9D34308F096FD0DF1070207460E46CD
:10449000FFF794FF98B9114C2278237A93420ED0FB
:1044A000616813466FF0604E9DF80700984209D38B
:1044B00001EBC003013201202270C3E9007602B093
:1044C000BDE8D08303EB0E00013B01EBC000DBB283
:1044D000D0E90089C0E90289E6E700BFC4110020E5
:1044E00037B508F067FD0DF10702FFF767FF0446D7
:1044F000A0B10C4A9DF8070013785568411C013B98
:1045000005EBC101DBB213701A1AD2B2D20083429A
:1045100038BF002205EBC00009F09DFA204603B029
:1045200030BD00BFC41100200A460648822302F8AD
:10453000033B0368C1F803304368536083689360AA
:10454000704700BFCD11002016220021014809F05C
:104550009ABA00BFCD11002082B002AB03E903007C
:104560000D48437DB3B1530614D50A880C30B1F819
:10457000803020F80C2CD1F8182220F80A3C40F8A2
:10458000082CD1F81C22054940F8042C022202B064
:10459000FFF7CABA02B07047CD11002029450000CC
:1045A0000346074A1068D3F85120C0F80320B3F837
:1045B0005520A0F8072093F8501008F059B800BF14
:1045C000EC11002070B504460E461346407F658806
:1045D000324615F0040118BF04F15F01FEF700FF39
:1045E0004207054623D4C3070BD50123607F84F817
:1045F0005030FEF759FF0368C4F851308388A4F89F
:10460000553015F0020F4FF001050ED0094B294629
:1046100084F85E501868D4F85F30C0F80930B4F8F8
:104620006330A0F80D3008F02CF8284600E0002098
:1046300070BD00BFEC11002038B5C38D04460F4D8E
:104640000133C3F30E03C385AB7C2BB102F0DCFC5A
:1046500001F0E2FD0023AB7400232B7194F871305C
:104660002BB101212046BDE8384006F07FBF637CB6
:1046700013B1E28D9A42F4D20021F3E7EC1100204D
:1046800010B5094C2379012B02D02379022B05D1D7
:10469000A37C1BB102F0B8FC01F0BEFDE069BDE8EF
:1046A0001040FFF7C9BF00BFEC11002070B5294CC6
:1046B0002379012B07D02379022B04D040F65741F0
:1046C0002D20FBF769FFA0B90125A37C1BB102F0E7
:1046D0009BFC01F0A1FD002D3AD0E06906F0BFFE81
:1046E000002830D002F066FB236ABDE870409B686A
:1046F00018472168E26911F8095B02F1510392F849
:104700005020E80907F01EFE0028DDD000212068B7
:1047100007F0DCFF0028D7D02379E069012B05D012
:104720002379022B02D04FF44361C9E7237905F0C6
:104730000F01226A03F180435269013B52F8233092
:1047400098470546C1E7E069BDE87040FFF774BFD0
:1047500070BD00BFEC1100200346074AD06903B9C1
:1047600009B9FFF769BF1379126A03F1804312692F
:10477000033B52F823301847EC11002003292DE9A0
:10478000F043054685B090467BD090F870300529FF
:10479000DBB202D14288D60760D5002B5ED101275B
:1047A000DFF8E89099F81260B6B107F000FE08282B
:1047B00088F8000014D002AA0DF10701FEF7E6FD0B
:1047C00020B940F6CF612D20FBF7E6FE02A99DF847
:1047D000070008F0FBFB064698F80030082B08D1CC
:1047E000D9F8001011F8030BC0F3801008F0EEFBAD
:1047F0000646D9F8001005F1580395F8572011F82E
:10480000030BC0F3801007F09DFDD9F8001004469B
:1048100011F8030BC0F3801007F0BFFD8146FEF7CF
:1048200055FE014640B1B9F1080F1BD04846FEF7CE
:1048300079FD80F00101C9B298F80000082815D070
:1048400094B96B7F1C1A604260416B885A0706D48A
:1048500021B996B9EB7C93B1BB4210D0002005B0D2
:10486000BDE8F0830021E7E70120EEE714B181F015
:104870000104E4B204F00100E7E73046EFE701206D
:10488000EDE743889B07E9D5022789E7EC11002073
:104890002DE9F04F85B00823052104460DF10702EC
:1048A0008DF80730FFF76AFF064620B9002630462C
:1048B00005B0BDE8F08F744F396807F11403FA7C36
:1048C00011F8030BC0F3801007F03CFD8046002870
:1048D000ECD13B6840F2E249216A184691F88E20FB
:1048E00010F8035B02EA551202F0010281F88E20F3
:1048F000D3F80320C1F803208288A1F807201946C5
:10490000226A11F81F0BC0F3801090700979D3F858
:104910001F008DF80C10D3F80F100290D161597D53
:10492000187D090441EA0021D87C01435162B3F8A3
:10493000191082F8728009FB01F191619D7DC5EB30
:10494000451105EB810505EB85056D009585B3F8EF
:10495000171009FB01F19162B3F81B101184B3F831
:104960001D10518493F8243003F01F015B0982F875
:104970009A1002A982F89F31256A94F912B005F1C4
:104980008E0007F0CCFD40F20113A5F868304FF01F
:10499000FF0A85F86AA0414605F13000FFF7D0F81C
:1049A00059462846FEF71EFE236A84F87B8004F1F0
:1049B00086011A8884F899A0A4F87C204FF6FF722B
:1049C0009DF80700A4F89A209A69B2FBF9F2A4F8BE
:1049D00092201A8CA4F894205A8CA4F8962093F86C
:1049E0009F2184F89820227F5AB394F85020012AFE
:1049F00027D194F8562002F0C002402A21D1D4F8E1
:104A00005120C4F88620B4F855208A8008289A7866
:104A100003F1030504F18C0184F87F2004F1800286
:104A2000D3F8033027D0C4F88C30AB888B8004F1E6
:104A30007F01FEF7ABFC40B940F6B6312D20FBF705
:104A4000ABFD0022C4F88620DFE794F87F3043F006
:104A5000020384F87F3004F172000C4907F00BFF69
:104A60000B4B0022206A1B683A71002B3FF41FAFEA
:104A7000214698471BE7C4F88030AB889380002319
:104A8000C4F88C308B80E6E7EC110020F9CF0000F1
:104A9000F0020020032973B5044604D0052956D03E
:104AA000012002B070BD08230DF107028DF8073018
:104AB000FFF764FE0028F3D0237C2A4D03B39DF852
:104AC000070094F8BE30DBB92378082804F1C1024E
:104AD00084F8BF302CD004F1C001FEF757FC20B998
:104AE00040F645712D20FBF757FD94F8C03043F098
:104AF000020384F8C0301C4904F1B60007F0BBFE85
:104B00002B680622042620465A701E70FFF748FDC7
:104B100094F84020E16B286807F0C9FD28682E71E1
:104B200002F000FA2868002108F091FD0020B8E7A3
:104B30002868034613F8031BC1F3801184F8C010E2
:104B4000D0F80310C4F8C1109B889380D3E7074BBB
:104B50001B6823B1984780F00100C0B2A1E7184656
:104B60009FE700BFEC110020E1CF0000EC02002025
:104B7000F8B504460F4619B300F12805284608F099
:104B800020FCA0B963881A072ED5284608F02EFC11
:104B90000646284608F015FC301AC0B208F034FC6E
:104BA000494A936803442846936008F0E9FB284685
:104BB00008F0EBFB02F05CF82179252001F0BCFF46
:104BC000414E002394F85E20306803704370638880
:104BD000103B0D2B68D8DFE803F063675F0C674478
:104BE00067676767676767442046BDE8F840FFF777
:104BF00023BD06234370202303702046FFF7D0FC1B
:104C0000638823F008039BB2152B05D094F8382055
:104C1000616B306807F03CFD306802F083F90021D9
:104C2000306808F014FD032321790020337102F06D
:104C30004BF8054607B9F06063881B0704D508F0F8
:104C4000E0FB0544C4F8D8506388103B0D2B36D8E0
:104C5000DFE803F038352F2F352F3535353535352D
:104C6000352F0C2321214370034603F8091B52B151
:104C7000D4F85F200121C0F80920B4F863209A809D
:104C800007F0FFFCB9E7A26DC0F80920B4F85C207A
:104C90009A8094F85710F3E7062303704370ACE74B
:104CA000022303700623F9E740F234612D20FBF75D
:104CB00073FC21790120BDE8F84002F0BFB940F64D
:104CC000CA41F3E7F8BD00BFEC11002038B54388B6
:104CD0000446102B04D10121BDE83840FFF748BF3E
:104CE0000B4DAB7C23B101F06BFA402002F080F950
:104CF000286802F017F9608810F0040002D12179C9
:104D000002F09CF9002002F04FF901232B7138BD0D
:104D1000EC110020024B0121D869FFF729BF00BF29
:104D2000EC11002010B5134CA37C1BB102F06CF900
:104D300001F072FAE06906F092FB70B12379E06944
:104D4000012B0FD12379226A03F18043D268013B02
:104D5000BDE8104052F823301847E069BDE8104024
:104D6000FFF76ABC2379022BECD040F658312D2096
:104D7000FBF712FCEC110020094810B5037903F091
:104D8000FF0453B918222146043008F07CFE02F0DB
:104D90003BF901F041FA204610BD0C24FBE700BFAF
:104DA000EC11002010B50023084C23712060FFF7A0
:104DB000E3FF20B140F2EF212D20FBF7EDFB236A4A
:104DC00013B940F2F221F7E710BD00BFEC1100204B
:104DD000014B024A1A627047EC110020B8500000E3
:104DE000034B044A1A60044B044A1A60704700BF20
:104DF000EC02002091480000F00200200524000091
:104E00002DE9F041067D0446B31EDBB2012B8CBFB9
:104E10004FF000084FF001087EB3B71E18BF0127FE
:104E2000012B36D800F1580190F8570007F0B5FA79
:104E3000082805462DD0FEF781FA58BB657784F81F
:104E40001C8084F85070FEF79BFA054608F08BFC36
:104E5000174B0022A5FB033584F85E201B18204663
:104E600045EB01051146C4E91235FFF7ABFB70B9FC
:104E700040F27A412D20FBF78FFB3746082504F1DD
:104E800051010020FEF746F90028D7D10020BDE8E7
:104E9000F0810825022EF2D0E37E002BF6D0D4F864
:104EA0001530C4F85130B4F81930A4F85530C5E7BE
:104EB00040420F00F0B5484E85B00446327902F00A
:104EC000FF0312B90278FF2A04D140F6B7112D2052
:104ED000FBF762FB3382B3607371B37180F871309A
:104EE0003E4B684604F1280500933D4B01933D4B32
:104EF0000293336A5B68039302F00CF801F04EFEF4
:104F000002F082F801F088F9374801F0A7FE37482F
:104F100001F0FAFF284608F033FA284608F035FA7F
:104F200001F0A6FE2179252001F006FE94F9120079
:104F300001F08EFE04F13401206B05F096FF074668
:104F400004F13C01206B05F0B7FF0546E7B194F88A
:104F50002430CBB1B4F92E50ED43ED0F237F13B9BC
:104F600063885B0709D56FF00043D4E912129A42B7
:104F700008BFB1F1FF3F0ED1ADB930680330FEF785
:104F80001DFAB07405B0F0BD002DE7D094F825509F
:104F9000002DDFD1E2E708F0E6FBD4E912239042CE
:104FA00071EB0303E8D3012229462046FFF70AFBF1
:104FB00068B1FEF7E5F9054608F0D5FB0C4BA5FBFB
:104FC00003351B1845EB0105C4E91235D5E7002D63
:104FD000D3D040F6F4117AE7EC110020254D000003
:104FE000AD46000059470000D6BE898E5555550084
:104FF00040420F00F7B50446FFF75CFF0021204652
:10500000FFF7B6FDA36E0BB101221A606388DB07C0
:1050100021D50023256A114E05F10A07CDE9003399
:10502000FF23F3746846FBF7F9FEA0B9009CA54284
:10503000F8D03B466A7A04F10A01607A07F082F9F7
:105040000028EFD0A378F374D4F80300044B706108
:10505000B4F807209A8003B0F0BD00BFEC11002027
:1050600000120020024BD8611B6A1B68184700BF62
:10507000EC11002043881B0710B504460ED5036AC7
:105080003C220849723042721B884381FF2380F81A
:1050900027304FF6FF73038507F0EDFBFF2384F8FD
:1050A000713010BDF9CF00004BD00000CD4C000096
:1050B00051D00000954A0000F54F000081460000E5
:1050C000154D0000A8500000AC500000B450000086
:1050D0000138022808B503D9C3212F20FBF75CFA59
:1050E00013290A4B05D811290CD8102907D0D12132
:1050F000F3E71529FBD103EB4003D88801E033F82F
:10510000100008BD03EB40039889FAE74837020016
:10511000F8B52F4B40281A8842EA00021A8005D1C0
:1051200004219868BDE8F840FDF7EEB8802801D169
:105130000521F6E700F00302032A04D140F6962188
:105140003120FBF729FA10F0020418BFD960C50717
:1051500005D5CA781961062A0DD00B2A18D02CB1B2
:10516000DA68D278052A1FD00B2A2AD0820644BFDB
:1051700008221A75F8BD9A6892F887101829EED19E
:10518000002600270121C2E9386782F88B10E6E784
:105190009A6892F88710122901BF002182F88B10BB
:1051A000012182F8C810DAE79A6892F88710162968
:1051B000DCD1002400250121C2E93A4582F88C1097
:1051C000D4E79A6892F887101129CFD10021F5E72A
:1051D0001012002013B5044601A8FDF723FF20B9E3
:1051E00040F687013120FBF7D7F9222200210198F0
:1051F00008F049FC0321019807F0B6FA019821460E
:10520000037823F010030370FEF74CFA224601994D
:105210000548FEF7E3FDFDF71BFF10B940F69101CD
:10522000E0E702B010BD00BF1412002070B5274C9B
:10523000A36893F83E6293F83F52002E3FD193F853
:105240006810002D3DD193F8692083F8681083F829
:105250006920FF2283F86A201D4B1B680BB1A068F0
:105260009847A36893F82431012B02D056EA05032E
:1052700003D000211748FDF797FDA068303007F0F4
:105280007AFB0546A06800F23511FEF76FFCA068B6
:105290000621FDF739F8A068303007F06CFB854235
:1052A000044610D202F05EFF0146601B192838BF89
:1052B000192004F059F8B0FA80F0400970BD314669
:1052C000BFE72A46C1E70120F8E700BF101200201F
:1052D00000030020141200200029034608BF1F21EC
:1052E000172810B50BD80D280DD90E3809280AD863
:1052F000DFE800F00B0909090B090B09110BA0F1FC
:105300002303022B23D9002010BD00211846BDE83D
:10531000104008F07DB8114CA36893F88620212A2C
:1053200009D1201DFDF740FDA368002283F88620E7
:1053300083F8C220E7E72E2AE5D193F88730A3F15E
:105340002002062AF0D92E2BEED02A21E9E7044BC1
:105350001B68002BD7D0BDE8104018471012002062
:10536000F8020020114B02460979986890F88630BF
:10537000212B11D02E2B0FD0282B0FD0042B0FD088
:105380000F2B0FD01D2B0FD090F88730232B14BF7D
:10539000FE201720FFF7A0BF1620FBE72320F9E728
:1053A0000E20F7E71220F5E71420F3E71012002093
:1053B00073B5044640680D46836F13F0300F47D134
:1053C00009891A290AD96B89B3F5A47F06D3AA885B
:1053D0001A2A03D9EE88B6F5A47F06D2E9782046CA
:1053E00002B0BDE8704007F08EBB3030009607F089
:1053F000D4FA184B1A8892070ED5DA68D278142A94
:105400000AD16268936F43F010039367204607F058
:1054100048FB002002B070BD626892F886101D291A
:10542000EFD092F81B21002AEBD1626892F81A2182
:10543000002AE6D161688A6F42F020028A679A6882
:10544000114602F59F7231F8300BFEF7DDFBDDE708
:105450000120DFE71012002008B50C4B9B6893F881
:105460000E21FE2A04D040F696013120FBF794F875
:1054700083F80E0111B9A3F8C41008BD0022A3F8E7
:10548000BE20012283F8C220F7E700BF10120020DF
:105490000C4A117D91B938B99068B0F85810828FD4
:1054A00091420BD8FCF722BF13881B0708D59368DD
:1054B00093F88800073818BF012070470020704714
:1054C0000120704710120020154BDB6810B51979C8
:1054D000436893F88620092A09D193F809218A4262
:1054E00005D1002283F8862083F8C22010BD9A6F70
:1054F00012F0080406D022F00802BDE810409A67B6
:1055000007F0D9BAFF2905D1332283F8344283F852
:105510008620EBE740F242513120FBF73DF800BF17
:105520001012002010B50B7904464268172B92F830
:1055300086200CD80D2B0CD9A3F10E01092908D80F
:10554000DFE801F009070707090709071009232BFE
:1055500026D0002010BD224601211846BDE810408B
:1055600007F056BF212A01D02E2AF2D1204607F09B
:105570008FFA636893F88720222AEAD093F8D9201B
:105580001A21204622F0010283F8D920626892F89D
:10559000D93023F0080382F8D930FDF705FCD8E7AD
:1055A000282AD6D1024B1B68002BD2D09847D0E7CF
:1055B000FC020020F7B505467E4C002840F0AC8088
:1055C00023881F0727D5A36893F80E21FE2A04D14C
:1055D00040F2BE513120FAF7DFFFFE2283F80E21A0
:1055E00093F887201A2A07D183F8C700201D07F0F7
:1055F00062FAA36883F88750A36893F88620202A6C
:1056000032D0332A3ED093F88820072A02BF0222E4
:10561000627583F80E212388DE073CD4238858075F
:1056200000F1A980990713D5E368DE780D2E00F00C
:10563000AA80112E00F0A980072E00F0A880304625
:10564000FEF798FC0346002800F0A3805A489847CC
:105650002388DA0660D5A36893F887200A2A5BD1ED
:105660000B2283F8872057E093F88720A2F12001CE
:10567000062901D92E2A03D12E2283F88620C2E7DB
:105680002122FAE7012283F83522002283F88620BE
:1056900083F8C220B7E7A368276993F88730113BE6
:1056A0000B2B0BD8FB78023BDBB2092B7DD80122F8
:1056B00002FA03F340F23332134276D03846FDF754
:1056C000D7FFFE7820B931463B4807F01CFA45E089
:1056D000012E01D9162E0FD1A36893F8860007F08A
:1056E000FFF948B1A36893F88620202A04D0212A24
:1056F0000ED12E2283F88620112E34D026D8072EE4
:1057000033D00D2E33D03046FEF722FC034621E085
:10571000162E0CBF20250225237D1B0713D5A36859
:1057200093F88730113B0B2B41D9002601A90320A8
:105730000196FBF7FBFF019B2BB11E720C22A168A7
:105740000198FEF7ADF9284603B0F0BD142EDAD16A
:105750001A4B1B686BB121691748984700283FF422
:105760005DAF0546D8E7164BF5E7164BF3E7164B4A
:10577000F1E7F978A8E7A26892F88820062A04BF22
:10578000012262754EE7114B60E7114B5EE7114B4A
:105790005CE7FF2E06D1A268332182F8340282F83A
:1057A000861055E740F2B25114E70825B4E7082502
:1057B000C9E700BF1012002014120020F4020020DC
:1057C0001DD500002555000065530000ADD4000034
:1057D000CBD40000C95400002DE9F041A44C0E4682
:1057E0000746B4F80080A16818F4007F01F178053D
:1057F0000CBFB1F8B820002328460DBF0132A1F834
:10580000B83081F8AF31A1F8B82007F076FE28B1A2
:10581000434601F596722846FEF752FD238803F4AD
:10582000C06333B1A06890F88A30002B4AD0032BB4
:105830004ED0A168238891F88A20012A04D11D0541
:1058400044BF022281F88A20002F40F0AC80580625
:1058500057BFB1F8C8213A46013292B2A1F8C82127
:1058600003F00A020A2A0DD1E268D278022A09D18D
:1058700023F0080330462380FFF79CFE06430823ED
:10588000F6B223803046FFF795FEA368064393F8EF
:105890000E21F6B2FE2A4ED1002E4CD193F888206C
:1058A000063A012A47D993F81831B3B1A368012108
:1058B000022093F81921A3F8BC6083F81021FFF7A8
:1058C000CBFD38E0012180F88A10FCF71DFDB0E720
:1058D0000223012180F88A30F7E7A06890F887302A
:1058E000A3F11005EDB20C2D11D8113B0B2B00F2DA
:1058F0005181DFE813F007014F014F014F010A0109
:1059000012014F014F014F014F014F013D01836FC4
:10591000D90702D531460920D1E79A0740F19A808C
:1059200031460C20FFF798FDA26892F8C93043F089
:10593000010382F8C930A568B5F8A83195F8AC81A3
:105940000133A5F8A831B8F1000F00F0E181FBF7B1
:10595000DFFE10B10023A5F8A831A16891F88A8074
:10596000B8F1010F40F20A8291F88830072B40F01D
:10597000E781B1F8B830022B40F20082B1F8BA509A
:105980000135ADB2B1F880302B44A1F8A03191F8C7
:10599000AD31002B00F0F6810123A268B2F880102F
:1059A0000B44A2F8A4312288A368550657BFB3F868
:1059B000B4210022B3F8A6115218A3F8B42193F829
:1059C00018312BB9A36893F88830063B012B07D810
:1059D000A368B3F8BC20B3F8A6110A44A3F8BC200E
:1059E000A36893F8C20030B1B3F8BE20B3F8A61193
:1059F0000A44A3F8BE2093F9C6100029C1BFB3F82A
:105A0000C420B3F8A6515219A3F8C42093F8A920D2
:105A10005AB9002F40F04B82627D022A40F000828A
:105A200093F81021062A18BF1622A36893F8A8300D
:105A30002BB9A3680F4883F8A920FEF7ADFAA06838
:105A400007F0A5FDA368002283F8AB21BDE8F04173
:105A5000FDF724BB590702D5314613202FE71A075B
:105A60000AD590F80831314680F81031072026E732
:105A7000101200201412002013F0300F3CD090F8C8
:105A80001B31002B40F01982A36893F81A31E3B15F
:105A9000A06890F8873000F58D7100F23E22252B2A
:105AA00028D090F88630A3F1250CDCF1000343EBFD
:105AB0000C0306F064FFA268936F23F0200343F009
:105AC00010039367002382F81A31A068836FDA0607
:105AD00040F1F38100F23511FEF748F8A368002188
:105AE0001520B3F85220A3F81021B3F85620A3F8DC
:105AF0001221E4E60123DCE75B0640F1DE810021B0
:105B00002420DCE600210B20D9E6FEF7B9FA0028B4
:105B10003FF411AF00210420D1E690F83032012B80
:105B200008D100210520FFF797FCA368002283F825
:105B3000302200E7A36893F83032022BD8B27FF40A
:105B4000FAAEA368062293F8C8501DB1002183F86D
:105B50001021E8E7B048032106F0BCFFA3682946FE
:105B600093F8D83013F0040F14BF11200D20DAE79A
:105B700000210620A3E693F82421022A02D1002165
:105B800017209CE693F82421012A03D193F82531AC
:105B9000002BF4D0A36893F886206AB993F8872085
:105BA000103A0C2A40F2998193F8B620002A00F0AE
:105BB00094810121122082E6092A40F08A8193F81B
:105BC0000921012183F8102150E7A36893F82A31B5
:105BD0009BB1A36893F8C93013F003050DD10121DF
:105BE0000C20FFF739FCA36893F8C92042F00102AA
:105BF00083F8C92083F82A519BE7A36893F81A31E8
:105C000053B3A36893F81B3133BBA06890F8873077
:105C100000F58D7100F23E22252B1BD090F88630C6
:105C2000A3F1250CDCF1000343EB0C0306F0A7FE07
:105C3000A368002283F81A2101211420FFF70CFC2D
:105C4000A368B3F85220A3F81021B3F85620A3F8A4
:105C5000122170E60123E9E7A36893F82421012AC1
:105C60004CD193F82531002B48D1A16891F88730A9
:105C7000A3F12002062A41D92E2B3FD091F868507B
:105C8000012D06D0022D04D040F249310620FAF74A
:105C900083FC91F86900012801D00228F4D1022D7B
:105CA00091F826210AD0012A14BF002201223AB914
