:1000000038D70020D1F4010079940300BDF4010039
:10001000BDF40100BDF40100BDF40100BDF4010018
:1000200000000000000000000000000049F6010090
:10003000BDF4010000000000E1F50100BDF4010085
:100040002DF801002DF801002DF801002DF8010018
:100050002DF801002DF801002DF801002DF8010008
:100060002DF801002DF801002DF801002DF80100F8
:100070002DF801002DF801002DF801002DF80100E8
:100250002DF80100591904002DF801002DF80100B6
:100260002DF801002DF80100851904002DF801007A
:100270002DF801002DF801002DF801002DF80100E6
:100280002DF801002DF801002DF801002DF80100D6
:100290002DF801002DF801002DF801002DF80100C6
:1002A0002DF801002DF801002DF801002DF80100B6
:1002B0002DF801002DF801002DF801002DF80100A6
:1002C0002DF801002DF801002DF801002DF8010096
:1002D0002DF801002DF801002DF801002DF8010086
:1002E0002DF801002DF801002DF801002DF8010076
:1002F0002DF801002DF801002DF801002DF8010066
:100300002DF801002DF801002DF801002DF8010055
:100310002DF801002DF801002DF801002DF8010045
:100320002DF801002DF801002DF801002DF8010035
:100330002DF801002DF801002DF801002DF8010025
:100340002DF801002DF801002DF801002DF8010015
:100350002DF801002DF801002DF801002DF8010005
:100360002DF801002DF801002DF801002DF80100F5
:100370002DF801002DF801002DF801002DF80100E5
:100380002DF801002DF801002DF801002DF80100D5
:100390002DF801002DF801002DF801002DF80100C5
:1003A0002DF801002DF801002DF801002DF80100B5
:1003B0002DF801002DF801002DF801002DF80100A5
:1003C0002DF801002DF801002DF801002DF8010095
:1003D0002DF801006F1904002DF801002DF801001F
:1003E0002DF801002DF801002DF801002DF8010075
:1003F0002DF801002DF801002DF801002DF8010065
:100400002DF801002DF801002DF801002DF8010054
:100410002DF801002DF801002DF801002DF8010044
:100420002DF801002DF801002DF801002DF8010034
:100430002DF801002DF801002DF801002DF8010024
:100440002DF801002DF801002DF801002DF8010014
:100450002DF801002DF801002DF801002DF8010004
:100460002DF801002DF801002DF801002DF80100F4
:0C0470002DF801002DF801002DF801000E
:10048000084B1B78002B4FF00003836018BF02223B
:10049000036008BF0122044B4360FF23C271037253
:1004A000704700BFE818002028010800064A074BE3
:1004B0009B7802604FF41872C37100238280082277
:1004C00003728271704700BF238B0100E81800207F
:1004D000064A074BDB7802604FF43672C371002383
:1004E0008280082203728271704700BF2D8901004B
:1004F000E8180020064A074B1B7902604FF4B472DB
:10050000C371FF238280082203728271704700BF8B
:10051000F9840100E81800202DE9F341C41D0028EA
:10052000064624F007040CBF0020204601F03CF8EA
:10053000071E04DA6FF00B0002B0BDE8F0810EB9BF
:10054000FC42F7D4364D6989288903316B7B03302F
:100550002A7B89B280B213F053FA0028EADB3C44CC
:10056000A978EB78002E04F10304194424F0030465
:1005700000FB01F10CBF0020204601F09FF9204450
:100580000EB90028D6DB2B790446B3B1697D194436
:100590006B791944FF29CDDC0330002E2A8AC9B2B9
:1005A00020F003040CBF0020204601F0F7F90028DA
:1005B000C0DB04440EB9002CBCDB012000F0EAFFD4
:1005C000C8B1A97BB9B195F82C300734002B24F0C1
:1005D000070415BF402325234FF481722822002EE3
:1005E00014BF2046002005F047FA0028A2DB04448F
:1005F0000EB9002C9EDBAB7CDBB12B7993B10734B9
:10060000002EA97C24F007040CBF002020460AF02D
:1006100029FA00288EDB04445EB9002C09DA89E748
:10062000E8180020012000F0B5FF10B1AB7B002BD3
:10063000E5D1724B1B6893B1A97981B10334002EC7
:10064000EA7C24F003040CBF0020204698470028D1
:10065000FFF670AF044416B9002CFFF66BAF684B81
:100660001B688BB1297D79B10334002E24F003047B
:100670000CBF0020204698470028FFF65BAF0444DB
:1006800016B9002CFFF656AF5E4B1F68B7B1697DF7
:10069000A1B10334002E2B7E24F0030408BF0020F8
:1006A000009318BF2046EB7DAA7DB8470028FFF6CF
:1006B00041AF044416B9002CFFF63CAF072000F010
:1006C00069FF98B1A97989B10334002EAA7E24F07C
:1006D00003040CBF0020204601F04EFA0028FFF66C
:1006E00029AF044416B9002CFFF624AFB6FA86F7FA
:1006F00095F825007F09A0B10334EB7F297F24F012
:10070000070419443B4644F00404C9B2224601F0F0
:1007100075FA0028FFF60EAF044416B9002CFFF658
:1007200009AF95F82610002959D00734002E2A8DDC
:1007300024F007080CBF0020404613F076F9041E91
:10074000FFF6F8AE444416B9002CFFF6F3AE1EB126
:10075000298D40460FF0FAFD95F82010002940D071
:1007600095F82430002B3CD06A8C0734002E24F0FE
:10077000070802F124020CBF0020404692B213F099
:1007800054F9041EFFF6D6AE444416B9002CFFF609
:10079000D1AE0334AB7F297F24F0070495F8240001
:1007A00019443B4644F00404C9B2224601F018FA49
:1007B0000028FFF6BFAE044416B9002CFFF6BAAE0F
:1007C0003EB16A8C404695F82010083292B20FF084
:1007D000C3FD2B6B5BB176B12C630020ACE6884681
:1007E000B5E7002EF5D0002211461046EFE7002EA7
:1007F000F3D12046A0E62834FBD59BE6AC000020D0
:10080000B0000020B40000201FB572B6194B5D6B1C
:10081000E5B9BFF34F8F1849184BCA6802F4E0627C
:100820001343CB60BFF34F8F00BFFDE7B4FBF6F47B
:10083000D3B20132002CF9D103F110026A4402F85C
:100840000C4C0A2233B901A8A847E2E7044600226B
:100850000A26EDE7013BDBB203F110040DEB0406C1
:10086000B0FBF2F402FB1400303006F80C0C20460A
:10087000E8E700BFE818002000ED00E00400FA05FA
:1008800013B5114C6846637B8DF80130237B8DF8DE
:1008900000306389ADF804302389ADF8023007F0E9
:1008A000E7FE18B1E8219C20FFF7AEFF207E07F09D
:1008B00043FF08B1EB21F6E7E07D07F037FF08B111
:1008C000EC21F0E702B010BDE818002037B505466E
:1008D000002859D011F0F2FD20B94FF0FF34204626
:1008E00003B030BD10F0AAFAB0F5FA7FF5D8284C65
:1008F00028486563002500F0C9FD2A222946A01C6E
:1009000084F83850257084F82C50256384F83950C9
:1009100018F042FC40F2011301212A4663801B2398
:10092000217108462381638140F20323A176A381CC
:100930000323A3731F2323824FF40273638244F6BD
:100940000113E382F7236384FB23238594F83B3070
:10095000009394F83A3006F08FFA014620B14FF434
:1009600060719C20FFF750FF06F0ACFA044610B10E
:1009700040F28531F5E7EFF3108572B601F068F9C2
:10098000002DACD162B6AAE76FF01504A7E700BF4F
:10099000E81800208108000037B51446002840F010
:1009A000D7806D4D95F83830032B00F0CE80C1B163
:1009B0001AB96FF0150003B030BD0139162900F2E5
:1009C000C780DFE801F00C1D20355F68863B6B6E49
:1009D000804147555A8C8F9DA0A395A6AA001378F5
:1009E000AB700020FFF798FD0028B7BF012302235A
:1009F0006FF00B0085F83830A8BF85F83830DAE79B
:100A00001378EB70EDE71379002BD2D05379002BDC
:100A1000CFD01288FB2ACCD81A2A6388C9D91B3BAD
:100A2000E02BC6D82368A288AB604C4B9A80D8E7ED
:100A300013786A799342BCD32B71D2E713782A7961
:100A40009342B6D86B71CCE713782A799342B0D829
:100A50006B75C6E71378002BABD05378013BDBB244
:100A6000F82BA6D813889278EB823D4B9A70B8E7A2
:100A7000107868760EF046F8B3E71378002B98D01C
:100A8000AB76AEE7012000F085FD237808B1012B9D
:100A90008FD9AB73A5E713882B82A2E71378AB71CC
:100AA0009FE7072000F076FD10B92378012B80D94D
:100AB000072000F06FFD18B12378002B3FF479AFC9
:100AC0002378EB748DE71378082B3FF672AF2B7504
:100AD00087E71388FF2B3FF66CAFAB7481E7137881
:100AE000EB767EE713780E2B3FF663AF2B7778E734
:100AF00023681C4A2B62636853602389138170E763
:100B000013786B776DE71378EB776AE71378AB7739
:100B100067E7137885F82A3063E795F83B3095F856
:100B200039200093617895F83A30207806F0A4F9DE
:100B300000287FF440AF6378012B7FF652AF0FF0AF
:100B4000FDFB00287FF44DAF33E74FF0FF3032E775
:100B50006FF02C002FE700BFE8180020F0180020ED
:100B6000FE18002008190020F8B50D46064630B3DF
:100B700029B311F0070422D1124F97F83830012B16
:100B800002D16FF00B00F8BD032B02D14FF0FF3004
:100B9000F9E700F0D9F80028F8D02846FFF7BCFCA8
:100BA0000028EEDB18F08CF83046396B07F09CFE1D
:100BB000FFF766FE0323204687F83830E3E76FF03F
:100BC0001500E0E7E818002010B5074C94F838301D
:100BD000032B03D107F0A4FE08F0F2FE13F06DF82A
:100BE000002084F8380010BDE818002050B1074BF1
:100BF00003F1140253F8041B934240F8041BF9D18B
:100C0000002070476FF01500704700BF284C0400AB
:100C1000074B10B593F838403CB907F0F7FD0320B7
:100C2000044900F0AFFC204610BD4FF0FF30FBE759
:100C3000E8180020F5040000074B10B593F8384081
:100C40003CB907F0F7FD0220044900F09BFC204668
:100C500010BD4FF0FF30FBE7E8180020D104000082
:100C600008B50C4B93F838208AB993F82C305BB157
:100C700007F01EFE0849012000F084FC002007490F
:100C800000F080FC002008BD07F0F6FDF2E74FF011
:100C9000FF30F8E7E818002081040000AD040000F0
:100CA000054B10B593F838401CB907F061FD20469C
:100CB00010BD4FF0FF30FBE7E8180020054B10B5E2
:100CC00093F838401CB907F045FD204610BD4FF0A1
:100CD000FF30FBE7E8180020054B10B593F83840CB
:100CE0001CB915F00CFB204610BD4FF0FF30FBE7A0
:100CF000E8180020054B10B593F838401CB915F0E2
:100D000001FB204610BD4FF0FF30FBE7E818002044
:100D1000054B10B593F838401CB915F0F5FA20468C
:100D200010BD4FF0FF30FBE7E818002002680020FC
:100D3000014B1A60704700BF24190020014B1B684B
:100D4000184700BF24190020024B1868003818BF4C
:100D50000120704724190020F7B504462D4E071DC9
:100D60002C48376008F04CFE0228054606D1294978
:100D7000204612F082FA284603B0F0BD042842D182
:100D80003378092B0AD0262B1ED03146204600F09E
:100D900043F8B0F5817F2DD3722112E005213E206A
:100DA00012F03EFA0028F0D1F37801A932796846B2
:100DB00043EA0223ADF8003012F00CFC0028CFD03B
:100DC00053210820FFF720FD1A213E2012F028FAB7
:100DD0000028DAD17368694601A8C3F30F23ADF880
:100DE000043011238DF8063012F008FC0028B7D02B
:100DF0006521E6E70028B3D0A178207812F010FA38
:100E00000028B8D1ACE70828B5D10249204612F035
:100E10006CFAB0E7281900202DE9F8430B78054655
:100E20000C46013B832B00F2C782DFE813F09A00E7
:100E30009E00A2005301C5021B01210127012D01C3
:100E400033013701390149014F018400C502A70070
:100E5000C502AB003D0143015D0163015701C502BD
:100E60006901C5027C01AC01B201B801C502BE0135
:100E7000CA01D001C50200020E0262024002540201
:100E80005C0246024E0214021A02200226022C02C2
:100E9000320236023A029D02A302B102B702680290
:100EA0006E028C027402C502C502C502C502C502EB
:100EB000C502C502C502C502C502C502C502C502FA
:100EC000C502C502C502C502C502C502C502C502EA
:100ED000C502C502C502C502C502C502C502C502DA
:100EE000C502C502C502C502C502C502C502C502CA
:100EF000C502C502C502C502C502C502C502C502BA
:100F0000C502C502C502C502C502C502C502C502A9
:100F1000C502C502C502C502C502C502C502C50299
:100F2000C502C502C502C502C502C502C502C50289
:100F30007A02800286020E23B1F803200B7042F27F
:100F400083039A4209D106236370667821462846B6
:100F50000236324611F086FC5AE03521C720FFF7F1
:100F600053FC0C230B700823EEE71A230B700123AC
:100F7000EAE73E230B700223A370E6E73E230B70E3
:100F80000B23F9E7292000F071FA28B13E232370E2
:100F9000222363702923EFE70A2000F067FA3E233B
:100FA00005F1080204F108012B70A0B30A23AB700D
:100FB000E378EB70A3882B71A3881B0A6B71A3796C
:100FC000AB71E379EB71A368AB608B8893801F22D0
:100FD000D4F80E30C5F80E30638A6B8263696B619A
:100FE000238B2B83638BAB76638B1B0AEB76A38BF4
:100FF0002B77A38B1B0A6B77E38BAB77E38B1B0AF7
:10100000EB7794F8203085F820306A70023296B27F
:101010003046BDE8F8830123AB70E378EB70A3881A
:101020002B71A3881B0A6B71A379AB71E37903F071
:101030000103EB71A368AB608B8893801322638BF1
:10104000AB73638B1B0AEB73A38B2B74A38B1B0AF1
:101050006B74E38BAB74E38B1B0AEB7494F8203056
:101060002B75D2E73E230B7004234B70142383E7C8
:101070003E230B700C234B7004237DE73E230B7043
:101080000A234B70032377E73E230B700D234B702D
:10109000052371E705232370042355E70823FAE7A6
:1010A00030230B7003234FE73E230B700B234B7051
:1010B000072361E73E230B7006234B700C235BE78D
:1010C00013230B708B789B0001333DE757230B7084
:1010D000022339E73E230B700D234DE73E230B70AF
:1010E00001234B70112347E73E230B7006234B70FF
:1010F000122341E73E230B7009234B7013233BE778
:101100003E230370242000F0B1F9002815BF2423EA
:101110000E2313260F263246A11CE81CAB7011F0DB
:10112000A1FB721C71E73E230370252000F09EF99D
:10113000C0B125230A26AB70D4F80230C5F80330BD
:10114000D4F80630C5F807306389A5F80B30F01CD9
:10115000E27A04F10C01284411F084FBE27A0132B6
:10116000324452E70F230726AB706388A5F803309B
:1011700023796B716379AB71A379EB71A37A2B72CD
:10118000E37A6B72E3E73E230B7003234B7010236B
:10119000F2E63E230B7005234B702023ECE63E2342
:1011A0000B7009234B702123E6E63E2303702620B3
:1011B00000F05CF9002815BF2623182317261326F4
:1011C000A9E73E230B7004234B702723D4E63E236C
:1011D0004FF0000881460370282346468370D1F8FB
:1011E000023049F8033FAA795FFA88F39A4205D89A
:1011F000721D92B2002A3FF4A8AE06E7B21D331D5D
:1012000008F10108A118A25809EB030049F80320CE
:10121000063131F8023C063020F8023C10F8017C1F
:101220003A46063711F01EFB3E44B6B2DBE73E23DA
:101230002A200B7000F01AF918B12B2363702A23AF
:101240009AE61D236370192396E63E230B7007234D
:101250004B701A2390E63E230B7020234B702C23F7
:101260008AE63E230B704C234B702D2384E63E23ED
:101270000B7004234B702E237EE63E230B7022233B
:101280004B702F2378E63E230B7016234B703023D0
:1012900072E63E230B7031236EE63E230B70322341
:1012A0006AE63E230B7002234B70332364E63E2331
:1012B0000B7014234B7022235EE63E230B700B7CD5
:1012C0005B000F334B701D2356E63E230B70032348
:1012D0004B701E2350E63E230B700B7D5B001333D7
:1012E0004B701B2348E63E230B7003234B701C23DB
:1012F00042E63E230B7005234B701F233CE6FF2381
:101300000B700B234B70A22336E6FF230B700523D3
:101310004B70A32330E6FF230B700D234B7080230B
:101320002AE6FF230B700D234B70822324E6FF2354
:101330000B7002234B7083231EE6FF230B700423E4
:101340004B70842318E6FF23C21C03708123837033
:10135000D1F8033003F1280153F8040B8B4242F813
:10136000040BF9D1292250E63E230B700C234B705D
:10137000232301E6124B1B78002B14BFFF233E23CF
:101380000B704FF00E034B7014BF85233723F3E52A
:101390003E230B700A234B703523EDE5084B1B7879
:1013A000002B14BFFF233E230B704FF0FE034B7046
:1013B00014BF86232B23DFE540F26221CEE500BF78
:1013C0002C1A0020074B4FF0FF3141F6FF72C3E9A2
:1013D000001205490022C1E900221F21C3E90212BF
:1013E000704700BF40000020301A00203F280CD872
:1013F00001380B4BC0F3421200F01F0053F82230AB
:1014000023FA00F000F001007047FF2806D04038B2
:10141000044BC0F3421200F01F00EFE701207047B9
:1014200040000020301A0020074B01460068496840
:101430001A4603C240F48C221A6041F0107242F442
:10144000FF625A60704700BF400000200246024B16
:101450000068516803C37047301A00200246024BEF
:101460000068516803C37047480000200138064BEC
:10147000C0F3421200F01F0003EB82039B6823FAC3
:1014800000F000F00100704740000020014B1860A0
:10149000704700BF381A002010B5FFF793FF14F013
:1014A000B9F9034B04461B6803B19847204610BDA9
:1014B000381A002070B50C88C27CA6B2C4F30E04A2
:1014C000931C058804F118021D44825AADB21A44D7
:1014D00043882A44013AB2FBF5F202FB054292B27C
:1014E0009342044B8BBF3340B34313439BB20B80F7
:1014F00070BD00BF0080FFFF4A1E062A08B50346E4
:10150000084604D84FF4D1711520FFF77DF9094A38
:10151000914202D940F2A311F6E711B903B1196063
:1015200008BD2BB11B680022C3E901211A1D1A60F6
:101530000430F5E7FAFFFF7F10B5114B00EB4104D3
:101540001A786389B3FBF2F303FB0223013A1A44CE
:10155000B2F5706F027928BF00231A448378B2FB7A
:10156000F3F0194403FB1020091AB1FBF3F003FB5D
:10157000101313446FEA43436FEA5343638110BD72
:101580003C1A0020024B03EB80035960704700BFF8
:101590003C1A0020034B03EB80035868003818BF47
:1015A000012070473C1A00202DE9F04F10F0070A87
:1015B00085B0054604D040F261111720FFF724F9E9
:1015C000544F04464FF0010B07F15406B146B046A4
:1015D00057F8043B8DF80BA03BB101A898479DF844
:1015E0000A30082B01D9E821E7E79DF80B1081BBF1
:1015F00005B13160B94506F10406E9D12DB30023E8
:10160000DFF814E114221E468EF8003058F822004C
:10161000013A60B190F804A08178BAF1FF0F64D16B
:101620004FF000078E4207713CBFCEB20123511C20
:10163000ECD10BB18EF80060142640F6FF6A58F822
:101640002670002F63D1013EF9D2601B05B0BDE8C2
:10165000F08F9DF80AC04A1DBCF1020FE64604EB6C
:10166000420438BF4FF0020E53000EF1FF30044425
:10167000CEF100002040BDF808406444CCF1000CDD
:10168000013C04EA0C04B4F5803F01D3F82194E74F
:1016900075B1C31A336099701C8083F803B09DF84C
:1016A0000C201A71019A4FEA124C1A81A3F806C055
:1016B00004FB01049EE758F82C90B9F1000F06D006
:1016C00099F804B0D34504BF99F802904F440CF147
:1016D000FF3CBCF1000FEEDA3944FF29A2D90BB16F
:1016E0008EF8006040F2271167E794460027F0E784
:1016F00007EB410309F101093846A3F80AA0FFF7F7
:101700001BFF5FFA89F1BB788B42F1D89BE74FF062
:101710000009F6E7401A00203C1A0020F8B54FF601
:10172000FF7305460380184B03EB8103986DB8B136
:1017300086780379B3FBF6F206FB1233DBB2194667
:101740000A1D00EB4202B2F902705488002F09DB37
:101750000131B1FBF6F206FB1211C9B28B42EFD197
:101760000020F8BDFF29FBD0C4F30E03C4782B8002
:1017700024B94FF4D5711720FFF746F85380BDE820
:10178000F84012F01CB900BF3C1A00201D4B03EBBF
:10179000810370B59C6D054644B3030404D54FF432
:1017A000DC711720FFF730F80146204612F0EAF806
:1017B000FF28014604D02046BDE8704012F0FFB873
:1017C000A078B5FBF0F300FB1353DBB219460A1DFA
:1017D00004EB4206B6F90260002E09DB0131B1FBD1
:1017E000F0F200FB1211C9B28B42F0D1002070BDA3
:1017F000FF29FBD08B4204EB42021CBF0023E370A5
:101800005580D8E73C1A0020094B03EB81030146C1
:1018100010B59C6D204612F0B5F8FF28014604D0A3
:101820002046BDE8104012F0CAB8002010BD00BF2D
:101830003C1A0020F8B5104B074603EB8103014624
:101840009C6D204612F09EF8FF28054611D0E688D0
:10185000238953EA064606D00146204612F0AFF827
:1018600001463846B04720462946FFF765FE00206E
:10187000F8BD0520FCE700BF3C1A002038B50E4B30
:101880000446827903EB8203986D08B9052038BDC0
:101890008278E1799142F9D24B1CE37100EB41036C
:1018A0005D89B3F90A30002BF3DBA58012F087F8CD
:1018B00020600020EBE700BF3C1A002070B5044612
:1018C00010F003000E4603D04E211820FEF79CFFB7
:1018D000FFF712FE054624B1034831460460FFF7C6
:1018E0000BFE284670BD00BFE81A00202DE9F14F1D
:1018F000DFF870B01E4607460D46DBF80030904614
:101900009DF828A09DF82C901BB960211820FEF7A7
:101910007BFF52460921404611F0B6FE4A4684B28A
:101920000921304611F0B0FE81B2DBF800002144FD
:1019300011F0FDFF386018B9286001B0BDE8F08FE4
:1019400004445346414609222C60386811F060FE79
:101950004B4609223146286801B0BDE8F04F11F02E
:1019600057BE00BFE81A002070B50E46044611F0BD
:101970009EFE0546304611F09AFE044B2A18214679
:101980001868BDE8704011F0F6BF00BFE81A0020EB
:10199000014B186811F0BFBFE81A00201F2AF8B5E4
:1019A000044613460ED89200033222F00303B3F527
:1019B000803F2DD2184DACB1A00710D05F21092077
:1019C000FEF722FFFF2B4FEA420204D9FF339A426F
:1019D000A8BF1A46E8E77C2AB8BF7C22E4E7297052
:1019E0006C602B8122F0030228230127120403FBE1
:1019F00001F06B680025120CEEB28E4200D3F8BDE8
:101A000014B126181F705E60104401352833F3E7C7
:101A10004FF0FF30F3E700BFEC1A0020144A00211A
:101A200038B553681478C8B2844203D8AB21092072
:101A3000FEF7EAFE1846013128330578002DF2D072
:101A400000218170012412898161051D4470920872
:101A5000C16100F12001446821F8022B994245F848
:101A6000044B1444F8D100234361037038BD00BF18
:101A7000EC1A00200A4B1B89B3F5FF7F4FEA930055
:101A800006D25A089B1A9BB2984238BF1846704734
:101A9000B3F5EE6F01D8FF22F4E740F27263F3E78B
:101AA000EC1A00202DE9F8434B7880460C4602F0F2
:101AB000040602F0FB07D3B1DFB12E4BD4F804903B
:101AC0001D89B7BB0123AD084A46211D637004F18F
:101AD000280004F12003A761E76123F8025B984224
:101AE00041F8042B2A44F8D10023636101E0002F60
:101AF000E3D0FF23A370002E18BF0226A3191B7D7D
:101B0000032B03D1022F1CBF0136F6B2A319012209
:101B10001A7506F10C02002304EB860624F8123035
:101B20007268A3704046C8F80020A8F80430BDE8E9
:101B3000F883002114226170A01817F02DFBB5F571
:101B4000FF7F0FD26B08ED1AADB209EB0502C4F8A6
:101B500004902584A2606384C4F80C90A58422615B
:101B6000E384C6E7B5F5EE6F4FF0FF03EBD940F223
:101B70007265EAE7EC1A00202DE9F84305460C46A9
:101B8000F7200521914611F07FFD061E22DB1DB9CD
:101B900006FB04F0BDE8F88315F0030703D0982195
:101BA0001920FEF731FEDFF83480C8F81050A5B2D6
:101BB000A8F81460BBB29D42EAD9B8F814C04B46ED
:101BC000D8F810000522F72107FB0C00013711F0AF
:101BD0001FFDEFE74FF0FF30DCE700BF001B0020E8
:101BE00007B5CDE900230B4603490246081D12F054
:101BF0003EF803B05DF804FB181B002013B5064C3B
:101C0000CDE900230B46024604F1080104F10C0063
:101C100012F02DF802B010BD181B002008B54B1EA5
:101C2000032B03D923219020FEF7EEFD002801F1BC
:101C3000010114BF0C230523C9B203EB8101034B3F
:101C4000013121F00101197008BD00BF281B0020DF
:101C50001E4B01224FF0FF3000211B685A60C3F871
:101C60000803C3F80015C3F80425194B1B685A6014
:101C7000C3F80803C3F8001540F6FE71154B16486B
:101C8000C3F8081501680BB2002B0BDB01F01F0134
:101C90005B098A402033114941F82320BFF34F8F5D
:101CA000BFF36F8F026813B2002B09DB01215B09C0
:101CB00002F01F02603301FA02F2084941F82320C2
:101CC000044B40F6FE72C3F808257047BC2A00207A
:101CD000B82A002000200850D02A002000E100E0AF
:101CE0000A4606483C2302F8033BC368C1F80330A8
:101CF0000369536043699360704700BF301B002045
:101D0000024B5A8C02435A845B6A1847301B0020EE
:101D1000014B00215B6A1847301B002010B5154CA1
:101D20000DF0B2FE0DF056F9208DFFF7F1FF237E86
:101D300063B12246104904F1190052F80C3BE360EC
:101D400063685360A368936015F011FB0B4B228D01
:101D500093E8030008F010FF236B188808F036FEA4
:101D6000A36B94F8341094F835009847002384F856
:101D70003C3010BD301B0020E11C00005C1B00202B
:101D8000034B93F83C300BB1FFF7C8BF704700BF5F
:101D9000301B002070B5254C0646636C256B236410
:101DA00095F8943094F848000BB10430C0B295F81F
:101DB00075102EB9FF2803D195F874308B4201D0ED
:101DC0000DF0EAFC95F8943053B3E06C0DF03EFF53
:101DD00094F82C30E16C003B206C18BF012384F890
:101DE0007030D5E93C23C4E918230DF00BF85EB937
:101DF00095F87530033B012B2B8F94BF28200020D2
:101E0000184480B20DF084FFA88E0DF03DFC95F8CB
:101E1000741000200DF0DCFF022384F83C3070BD0C
:101E2000206C0DF013FF0DF0D5F8E0E7301B00201B
:101E30000138C0B2032808B504D94FF48E610620DA
:101E4000FEF7E2FC014B185C08BD00BF404C0400EB
:101E500008B5094B93F83C20022A04D040F2312106
:101E60002720FEF7D1FCDA7A42F00102DA72BDE8EF
:101E70000840FFF753BF00BF301B002003280B4B67
:101E800010B5044605D19A6FD278022A01D10020FC
:101E900010BDD86F11F08AFC0028F9D1032CF6D0C0
:101EA00006F07AFF80F00100C0B2F1E7301B00209D
:101EB00038B5204C0546D4F88030984708B9012041
:101EC00038BD94F83430002BF9D194F82C301BB97C
:101ED000012D03D00020F3E7002DFBD194F88430CE
:101EE000DD06C3F3001005D5A36F187800F00300DA
:101EF000FFF7C4FF636CD4F888201B78C3F300138A
:101F00002AB9B4F88C2013B1B2FA82F35B0994F8C1
:101F10002C10628C39B1910705D5A36FD87802389F
:101F200018BF0120CCE7002AC9D10028D2D183F004
:101F30000100C5E7301B002010B5094CD4F88830EB
:101F400023B940F2CE412720FEF75EFCB4F88C2086
:101F50001846216C033210F085FC206410BD00BFD0
:101F6000301B00202DE9F043334C85B006460F4668
:101F700094F83C30012B5FFA83F904D040F2DC4145
:101F80002720FEF741FC256B02A8A16F11F097FEF8
:101F900095F884309DF8088053B10021042085F81D
:101FA0008410FFF7ADFE94F82C300BB185F88690C5
:101FB000B8F1030F3AD195F88A301BB9A16F02200E
:101FC000FFF79EFE032300E0012385F88A3095F891
:101FD0009430CBB194F82C30226B003B94F84880BD
:101FE000D5E93C0118BF0123C4E9180192F8750036
:101FF00084F87030FFF71CFF002203460F490220CF
:10200000009242460CF096FE26B105B0BDE8F043C2
:10201000FFF784BE002FF8D03046FFF749FF0028B5
:10202000F3D105B0BDE8F043FFF7B4BE9DF80C3026
:10203000002BC9D00223C8E7301B0020801B0020E2
:102040002DE9F341744C0023256B8DF8053095F88C
:10205000942094F848300AB10433DBB295F8741038
:1020600028B9FF2B03D195F875308B4202D0FF20A1
:102070000DF092FB95F88A30032B00F2BF80DFE869
:1020800003F0023A9CAF94F88E306448ADF8063005
:10209000A5F8643006F056FE80B1A16F4FF4807051
:1020A000FFF72EFE0121A36F85F88510DB781B2B2F
:1020B0001DD105F110000DF0A9FB18E00DF105028E
:1020C0000DF10601E06F11F019FBA06798B195F8CA
:1020D000CF3083B99DF805302BB90380012183707F
:1020E000A06F15F08AF8A36FBDF806205A7001237F
:1020F00084F88F3001E04A4BA367A16F95F88B20DD
:102100000B78D20003F0030603F0F30302F0080299
:102110003046134395F88C20920002F004021343DA
:1021200023F010030B70FFF7A9FE0028A06F14BF67
:1021300010230023027890F801801343037015F0F8
:102140006DF895F89330071E18BF0127002B58D063
:10215000B8F1000F55D0E06C0DF078FD94F82C30FC
:10216000E16CB3FA83F3A06F5B0984F87030D5E9B2
:102170003A23C4E918233A460DF0B2FF18B9A16F0B
:10218000E06C0CF03FFE304611F0BAFDE88E0DF029
:102190007BFA95F8751001200DF01AFEA26F01234D
:1021A000118884F8E030A4F8841091781D4A84F8EE
:1021B0003C30917002B0BDE8F081B5F864300DF1AB
:1021C00005020DF10601E06FADF8063011F096FA48
:1021D000A06700288BD140F2D1212720FEF714FB05
:1021E0000E4806F0AFFD10B940F2DB21F5E7A36F12
:1021F000DB781B2B7FF47BAF01215AE740F2E9210A
:10220000EBE7A06F0DF022FD0CF0E4FE3946A06F65
:1022100016F089FDB7E700BF301B0020A81B002087
:10222000C01B0020B41B0020064B10B593F83C20C7
:1022300002F0FF0422B91C7608F096FC204610BD7F
:102240000C24FBE7301B00200A4B0B4A70B50646F6
:102250000D461A60FFF7E8FF18B1ED212720FEF7C1
:10226000D3FA064C012104F1900014F0C6FF666415
:10227000E56470BDB8000020042A0000301B002077
:10228000024B012283F8E120704700BF301B002081
:102290002DE9FF41964C02AE0A9F86E8030094F8B0
:1022A0003C1001F0FF0511B90AB103B127B94FF491
:1022B000BE712720FEF7A8FA96E8030004F12C0C63
:1022C00084F8E15084F8345084F8E25084F83550B2
:1022D00084F8E05084F88F50658425856262C4F8E4
:1022E0008030A7638CE80300256B0DF0B1FA0CF089
:1022F00071FE95F97C000DF00FFBA86A0DF08AFCC9
:10230000286A0DF00FFB95F8A4000DF015FB94F86A
:102310002C00002840F0A68095F87420754B03EB44
:10232000820359684FF47A7301F5FA71B1FBF3F146
:102330006E310DF095FB704B704E05F58477186883
:102340000DF06EFC6B69E367AB69C4F8E43005F12E
:10235000F8031868083353F8041C3246BB4203C222
:102360001646F6D15968D5F80801236B644A03C2B2
:1023700093F88E2093F87400A2F12601012903D965
:1023800093F88F10262975D194F82C20002A6ED14D
:1023900093F80A1211F0A4FC064605F13C073146F9
:1023A000384615F0A3F8314614F0A9FBB5F84830CB
:1023B00095F87510834228BF0346384684F88E305E
:1023C00015F05AF895F8751095F894600429B5F849
:1023D000508008BF032114F092FB0EB9043080B284
:1023E000404528BF40465FFA80F884F8E88007F04F
:1023F00003FC30B107F006FC404538BF40465FFAA9
:1024000080F894F82C6084F84880002E56D195F816
:1024100093308BB1012395F8740084F87030D5E9BE
:102420003A23C4E91823FFF703FDFB22034633498F
:10243000042000960CF07EFC0120FFF701FE002333
:1024400023606360A360B5F8883063802B882380A5
:1024500095F8A4302371AB6F0BB101221A6004B060
:10246000BDE8F08195F87520C421012061E793F85B
:10247000A2128FE7213A012A0ED824290ED094F80F
:102480002C20B2B193F82E315A0710D413F0010169
:1024900080D103F002017DE724290AD194F82C2091
:1024A0003AB193F82E2193F86D301340ECE70421F4
:1024B00070E7032814BF064604266EE795F89430AB
:1024C00093B1012395F87500D5E93C6784F8703025
:1024D000C4E91867FFF7ACFC0022034607490092E5
:1024E000022042460CF026FC0120FFF753FCA6E731
:1024F000301B0020404C0400B8000020801B00204E
:10250000981B002008B5114B93F83C201AB9BDE880
:102510000840FFF703BC93F82C2042B993F83C30F5
:10252000012B12D040F20F212720FEF76DF993F80E
:102530003C20022A02D040F21321F5E71B6BD3F8AE
:10254000E001BDE808400DF0B7BB08BD301B00201E
:10255000014B1876704700BF301B0020014B93F8E9
:10256000E0007047301B0020044B93F88F201AB90D
:10257000188DC0F30030704701207047301B0020D9
:10258000024B188DC0F3C020704700BF301B0020E5
:10259000014B93F8E2007047301B00202DE9FF410A
:1025A000324C03460E4602A8216C256B11F087FBC6
:1025B00013F001089DF80C7003F002002BD00023EB
:1025C00084F8E93090B1FFF7B7FC0DF1020201A9E0
:1025D000D4F8E40011F095F9019811F078F901228E
:1025E00030603946D4F8E40011F020F9B8F1000F5A
:1025F0000ED0D5E93C32013342F10002C5E93C324C
:1026000095F88C30012B0CBF0023012385F88C300A
:1026100004B0BDE8F08194F8E930032B20D801A282
:1026200052F823F0C5250000352600004F26000093
:102630004F2600000028EBD0FFF77EFC0022394631
:10264000D4F8E40004B0BDE8F04111F0EFB8002880
:10265000DED0D4F8E40004B0BDE8F04111F04DB98B
:1026600040F27A412720FEF7CFF800BF301B002050
:102670002DE9F04F0023B24C87B080468A46276B85
:10268000CDE9023394F83C30022B04D040F25F5184
:102690002720FEF7B9F8238D590606D44020FFF70E
:1026A00037FB238D43F040032385216C04A811F0F0
:1026B00006FB9DF8146097F89430B8F1000F00F015
:1026C00045819DF810909DF811B07BB10CF090FC05
:1026D00060B95EB197F88C305B4507D1012384F86F
:1026E0003530FFF71BFB07B0BDE8F08FB1B2A4F89F
:1026F0008C10F9B1D4F8E40011F079F8C4F888002E
:10270000238D9DF8122043F40073238597F88B30B6
:102710009A4200F0BD80256B95F88A30002B40D09E
:10272000022B11D102A9E06F11F00AF828B940F28A
:102730001441ADE7C4F88810E2E7D5E93A32013335
:1027400042F10002C5E93A32002194F82C3085F8B4
:102750008A103BB195F8863023B1102085F8861099
:10276000FFF7CEFA95F885309BB1002185F88510EA
:1027700006F0FAFA002110B940F22B4188E7082050
:10278000FFF7BEFAD5E93A32013342F10002C5E95A
:102790003A3295F88B30012B0CBF0023012385F8CA
:1027A0008B30238D002543F40063238597F88C300C
:1027B0005B456FD0002648464FF0000911F0A0FAA3
:1027C00097F89330B3B194F82C3097F87400B3FABB
:1027D00083F35B0984F87030D7E93A23C4E91823FE
:1027E000FFF726FB00220346564900920420FB22F5
:1027F0000CF0A0FABAF1000F00F0D1800DF01AFB36
:10280000002E40F0F2804FF0010985B194F82C3091
:1028100043B1B4F80720B4F805301343B7F8882063
:10282000134304D0B4F809300133A4F80930B8F1E7
:10283000000F00F0E080B4F805300133A4F8053053
:10284000002384F8E230404808F0AEF8029830B136
:1028500011F03DF8216B0022027207F015F9039B7D
:1028600033B1216B00221A720C22039807F0DAF8B8
:10287000B9F1000F7FF435AF238D1B063FF533AF61
:102880008020FFF745FA238D43F0800323852AE754
:1028900045468BE7B9F1020FD4F830B025D8B9F12D
:1028A000000F2FD076B3238D9BF894B043F4805360
:1028B00023850CF0F9FE042894F8E83007D1BBF129
:1028C000000F14BF1B221F22934228BF1346B3429E
:1028D0002AD3D4F88830002B3FF46CAF94F8E13061
:1028E00063B32020FFF714FA64E7B9F1030F09D1AD
:1028F000238D0120216C43F480538BF884002385C1
:10290000FFF7FEF99BF88C30013B18BF01238BF8D1
:102910008C30002E3FF44EAFDBE93C32013342F104
:102920000002CBE93C3245E794F83430012043F013
:10293000100384F834300EF021FB3BE746463AE7BB
:10294000301B0020801B00205C1B00200BB10CF012
:1029500063FB94F8E230013384F8E230238D43F4D2
:102960008063238597F87530033B012B0FD8012036
:102970000EF004FB0CF098FE04280CD11B2E4FF037
:10298000000694BF4FF000094FF0010905E007F081
:1029900033F90028EBD10026B146354610E794F80C
:1029A0002C2094F8E2303AB1628C120704D5A26F61
:1029B000D278022A3FF422AF012B3FF61FAF01204D
:1029C000FFF776FA00287FF419AF1EB103A90120A2
:1029D000FFF7E4FD0020FFF733FB002E3FF415AFB7
:1029E00003A90220FFF7DAFD0FE703A90320B14690
:1029F000FFF7D4FD09E7B4F807300133A4F8073036
:102A000021E700BF511E000071260000651F000075
:102A1000811D00002DE9F04F04468BB01E460023B7
:102A20000D461746069390F8758013F041FD94F813
:102A3000C8310B2B04D940F2FB310620FDF7E4FE30
:102A4000844A32F813B094F88F308344442B1FFA31
:102A50008BFB3CD00E2B94F88E2038D0443A534256
:102A60005341039387F001030493002F5ED194F840
:102A70000C32032B5AD1039B002B57D0B4F8A03251
:102A8000AB4253D1D4F814322046B4F8E42141F6D5
:102A90004B59C4F80032E369C4F80432B4F85A322E
:102AA0001344C4F808320AF0B1FCD4F8A83294F800
:102AB000B4224B458CBF4FF000094FF0010942B9D9
:102AC000E26993421AD0208816F0D6F816E0012366
:102AD000C7E7208816F0CDF818B940F23E713020D3
:102AE000ACE7B4F8B032B9466386B4F8B232838149
:102AF000B4F8A032C7814381013B038294F87E3051
:102B0000002B3CD1B9F1000F3CD1D4F8A43284F8A9
:102B10007E90E362B4F8A2322386D4F8A832E3614F
:102B2000D4F8AC326362022384F80C32B4F858A2B1
:102B300004F50A73B4F88890A5EB0A0A0593A5EB8F
:102B400009090FFA8AF30FFA89F9002B26DAD4E97A
:102B50009023C4E994230023012284F823324B46B6
:102B600094F80CA23C4F5FFA8AFABAF1030F00F214
:102B7000D781DFE81AF01500350173005401B9F16F
:102B8000000F05D04FF04D13636300232387BCE78C
:102B90004FF09613A4F838906363B6E73246DFE748
:102BA00094F8751094F8DE0113F0D0FF8046E06AC7
:102BB000594640440EF0F6F85946C4F81002E06950
:102BC0000EF0F0F894F87E3007A9002B18BF4FF0F4
:102BD000020A5044C4F8140208A80DF033F9079B08
:102BE000D4E994010093DDE9082316F098F98146B1
:102BF000204611F0A7F8D4F85C3294F87500D4F8A8
:102C00002CA006930DF064FA069B00F52240D4F840
:102C10001012BB3BB1309A444FF47A73AAEB010A0D
:102C20003031B0FBF3F0D044238EA8EB090803EB5E
:102C30004101A8EB0000069094F8750011F08FF8A0
:102C4000D4F85C22069B38609B1ACC2B69D840F2E2
:102C5000DE4144E7644C04001C1C0020E36A594632
:102C6000D4F8040218440EF09DF85946C4F8100236
:102C7000E0690EF097F894F87E30002B08BF4FF013
:102C8000000A5044C4F81402204611F05BF8B4F86E
:102C9000E431D4F82C80D4F804A2002B40F09980C1
:102CA000002E00F09680D04494F875000DF010FAD4
:102CB000D4F81032A8F1BB0800F5224994F8750049
:102CC0004FF47A7BA8EB0308D4F8483209F1B10934
:102CD0009844C31ED4E99012012BA8EB0108B9FB5C
:102CE000FBF973D90DF0F4F900F2E730B0FBFBFB10
:102CF000A8EB090808EB0B000690D4F81012D4F8E2
:102D00000032D4F80822303194F8750002FB031128
:102D1000238E03EB410111F022F80123386084F87F
:102D20000C32E3694FF00008D4F8142204F13C009F
:102D3000A3F5A2733F6806999B1A84F828829F42E4
:102D400028BF1F46D4E99432C4F8E0715B1842F101
:102D50000002C4E98E3214F08DFB0744A4F85852E7
:102D6000C4F82C72D4E98E23C4E9942309F03CFD05
:102D700020B1D4F82C321E33C4F82C32B4F8D01160
:102D800084F830824D1B2DB2002DC4BF022384F87D
:102D90003032039B002B40F0C680002E40F0C480F0
:102DA00094F80C32002B00F0DC80E16904F50A7025
:102DB000D4F81432C91A13F071FE80B2002800F062
:102DC000D080149B03B118800120DAE04FF03E0B55
:102DD0008EE7D044D4F81032A8EB030306938CE7B7
:102DE000D4F81422E169D4F80002891A4B43D4F8CC
:102DF00008120693B4F8E4319944CB439944D4F8CB
:102E00001032303300FB0133218E94F8750002FB41
:102E1000093301EB430110F0A2FF386081E7E0695C
:102E2000584306905EB3B4F8E41141BB84F8231212
:102E3000D4F8141201FB130A94F88E30262BCDF827
:102E400018A003D094F88F30262B09D1B4F8A03203
:102E5000EB1A1B0404D494F8A332002B18BF984635
:102E6000002A3AD0B4F8E431BBBBD4E99023D4E9CA
:102E7000920182428B4108D340F232512FE694F8FE
:102E8000231200297FF44DAFD2E794F87500C31EDA
:102E9000012B40D90DF01CF900F522404FF47A7B4C
:102EA000B130B0FBFBF000F1AB0BD4F8483294F832
:102EB0007500103BD4E990125A1AC31E012B92449C
:102EC0002CD90DF005F94FF47A7300F2E730B0FB1E
:102ED000F3F0AAEB0B0A50440690B4F8E411404614
:102EE0008944D4F8141201FB09F909F130094FEAB9
:102EF0004909494610F033FF234A94F87E301060A8
:102F0000002B3FF40EAF06AB4946E06913F03BFEE1
:102F100084F8230205E74FF4897BC6E73E20D8E713
:102F200040F24A51DBE5E6B1B4F8F81119B3B4F850
:102F3000FA2194F8FC31501CA4F8FA2102FB033367
:102F400099420EDD94F830325BB10023A4F8FA0107
:102F500084F8303206F05CFE00F00700013084F89F
:102F6000FC0104F50A7194F824020EF091FE20B9D8
:102F700040F29351B3E50A46DBE7049B84F8203224
:102F800000200BB0BDE8F08F1C1C0020F0B50446FB
:102F900085B018B9AA213020FDF736FC072900F2C8
:102FA0000681DFE811F008004500450040000401FB
:102FB000F000F800020190F8203253B3B0F81E324E
:102FC000B0F8882093421ED1B0F8D421D31AA0F8CB
:102FD0008820A0F8D6312046D4E98E23C4E9902376
:102FE0000AF034F994F8DB31002B00F0CA8015F0B8
:102FF000D2FC704B1B68002B00F0C380204605B04C
:10300000BDE8F04018479A1AA0F8D621A4F88830F5
:10301000E1E7B0F81C32B0F888209B1AA0F8D6314E
:10302000B0F81C32F2E705B0BDE8F0400CF016BF76
:1030300015F005FFD4E99023801A61EB0301012804
:1030400071F1000302DA40F21E61A4E76FF00103A0
:1030500083424FF000038B4102DA40F21F619AE78E
:10306000E5690DB1B0FBF5F594F88F30442B14D021
:1030700094F88E20442A0AD00E2B08D0A2F14306E1
:1030800072427241B4F81E12B4F888303AB1B4F802
:103090001E320133A4F81E3214E00122F2E72B4461
:1030A0009BB2CA1A150454BF4B1C01339BB2A4F83F
:1030B0001E3294F821322BB9B4F81E22B4F8D43160
:1030C0009342E6D0B4F85A3202AEB4F888500133D5
:1030D000394FA4F85A32B4F8C2301D44B4F8C030A5
:1030E000013DED1AADB23B685BB1B4F81E1200228F
:1030F0002046013989B29847B4F81E321844A4F822
:103100001E02B4F81E126B1A18041ED400232046A7
:1031100000961A46FFF77EFC98B3012812D1B4F846
:103120001E22B4F8D011BDF808301344521A12040C
:103130009BB204D5EA1A12F4004F18BF0B46A4F84C
:103140001E32D0E740F2766125E794F8923030469F
:103150000394002B0CBF3E23082384F8B1300123D5
:103160008DF8083007F086F9204615F016FC00238C
:1031700094F8240284F80C320EF010FD202384F819
:10318000243205B0F0BD01200DF0F8FE05B0BDE819
:10319000F04010F0C2BD90F80C32042B01D0D021C9
:1031A000F9E6002380F80C32EBE7D621F3E6DA21CA
:1031B000F1E600BFBC000020C40000202DE9F04172
:1031C00004460E46154690F8383103F0FF071BB150
:1031D0000C273846BDE8F08101464C480EF0B8FC9B
:1031E00020288046F4D05822394604F5887015F01E
:1031F000D3FF84F81081C4F81461FF2384F83831B8
:1032000036B106F01DFD00F00700013086F8FC0124
:1032100002234FF00008A4F8483184F840810DF0F3
:1032200017FE00F14906204615F0EFF90146B6B247
:10323000D8B313F03DF900F5CD61284689B20DF001
:10324000B1FD2844C4F8440115F0F9FD30184FF0E1
:103250000106A4F8268041F1000184F81861C4E950
:103260005401204615F0E7F9D0B1A5F2AA45314640
:10327000204615F04BF92D1AC4F81C514FF0FF32BF
:103280006FF00043C4E9562304F5A07194F81001CF
:103290000EF0FEFC70BB40F2CD113020FDF7B4FA09
:1032A0003046AE3D15F09AFAE5E72046DFF860803B
:1032B00015F02CF9AE30C4F84401B8F8040048B158
:1032C000E08C38B106F0BCFCB8F80430B0FBF3F287
:1032D00002FB1300064415F0B2FD361841F100015F
:1032E000C4E95461002DC9D0AE1941F10001C4E90F
:1032F0005661C9E7D4E9542300212046C4E94A2392
:10330000C4E94C2315F0CDF963E700BF2D3E010061
:103310001C1C0020F0B5002385B0CDE90033032349
:103320008DF806306846FEF7A9FA88B11F4E0123D2
:103330000027B3710223CDE902778DF80E3002A881
:10334000FEF79CFA0546C8B10023B37105B0F0BD85
:10335000009810F052FEE5E790F824020EF08CFD84
:1033600094F824020EF07AFF94F8240284F80C52A8
:103370000EF014FC202384F82432DBE7029B002BA0
:10338000DDD093F82422202AD9D018884FF6FF7375
:103390009842D9D00221FEF737FA04460028DBD143
:1033A0004FF49B713020FDF72FFA00BF1C1C00204A
:1033B000044B0022DA719A7142F210729A80FFF780
:1033C000A9BF00BF1C1C0020014BD871704700BF73
:1033D0001C1C002008B50CF089F9044B9A68824245
:1033E0002ABF9879002080F0010008BD1C1C002035
:1033F000F0B5044685B090F8DB3103F0FF05002BF3
:103400006ED190F80C32032B6AD115F018FDD4E977
:103410009023801A61EB0301012871F100035FDB47
:103420006FF00103834275EB010304DA40F2C751E8
:103430003020FDF7E9F9E269B4F888300AB1B0FB51
:10344000F2F2013313449BB2A4F81C32B4F8D43125
:10345000B4F81C229B1A1BB2002B41DD94F8240205
:103460000EF00AFD00283BD0FF2384F82132B4F887
:10347000C2300DF10E07B4F888501A4E1D44B4F84E
:10348000C030013DED1AADB2336863B1B4F81C121F
:1034900000222046013989B29847B4F81C321844FA
:1034A00080B2A4F81C02B4F81C32EB1A1B0417D427
:1034B000B4F81C1200230122204689B20097FFF7BE
:1034C000A9FA68B1012808D1B4F81C32BDF80E2061
:1034D00013449BB2A4F81C32D6E740F20E61A7E772
:1034E00005B0F0BDC40000202DE9F74304460629CD
:1034F00000F2A480DFE801F0042714242B309D00A3
:10350000504B9B7903F0FF0253B900920123B0F8AE
:10351000D411FFF77FFA30B140F2DC61302031E0A6
:10352000042384F80C320CF00BFB0EF029FA002374
:10353000B4F88820A4F85A32A4F81E2284F8213264
:1035400003B0BDE8F083032380F80C32F8E715F0F0
:10355000D4FBC4E99201F3E73B4B1B681BB1024665
:10356000D0E99201984713212088FEF74DF90028F1
:103570005DD094F87530022B57D005D8012B08D0B8
:10358000CD21B420FDF740F9033B012BF8D81E30C4
:1035900000E00A30858894F87530D4F81422033B93
:1035A000DFF8A090012BE36994BF2827002707F5D7
:1035B0008077AF4234BFED1B0025A9188B428ABF2C
:1035C0009B1A00255D1B99F807301BB9E36B9D42E0
:1035D00028BF1D46D4F8E06104F13C0013F04AFF17
:1035E00006EB000802200EF095FD0221A5EB080570
:1035F00025EAE575854228BF054628460EF0D0FD30
:1036000000B9A84401233A464146204613F0BDFFC5
:10361000D4F8E031C9F80800E06918440EF04CFD18
:1036200000288DD140F28A3178E71430B2E7962530
:10363000B1E703B0BDE8F04310F084BB4FF4F36191
:103640006CE700BF1C1C0020C0000020012A70B5E0
:1036500005460C46164615D0022A18D042BB0CF07F
:1036600045F832460146204610F097FC2A4612499A
:1036700094F810010DF072FC40B940F2AB713020AB
:10368000FDF7C2F80CF032F8C5F85C0270BDD0F856
:103690005C120122204610F080FC2A46064994F86C
:1036A00010010DF05BFC0028F0D140F2BC71E6E7A0
:1036B00040F2C271E3E700BF8D2F0000014B9880FC
:1036C000704700BF1C1C00200D4B0321186830B54B
:1036D0000D4690F8A52090F84B400132B2FBF5F36F
:1036E00003EB4303D31ADAB244FA03F3DB0703D440
:1036F000013911F0FF01F0D180F8A52030BD00BFE5
:10370000281C0020014B186810F0D1BD281C002097
:1037100008B505F0FBFE014B187008BD50000020F5
:10372000054B10B41C68827C836804F1420194F854
:10373000410010BC13F043B9281C00202DE9F041D2
:10374000064690461D460C46D9B91A4F386800F116
:103750005B0390F85A2000F1780190F87E0013F096
:103760002EF97A680346507908280ED03A6892F804
:103770004E100A1A504250413A6892F85620012AD7
:1037800005D1B36863B9012006E02046F4E77AB9B1
:10379000002BF6D10028F4D100F00100BDE8F08143
:1037A000B8F1000FEFD11DB13046FFF7B9FFF3E7D5
:1037B0000020F1E7281C0020024B18686C3002F052
:1037C000C3B900BF281C002038B50F4CFFF7F4FF29
:1037D000656802F073F963682860186820B940F2E0
:1037E000EC413220FDF710F810F050FF10B940F214
:1037F000EE41F6E70CF02AFA00200CF089FA636833
:1038000004221A7138BD00BF281C002038B5194D9C
:1038100004466B681B79022B04D940F6F301322071
:10382000FCF7F2FF2B68027C83F8A4201A44C168DD
:10383000996692F8242183F820214268C3F88820F1
:10384000037A022B0ED00CF003F80CF0A7FA0BF061
:10385000D7F909480CF0E4F908480CF0DBF90848FE
:103860000CF060F8637C23B12B685B6E0BB1012216
:103870001A6038BD281C0020D00000205555550086
:10388000D6BE898E08B5FFF743FF034B586802F098
:10389000A7F9012008BD00BF281C002038B5054647
:1038A0000C4605F0A5F8420704D4A37803F0E00322
:1038B000402B30D005F09CF8830704D4A37803F0A4
:1038C000E003202B27D0237803F03F03242B22D8BA
:1038D0000BF0F0FE94F90030A278002B637802F030
:1038E0001F02ACBF1E214FF4967143EA02234B43E3
:1038F0001A1AB2F5877F0ED398420CD8074B294687
:1039000018682388A0F82131A37880F82331BDE816
:10391000384011F0CCB9002038BD00BF281C002071
:1039200008B5074B93F900207F2A04D140F2923169
:103930003220FCF769FF02707F221A7008BD00BFB9
:103940005000002010B504788EB004F00F0404A9D4
:10395000224610F0DAFEFFF7DBFE042C33D11B4CBD
:10396000059A2368107893F8781088422BD1507804
:1039700093F87910884226D1907893F87A1088428B
:1039800021D1D07893F87B1088421CD1107993F81C
:103990007C10884217D1517993F87D20914212D141
:1039A0009DF8212093F87E309A420CD10DF10F0042
:1039B000FFF7B6FF9DF90F3004A90093237B227A0D
:1039C000606810F075FE03200EB010BD281C0020AA
:1039D0002DE9F04F044689B0062900F2C780DFE8E0
:1039E00011F06200E9000700C500C500C50028000D
:1039F0006F4D0CF049F82F6897F854309E0701D1AD
:103A0000032036E06E68B379002BF9D00DF11F006A
:103A1000FFF786FF9DF91F300222214602933046B0
:103A20002B7A0193FF23009307F1420310F030FE3D
:103A3000E6E75F4D6E68B379002B00F097802F6842
:103A400097F85420900717D50DF11F00FFF768FF76
:103A50009DF91F3030460622029321462B7A0193AE
:103A6000FF23009307F1420310F012FE0023092008
:103A70002B7309B0BDE8F08FD10777D5530701D577
:103A80000CF002F80DF11F00FFF74AFF9DF91F200F
:103A90002B6802922A7A42330192FF220092062278
:103AA00021466868C2E7424D2B6893F854205707B7
:103AB00037D56968CA79002A33D0426893F85B0029
:103AC0001678864255D1567893F85C00864250D1DC
:103AD000967893F85D0086424BD1D67893F85E00D5
:103AE000864246D1167993F85F00864241D15079DB
:103AF00093F8602090423CD1627C93F85A00161AE9
:103B00007242724193F8560001284ED0002A4CD1DF
:103B100093F84E30082B02D04A799A4245D00BF0E8
:103B2000B3FF6E68B379002B3DD02F6897F854200F
:103B3000900720D50DF11F00FFF7F2FE9DF91F3011
:103B400030460022029321462B7A0193FF230093F3
:103B500007F1420310F09CFD012309202B736B68D1
:103B6000DA79002A85D19B79002B82D10BF08CFF6A
:103B700046E70022C6E7D10715D5520701D50BF05D
:103B800083FF0DF11F00FFF7CBFE9DF91F202B686F
:103B9000214602922A7A423368680192FF220092FB
:103BA000002210F075FD0320D9E70A20D7E700BFF7
:103BB000281C0020644D81686E682A68B379807C77
:103BC0000493F37992F84880059310F09FFA92F8E5
:103BD000543088F0010807465B0740F1898092F86D
:103BE0004D30002B00F0848092F84E60082E00F0DB
:103BF0008180304605F00CFA002818BF8046002F5F
:103C00007AD03046A16805F03DFB06462B6893F854
:103C100041900EB149F0020993F85420500746D55F
:103C2000626893F85B101078884267D1507893F8F7
:103C30005C10884262D1907893F85D1088425DD123
:103C4000D07893F85E10884258D1107993F85F10BD
:103C5000884253D1517993F8602091424ED1617CD2
:103C600093F85A20891AD1F1000B4BEB010B6968CC
:103C70004979082945D093F84E305A1AD2F1000AF2
:103C80004AEB020A002E3FD1B8F1000F3ED0204689
:103C9000FFF746FD059B43B1296891F856100129AD
:103CA0004DD011B95BEA0A0349D10BF0EDFE2B6848
:103CB00093F854309B073FF4A3AE0BF0E5FE049B52
:103CC000002B3FF49DAE2046FFF72AFD10B9D5F832
:103CD0000080EEB10DF11F00FFF722FE9DF91F20BD
:103CE0002B68029242332A7ACDE900920122D7E66C
:103CF00076797BE7002689E73E4687E74FF0000BA1
:103D0000B5E74FF0000ABDE70120C3E73046C1E741
:103D100098F85520023A012A3FF672AE002F3FF480
:103D20006FAE0DF11F00FFF7FBFD9DF91F300293F1
:103D30002B7A0193FE23009308F14203D6E7002873
:103D4000B3D00A2095E600BF281C00202DE9F043DF
:103D500087B0174C06460F460DF11700FFF7E0FD40
:103D600065682B79032B20D02B79062B0CBF4FF0E5
:103D700003094FF00109236803F142080BF094FC9A
:103D80009DF917303A463146CDF80C900293237ACC
:103D9000CDE900034346284601F056FF10B16068A4
:103DA00001F0EEFE07B0BDE8F0834FF00009E2E756
:103DB000281C00202DE9F043324E87B005460F46FF
:103DC0007468A37923B90024204607B0BDE8F083C6
:103DD000D6F8008098F8953033B90378002B0CBFE3
:103DE0000123022388F895302379062BDAB224D0F8
:103DF000072A14BF4FF001094FF002090DF1170017
:103E0000FFF78EFD0BF050FC9DF917303A4629461E
:103E10000293337ACDF80C90CDE9000308F1420308
:103E2000204601F011FF0028CDD06C7814F010046A
:103E300006D1706801F0A4FEC6E74FF00309DDE784
:103E4000A9690220FFF72AFD0446B8B100223368B1
:103E500083F896206A696AB15178C1F3031183F837
:103E600097101178527802F00F0241EA0222A3F86B
:103E70009820A9E7FF2283F89720A5E7706801F052
:103E8000AFFEA1E7281C00200D4A536810B5197930
:103E9000022904D84FF4A5513220FCF7B5FC19795A
:103EA000082902D941F2A141F6E71B79126903F111
:103EB00080439268033BBDE8104052F82330184716
:103EC000281C002010B5054C637A2BB10BF066FF5F
:103ED0000AF096FE0023637210BD00BF281C00206C
:103EE00010B5054C23792BB10BF058FF0AF088FE72
:103EF0000023237110BD00BF6823002010B5094CBA
:103F0000FFF7E0FF012263681A7100232268A2F81C
:103F1000213182F82331FFF74FFC2068BDE81040C3
:103F200011F091B8281C002008B5044B586801F026
:103F300057FEBDE8084010F0C7B900BF281C00209C
:103F4000062938B51C469DF8105019D908291DD8E6
:103F500002B1DDB143689BB912B94378DB0617D4CF
:103F60000C4B5B68186810F0B2FB00B135B92CB986
:103F700005F070F800F00104204638BD0120F9E793
:103F80009DF81430002C08BF1C46F5E70024F3E729
:103F90000124F1E7281C002038B50D1E044614BF8B
:103FA00003200520104405F0C3F8094B587270B186
:103FB0005DB9033C012C94BF552450240AF0F4FD54
:103FC0002046BDE838400BF0DDBE4024F6E738BDA2
:103FD000281C0020F8B53E4CFFF7EEFB656801F0A9
:103FE0006DFD63682860186820B940F249413220AD
:103FF000FCF70AFC10F04AFB054610B940F24B41B1
:10400000F5E7236893F8A6306BB123681A6D93F82F
:10401000A710C3F8102193F854200A4383F85420C2
:10402000002283F8A620206890F8A430034493F877
:104030002471636880F820711A7952B11B79012BC1
:1040400007D0002110F033FE18B9BDE8F840FFF7A3
:1040500055BF23681F4A93F8A530D05C0BF06CFC69
:10406000236893F8A420134493F82461022E2CD0E3
:1040700004D8012E05D040F2F371B8E7F31E012BEE
:10408000F9D801F015FD314680B20BF085FB2846CA
:104090000BF0DCFD314601200BF07AFC7B1E2A463A
:1040A000384659425941FFF777FF626808210023DB
:1040B000517121722168D3801372E37281F89530B7
:1040C000A372237303231371F8BD0D20DBE700BF38
:1040D000281C00207C4C040010B50A4C05212068E7
:1040E00010F0E5FD18B9BDE81040FFF707BF2368E1
:1040F000012093F820110BF06BFE63680B221A71FC
:1041000010BD00BF281C0020124A10B5536800B92A
:1041100031B9184601F064FDBDE81040FFF7EEBE6E
:104120001979082904D841F270413220FCF76CFB60
:1041300019790C2902D941F27141F6E71B7912690C
:1041400003F180435268093BBDE8104052F8233028
:10415000184700BF281C0020054B1A6892F854200D
:10416000920703D05B68186801F0D2BC58697047A9
:10417000281C002070B5304D06466B681A79032A5A
:1041800002D01A79042A09D1186810F07FFA04467F
:1041900038B941F2A8313220FCF736FBFFF7DCFFDB
:1041A000F5E72B6893F8543013B941F2AE31F2E7DA
:1041B00076B112F0EBFF30B16B681A79022A0ED893
:1041C00041F22E31E7E7204612F0FBFF0028F3D141
:1041D0006B681A79022A17D841F28E31DBE71A7917
:1041E000082A02D941F22F31D5E71B7920462A69E6
:1041F00003F180431269033B52F8233098470C289F
:1042000012D941F2C131C6E71A79082A02D941F21E
:104210008F31C0E71B792A6903F180435269033B60
:1042200052F823309847EAE72B69DB68BDE8704015
:1042300053F82030184700BF281C002038B5FFF77E
:104240008BFF044620B940F213513220FCF7DCFA10
:104250000B4DFF202B6893F820110BF09DFA2046A0
:104260000BF0F4FC2B6893F82031033B012B94BF37
:10427000282000200BF04CFD6B6807221A7138BD16
:10428000281C002038B5134C0E20236893F8201109
:104290000BF082FAFFF760FF054620B94FF4A061EA
:1042A0003220FCF7B1FA0BF0D1FC236893F82031EF
:1042B000033B012B94BF282000200BF029FD23682D
:1042C0002A46002193F82001FFF766FE6368082262
:1042D0001A7138BD281C002010B5074C606801F029
:1042E0004FFCFFF715FA20680021A03012F0AFF85C
:1042F000BDE81040FFF702BE281C002010B50446A0
:104300008AB0FFF705FA237803F00F03072B23D1B8
:104310006946204610F08CFA684610F02FFB9DF895
:104320000030CBB99DF80130DB0715D50D4C019954
:1043300022689DF8110002F1780392F87E2012F0B5
:104340003EFB48B120680121A03012F080F8FF2127
:104350006846FFF72FFD08B9012000E002200AB0EF
:1043600010BD00BF281C002007292DE9F043064698
:1043700087B00F4690464568654C23D11DBB002A87
:1043800048D1D4E9001091F8543013F0030218BF5B
:10439000012213F00403827103D033785A1E534272
:1043A0005341C37191F894304BB12368D3F8900016
:1043B000503013F0B1FD10B9636801221A7207B0D2
:1043C000BDE8F08335B32946707C0FF09FFE072FC0
:1043D000814664D1637A63B158B1B8F1000F55D00A
:1043E000656812F021FB636868715B7923720123B1
:1043F000A37263685879082858D17168707C13F0EB
:1044000081FD6268054671680532707C04F028FE03
:1044100000285DD0236893F8540010F003000AD000
:104420006268394693F84C30304601959279009293
:104430004246FFF785FD00F0010062682368907135
:1044400093F8540010F0040009D093F84D30394629
:1044500001953046D27900924246FFF771FD2D4B0F
:1044600000F0010065681B68E8711BB141463046E9
:1044700098472872726872B3717C236883F87E1043
:10448000116899679288A3F87C2024E0236893F848
:1044900020110129A4D1284604F01CFE6072637A21
:1044A000002BA6D0B9F1000FA3D099E704AA0DF113
:1044B0000F0104F0F7FD20B94FF43A613220FCF708
:1044C000A3F904A99DF80F0013F01CFD0546A1E710
:1044D0006368D88018726268137AB3B9D388003BD6
:1044E00018BF0123B06800283FF469AF072F7FF49D
:1044F00066AF517908293FF462AF002B3FF45FAFFC
:1045000004F006FE0123E37259E70123EAE700BF46
:10451000281C0020CC00002030B58BB00546FFF7EA
:10452000F7F8114B1B6893F8543013F0060F04D0C2
:1045300001229621002014F0EAFB2C7869462846D7
:1045400004F00F04224610F0E0F8002221466846ED
:10455000FFF70AFF21466846FFF73AFA0446FFF7DD
:10456000B1FC20460BB030BD281C00202DE9F74FD0
:104570002F4D934607468A462A688168807C92F8C8
:10458000488001930FF0C2FD6C7A88F0010806465E
:10459000CCB192F854305B071FD592F84D30E3B19F
:1045A00092F84E40082C23D0204604F031FD00281C
:1045B00018BF8046002E36D0EB7A73B312F03EFA65
:1045C00000230446EB72019B8BF800408AF80060E0
:1045D00083F8008003B0BDE8F08F7B6813B16B688F
:1045E0005C79DFE76B68186810F071F80028F6D185
:1045F000CEB195F80A90B9F1000F14D14946B868C8
:1046000004F068FD044668720028DCD012F00CFA51
:1046100008280AD06B685871D5E72046B96804F0BD
:1046200031FE0446CFE70024CDE74C46CBE700BF80
:10463000281C00202DE9F0439F4E87B005463768BF
:1046400097F85730002B00F03581D6F8048098F8A1
:1046500006303BB998F8072022B998F80820002ABC
:1046600000F028812C78012C7CD0022C00F0D08026
:10467000002C40F01F8197F85420910700F01A8118
:1046800023B998F80830002B00F014816B7813F0F0
:10469000100FC3F3001714BF0822012232EA0303EC
:1046A00040F008810023AA688DF814308DF8153089
:1046B0008DF81630002A4CD00DF1160305AA0DF125
:1046C00015012846FFF752FF336893F841409DF8E3
:1046D0001430002B00F0DA8044F00204002F3CD0AC
:1046E0000DF117004FF00008FFF71AF9D6E900396D
:1046F00003F142070AF0D8FF9DF9173022462946F8
:10470000CDF80C800293337ACDE900033B4648464E
:1047100001F09AFA002800F0CD80A9690120FFF786
:10472000BDF8002800F0C680336883F896806A6977
:10473000002A69D05178C1F3031183F897101178DA
:10474000527802F00F0241EA0222A3F898200224D4
:1047500094E0FF24C2E7FE24C0E721462846FFF785
:10476000F5FAA7E097F820216B78022A2DD103F003
:104770001903192B40F09E8097F854305A0728D41B
:104780000DF11700FFF7CCF8D6E9003703F142042A
:104790000AF08AFF0023FF22294603939DF9173070
:1047A0000293337ACDE900032346384601F04CFAF0
:1047B00000287FD0A9690120FFF770F8002879D080
:1047C0003368012283F89620B1E703F01803182B11
:1047D000D0E7696800232846B1FA81F11A464909F1
:1047E000FEF7ACFF002865D0AB6932689B7813F008
:1047F000E00304D192F84930002BC1D15AE0402B9C
:10480000BED192F84A30F7E7FF2283F897209EE75F
:1048100097F854309B074DD06B7803F01803182B92
:1048200048D10DF11700FFF77BF80AF03DFF002398
:10483000FF22294603939DF917300293337ACDE97D
:10484000000307F14203404601F0FEF990B3A96965
:104850000120FFF723F868B3336883F896406A694C
:1048600082B15178C1F3031183F89710117852780F
:1048700002F00F0241EA0222A3F89820204607B076
:10488000BDE8F083FF2283F89720F7E72846FEF77C
:1048900047FF00287FF422AF336893F85530023B7E
:1048A000012B07D89DF8153023B19DF81430002B4B
:1048B0003FF451AF0324E1E7281C002030B5054642
:1048C0008BB0FEF725FF2C7828466946294D04F069
:1048D0000F040FF0ADFF2B68072C16D193F82011B1
:1048E00068460FF0AEFF002221466846FFF73CFD08
:1048F0002B6893F82031022B32D017D8012B1AD015
:1049000041F229213220FBF77FFF93F8542012F067
:10491000060FE8D093F8A420134493F82421012A29
:10492000E1D19621002014F0F2F9DCE7033B012BE2
:10493000E6D8072C19E0062C02D00BD8022C0BD895
:1049400021466846FFF744F80446FFF7BBFA2046C5
:104950000BB030BD072C09D00BF096F80324F4E718
:10496000072CFBD19DF80030012BF7D16846FFF7EB
:1049700061FEE9E7281C002038B5174D2C6894F833
:10498000483013B36FF00043D4E920129A4208BFB5
:10499000B1F1FF3F19D014F052FAD4E9202390422C
:1049A00071EB030311D32B6893F8483073B92D686A
:1049B00004F072FB044614F042FA084BA4FB0334E3
:1049C0001B1844EB0104C5E9203438BD012004F074
:1049D00025FC0028F9D0EAE7281C002040420F00FF
:1049E00010B50446FEF712FF237A032B04D140F6DC
:1049F00022113220FBF708FF0BB9FEF765FE064BCC
:104A00001B6893F958000AF087FFFFF7E3FABDE847
:104A10001040FFF7B1BF00BF281C002070B51E4D2D
:104A200006462A6892F823115F294FEA511096BF73
:104A30001A4B00241B1892F8210100F03F0098BF88
:104A4000DC780AF079FF2B6893F958000AF064FFCC
:104A5000FEB12B682246996E01200BF001F82B68FD
:104A6000214693F89630022B0CBF4020FF200AF01D
:104A700093FEFFF771FB2B68064693F8951019B962
:104A800002462046FFF788FA3046BDE870400BF03A
:104A9000DDB822467321DFE7281C00207C4C04008F
:104AA000F7B52C4C0746226892F823115F294FEA8C
:104AB000511097BF284B00251B18DD78936E13B15A
:104AC0000120FFF7ABFF2368D3F888000BF0F4F860
:104AD000236893F85420910703D593F89610022980
:104AE00005D052070FD593F89620012A0BD1EA1E64
:104AF000012A26D893F85930012B14BF29460321E7
:104B000000200BF065F9266863689A361868D7B9F3
:104B10000FF0DDFD6368074618680FF0DEFD2168C1
:104B20000246304691F8963091F8201100913946AE
:104B30000FF0D9FE236883F820510023A37203B03D
:104B4000F0BD2946DCE70FF0D4FD014630460FF0FA
:104B5000BFFEEFE7281C00207C4C040008B50120B4
:104B6000FFF79EFF024B06225B681A7108BD00BF6B
:104B7000281C002008B50020FFF792FF024B0522F9
:104B80005B681A7108BD00BF281C002010B50446E0
:104B9000FEF73CFE237A032B0AD1194B1B68986E53
:104BA00020B140F638113220FBF72EFEFFF736FF1A
:104BB000237A012B06D003D9023B012B12D910BD59
:104BC000FEF782FD0E4C236893F958000AF0A4FE0C
:104BD0002368002283F89520FFF7FCF9BDE8104018
:104BE000FFF7CABE064B1B6893F895301BB9BDE8AA
:104BF0001040FFF7BFBFBDE81040FFF7AFBF00BFD9
:104C0000281C002008B5044B586800F0B9FFFEF7D7
:104C10007FFD012008BD00BF281C002008B5FEF75D
:104C200077FD054B00211868A03011F010FCBDE89D
:104C30000840FFF763B900BF281C00202DE9F341AD
:104C40004C4D00230E4607462A6841F27070116DE4
:104C500053720B885381CB69A3F57A74844295BF54
:104C60004FF47A7040F2E240B3FBF0F3B3FBF0F3A1
:104C700098BF03F550639BB213848B8C5384CB8C09
:104C800093844FF47F43D3844FF6FF73138517B398
:104C90000121304612F0B6F901463078C0092C687F
:104CA00094F8483004F11402FBB10FF02FFAE0B190
:104CB0000B6863618B88287A938004F10E020828C0
:104CC0004AD004F10D0104F0EDF988B941F2F73151
:104CD0003220FBF799FD6946686912F04DF86B695F
:104CE00069461878C0F38010D9E700236361E2E7D2
:104CF0002C68637B04F11A0843F00203637347B323
:104D00000021304612F07EF90368C4F81A30838817
:104D1000A8F804302B6893F95810186D04F0DAFBEA
:104D20002868154912F01AFB28681449036D2A30C7
:104D30001A88A0F8092093F89630C37212F017FB76
:104D40000221286801F038FAFEF736FD02B0BDE80E
:104D5000F08104F17800D7E794F87E306373A36F95
:104D6000C4F80E30B4F87C3093800023C4F81A30B5
:104D7000E383CFE7281C0020874101002541010083
:104D800008B5FFF79FF8044B00205969FFF756FF5D
:104D9000BDE80840FEF7B6BC281C00202DE9F04F06
:104DA00006468BB0FEF7B4FC337803F00F03082BF4
:104DB00005D04FF0010948460BB0BDE8F08F6946B9
:104DC00030460FF0D2FC9DF80090B9F1000FF0D101
:104DD0009DF8013003F00303032BEAD12B4C276825
:104DE00097F84D30002B39D097F84E80637A002B1E
:104DF00038D1002507F1780397F87E2001999DF8B6
:104E0000110011F0DCFD0DB90028D2D0256897F80B
:104E1000483095F841A042353BB1404604F06CFA69
:104E200000281CBF05464FF0010A9DF812B05246FB
:104E3000029958460FF06AF92B460746584611F07A
:104E4000BEFDC8B120680121A03011F000FBFFF7C2
:104E500039F831460120FFF7F1FEACE7636893F8BB
:104E60000580C3E711F0E0FD0828C2D0A0EB0803DD
:104E700020725D425D41BDE7002F9AD00299404605
:104E800004F000FA0028DDD193E700BF281C0020C1
:104E90002DE9F8436F4F0023054689467869D7F816
:104EA0000080037043700AF0EBFE064628B9032029
:104EB00004F0D8FD3046BDE8F883032D7C6947D166
:104EC000237823F00F0343F0030323700C23637054
:104ED000D8F878307869C0F80930B8F87C30A0F894
:104EE0000D3098F87E1011F05BFF0021786913F007
:104EF0001AFF3B6893F8482003F1420493F841807D
:104F000092B193F85420520740F1928093F84D20CB
:104F1000002A00F08D8093F84E0004F0EDF900288F
:104F20001CBF04464FF00108236841467869C0F869
:104F30000330A388A0F8073011F025FF464BD3F8C3
:104F40000C32002B77D040F234613220FBF75CFC4E
:104F5000052DBDD12378222223F02F03627043EA6E
:104F6000491141F00501217039680B6D1B6AC4F8C5
:104F70000F300A6D936A180AE3741B0C2075637571
:104F800092F87E00138E00284CD04FF0640CB3FBD7
:104F9000FCF3DBB2A375D36A002846D06420B3FBD0
:104FA000F0F39BB241F27070E3751B0A2376D3696C
:104FB000A3F57A7C844595BF4FF47A7040F2E240C5
:104FC000B3FBF0F3B3FBF0F398BF03F550639BB270
:104FD00063761B0AA376938CE3761B0A2377D38C24
:104FE00063771B0AA377D2F89730C4F81F3092F882
:104FF0009B3094F8242084F823300B6D22F01F029C
:1050000093F8A23003F01F03134384F8243003F015
:1050100015FD94F8243003F01F0343EA401384F88D
:10502000243055E740F2E24CB1E740F2E240B6E707
:105030007B68587971E7052D7FF43CAF3B682168A8
:105040001A6DC2F80A10A188D1811B6D83F80980FE
:1050500030E700BF281C002000A0085010B5002138
:105060000320FFF715FF18B9BDE81040FEF746BF53
:10507000074C032120680FF01AFE0028F4D001210C
:1050800008460AF0A5FE636809221A7110BD00BF28
:10509000281C002038B5184D6B6818680FF0F6FA18
:1050A000044620B94FF4AB613220FBF7ADFB6B68CF
:1050B0000A22002128681A7101F07EF82B68052069
:1050C0001A6D237892F8964004EA531404F0010410
:1050D0002146FFF7DDFE18B9BDE83840FEF70EBFE8
:1050E000042128680FF0E3FD0028F5D02B681B6D24
:1050F00083F8964038BD00BF281C002010B5114C25
:105100000C220121636820681A7101F055F8002112
:105110000520FFF7BDFE18B9BDE81040FEF7EEBE52
:10512000062120680FF0C3FD0028F5D02368012078
:1051300093F820110AF04CFE236801221B6D83F8BE
:10514000962010BD281C00202DE9F043054691B0A3
:105150000E46FEF7DDFA2B789B4C03F00F03072B6E
:1051600007D00125606800F03BFD284611B0BDE87E
:10517000F08306A928460FF05BFB206806A99A3049
:105180000FF0CEFB23689DF8181093F896209142FB
:1051900040F05981032E03D193F89720FF2A16D0AF
:1051A0009DF81920150740F14E810B9A93F897103E
:1051B0005078B1EB101F40F04681127800F00F00DC
:1051C000B3F8983042EA0020984240F03C8106A8AB
:1051D00032460721FFF7C8F86068C3881BB9037A15
:1051E000002B00F0318100238DF814308DF815303C
:1051F0008DF81630089B002B47D00DF1160305AA39
:105200000DF1150106A8FFF7B1F9236893F8416085
:105210009DF814300BB146F002069DF818509DF829
:105220001480012D9DF815709DF816302FD0022D99
:105230007FD0002D40F00781236893F854309D07FC
:1052400030D09DF81930980771D5B8F1000F0BD107
:1052500006A8FEF765FA38B9236893F85530023B83
:10526000012B1FD8F7B1FE2663681B7A33B1574B69
:105270001B681BB10D9808B10F999847314606A8D5
:10528000FEF798FD70B102253FE0FF26C5E79DF8C7
:105290001900226800F0090C92F89A10BCF1090F6D
:1052A00004D009B9012530E00007FBD592F854205D
:1052B000500711D463689B79002BF3D0236893F8CF
:1052C00054309A07EED09DF819309B0716D4FF2171
:1052D00006A8FEF73BFDE5E76268D279002AE9D02F
:1052E000424606A8FEF72AFA0028E3D02068A0303C
:1052F00011F0CFF80028DDD00C2506E0B8F1000F42
:1053000006D0314606A8FEF721FDFEF7DBFD2CE7AF
:1053100006A8FEF705FA0028F3D1236893F8553064
:10532000023B012BBED8002FBCD0FE21D0E7FF26C8
:105330009AE7226892F854209107B3D0616889797E
:105340000029AFD09DF8195005F009010929A9D10C
:10535000920705F0020568D5002D39D0B8F1000F8D
:105360002AD00DF11700FEF7DBFA00210320FFF72A
:105370008FFD0546D4E9003803F142070AF094F99D
:105380000123324606A903939DF917300293237A2D
:10539000CDE900033B46404600F056FC002D81D08D
:1053A00000283FF47FAF2068A03011F072F8002889
:1053B0003FF478AF0B25A8E7002BAED006A8FEF788
:1053C000AFF90028CDD1A8E7281C0020C800002094
:1053D0000DF11700FEF7A4FA294603200125FFF777
:1053E00057FD0746D4E9003903F142080AF05CF999
:1053F0009DF91730324606A903950293237ACDE929
:1054000000034346484600F01FFC002F3FF47DAFE9
:1054100000283FF47AAF2068A03011F03AF8002855
:10542000C8D1606800F0ACFB6FE7002D3FF44FAFD0
:10543000B8F1000F01D031464AE706A8FEF770F92F
:105440000028F8D169E7606800F0CAFB2AE700BFCE
:10545000036D10B5044623B94FF456713220FBF7A3
:10546000D3F90222074942721B884381FF2380F847
:1054700027304FF6FF73038511F070FF002323657B
:1054800010BD00BF87410100F8B5184F0E4601213D
:1054900078610020FCF77AF9054620B940F67C01D6
:1054A0003220FBF7B1F94FF49472002113F074FE2F
:1054B00001210846FCF76AF9044620B14FF49472C2
:1054C000002113F069FE3B6913B940F68601E7E756
:1054D00030460EF035FF28460FF056FC24B120462A
:1054E000BDE8F8400FF050BCF8BD00BF281C0020FC
:1054F000014B024A1A617047281C0020C00100209D
:10550000014B024A1A617047281C0020D801002074
:10551000036810B523B940F667113220FBF774F920
:10552000044A13606C3353601369BDE810401B6874
:10553000184700BF281C002008B5044B586800F02D
:105540004FFBBDE80840FEF7D9BC00BF281C002077
:1055500038B590F84030044613F0FD0F04F14201D5
:1055600014BF0120002084F8410003F03DFC94F8B2
:105570004030023BDBB2012B94BF0123002384F8AF
:10558000483018D803F088FD054613F058FC0A4B44
:10559000A5FB03351B1845EB0105C4E9203594F83C
:1055A000483043B1002003F039FE20B940F60F2106
:1055B0003220FBF729F938BD40420F00014936304F
:1055C00011F0CFBE4741010010B5084C02226368BC
:1055D00020681A7100F0BEFC38B920680FF020F87E
:1055E0002068BDE810400FF02EBD10BD281C002023
:1055F000013808B5C0B20A4B41B1032801D8185C84
:1056000008BD40F2B9113320FBF7FEF8032802D899
:1056100018440079F4E740F249310620F4E700BF6E
:10562000824C040008B50EF038FA054AD2E84F3F24
:105630000133DBB2C2E8413F0029F7D108BD00BF0A
:10564000401C0020024BA0F108015868FFF7EABF98
:10565000401C00202DE9F84F0D461E4600213B4B13
:105660009346046801601A789DF828709DF82C8094
:105670009DF930909DF834A032B9A4F10801586822
:10568000BDE8F84FFFF7CEBF1A2204F1090013F06E
:1056900083FD0123A372BBF1060F4FD8DFE80BF0A7
:1056A0000433394E434E3D00E37A23F0130343F0B5
:1056B0001303E372012304F10E02414628462375C9
:1056C00047F6FF7384F81890E38204F10D030EF09F
:1056D000B1FFE37A5B0736D5BA1E04F11C03012A39
:1056E0008BBFAA6832681168E2618ABFE161B28843
:1056F00092889A80E7760023237215492046BDE8F8
:10570000F84F11F02EBEE37A23F0150343F0150392
:10571000CFE7E37A43F01003CBE7E37A23F01203F9
:1057200043F01203C5E7E27A4AF01A0A22F01B029C
:105730000AF01B0A42EA0A02E272BBE740F22B417E
:105740003320FBF761F8FF23E376D4E7401C002009
:10575000555700002DE9F04F05468DB00C4600204E
:105760000121FCF751F8064620B940F2C711332059
:10577000FBF74AF8A8300FF08DFA18B196F85430BC
:10578000042B2FD130460EF0D0FD58BBB84C04F19D
:10579000080704F10C08AE6A9EB92846FFF752FFCD
:1057A00002238DF804608DF805309DF80430002048
:1057B00063F307009DF8053063F30F200DB0BDE8DB
:1057C000F08FA96A0B68B942AB624FF000030B700F
:1057D0004B708B70CB70DED04145DCD06068FFF73A
:1057E00021FFD8E7AE6A36B3A24B9E4226D0043BD7
:1057F0009E4223D006F13B0A4FF0000803F0B4F8B4
:105800008146B8F1000F40F02E8102A950460FF0FA
:105810000FF8B9F1000F16D004F10D00EF7A17F070
:10582000100713D09DF8187005993A460DF01AF834
:105830004FF0010828E005F1330ADDE74FF00108D9
:105840004FF0000ADAE704F11C00E7E7002EEFD082
:105850009DF80830022BEBD0014695F83230E52256
:10586000504611F019FC95F8323007460344504673
:1058700085F8323011F008FC95F83280A8EB000C66
:10588000DCF1000848EB0C08B9F1000F2CD104231F
:1058900005F12301237007F11803AA7A5343E2703C
:1058A000221D0233637005F10B0353F8040B8B4286
:1058B00042F8040BF9D195F814B095F815A003F04F
:1058C00091F8C1F3402958464946FFF791FE6073AD
:1058D000BAF1000F04D049465046FFF789FEA07385
:1058E000E7762CE0C8460027EB7AD80601D45B2186
:1058F0003DE75907AA7A95F80DE004F1060005F195
:105900000E0C2FD5E97EFE292CD11123E27084F8EC
:1059100005E0237013010233637001232371D5F86E
:105920000E30C4F80630BCF8043083802173EB6974
:10593000C4F80D302B8CA4F811302B7EE3744C4F3F
:1059400007F1080A56453AD12379022605F12800C5
:1059500066F3461323710EF089FE2846FFF772FEA8
:1059600004273FE007F10A030321E270534321704B
:10597000023384F805E06370D5F80E30C4F80630C1
:10598000BCF804308380277327442B7E7B73EA7A2C
:1059900012F0080002D004232371D0E702F00303C1
:1059A000032B01D12071CAE7520701D50123F3E788
:1059B000022BF1D00BB92171C1E7A221D7E607F183
:1059C0000C094E4515D105F128000EF04FFE6A7DF9
:1059D0006AB92379042762F3461323710226284605
:1059E000FFF730FE8DF804708DF80560DDE60027C6
:1059F000F4E77EB3B8F1000F26D005F12808404641
:105A00000EF034FE31467868FFF70CFEAB6A0022D8
:105A1000534585F8322097D04B450BD1237940462A
:105A200062F3461323710EF021FE28460226FFF78B
:105A300009FE95E79DF80830022B05D12379012650
:105A400023F0680323718BE72379012666F346135D
:105A5000237185E7EF7A17F01007C3D0237966F337
:105A600046132371E1E700287FF43CAF07460EE7B9
:105A7000401C00204C1C0020343270B5054692B208
:105A80000C461E460DF0D1FF25B1034A5560147433
:105A90005674147070BD00BF401C002010B5034C3C
:105AA00060680DF0E4FF237C237010BD401C0020D3
:105AB000014B587C704700BF401C002038B5134D87
:105AC00068680DF0DAFF044620B940F24711332030
:105AD000FAF79AFED5E84F3F013BDBB2C5E8413FFC
:105AE0000029F7D104F108033422184613F054FBBF
:105AF00047F6FF720121E462E283FF22627584F8B7
:105B00002320E27C61F34612E27438BD401C002081
:105B100038B5436A044693B90A4D68680DF0ADFF85
:105B2000606220B94FF4B0713320FAF76DFED5E80A
:105B30004F3F013BDBB2C5E8423F002AF7D1606A24
:105B40003B3038BD401C0020036810B504465BB1F3
:105B5000596A49B101F10802934204BF002303606E
:105B6000064B5868FFF75EFD216831B1034B0839D9
:105B70005868FFF757FD0023236010BD401C00202C
:105B800038B5046805469CB11349204611F0F2FB74
:105B9000124B00221A735A739A73DA73EFF310825E
:105BA00072B6A16A0C3399B9A362E36202B962B614
:105BB0002C68616A49B101F108039C4203D0074B8C
:105BC0005868FFF72FFD0023636200232B6038BD68
:105BD000E16A0B60E9E700BF55570000401C002058
:105BE00070B50668044656B3716A154D41B101F1AE
:105BF00008039E4202D06868FFF714FD0023736219
:105C000021684E7DB6B100232B726B72AB72EB72C2
:105C1000EFF3108272B6886A0A4B40B98B62CB628E
:105C200002B962B62046BDE87040FFF7A9BFC86A56
:105C30000360F4E708396868FFF7F4FC266070BD7C
:105C4000401C0020481C00202DE9F04704689146C4
:105C500007460D469A469DF820209DF82C6024B9F1
:105C60004FF448713320FAF7CFFDDFF8A48198F89C
:105C70000030ABB9022E0AD006D9032E0AD03B68F9
:105C80005BB90020BDE8F087FFF75EFFF7E7FFF79D
:105C900077FFF4E7FFF7A4FFF1E740F23D31E1E7DA
:105CA000636A0BB94021DDE75E74CB687BB1097C88
