:10000000985C0020690401001342020055040100BD
:100010005504010055040100550401005504010078
:10002000000000000000000000000000E1050100E9
:10003000550401000000000079050100550401008D
:10004000C5070100C5070100C5070100C50701007C
:10005000C5070100C5070100C5070100C50701006C
:10006000C5070100C5070100C5070100C50701005C
:10007000C5070100C5070100C5070100C50701004C
:10025000C507010033770200C5070100C50701008B
:10026000C5070100C50701005F770200C50701004F
:10027000C5070100C5070100C5070100C50701004A
:10028000C5070100C5070100C5070100C50701003A
:10029000C5070100C5070100C5070100C50701002A
:1002A000C5070100C5070100C5070100C50701001A
:1002B000C5070100C5070100C5070100C50701000A
:1002C000C5070100C5070100C5070100C5070100FA
:1002D000C5070100C5070100C5070100C5070100EA
:1002E000C5070100C5070100C5070100C5070100DA
:1002F000C5070100C5070100C5070100C5070100CA
:10030000C5070100C5070100C5070100C5070100B9
:10031000C5070100C5070100C5070100C5070100A9
:10032000C5070100C5070100C5070100C507010099
:10033000C5070100C5070100C5070100C507010089
:10034000C5070100C5070100C5070100C507010079
:10035000C5070100C5070100C5070100C507010069
:10036000C5070100C5070100C5070100C507010059
:10037000C5070100C5070100C5070100C507010049
:10038000C5070100C5070100C5070100C507010039
:10039000C5070100C5070100C5070100C507010029
:1003A000C5070100C5070100C5070100C507010019
:1003B000C5070100C5070100C5070100C507010009
:1003C000C5070100C5070100C5070100C5070100F9
:1003D000C507010049770200C5070100C5070100F4
:1003E000C5070100C5070100C5070100C5070100D9
:1003F000C5070100C5070100C5070100C5070100C9
:10040000C5070100C5070100C5070100C5070100B8
:10041000C5070100C5070100C5070100C5070100A8
:10042000C5070100C5070100C5070100C507010098
:10043000C5070100C5070100C5070100C507010088
:10044000C5070100C5070100C5070100C507010078
:10045000C5070100C5070100C5070100C507010068
:10046000C5070100C5070100C5070100C507010058
:0C047000C5070100C5070100C507010019
:10048000084B1B78002B4FF00003836018BF02223B
:10049000036008BF0122044B4360FF23C271037253
:1004A000704700BF780A0020F8000800064A074B92
:1004B0009B7802604FF40A72C37100238280082285
:1004C00003728271704700BFB7CA0000780A00202B
:1004D000F8B5C41D0028054624F007040CBF002011
:1004E000204600F01DFB071E02DA6FF00B00F8BD7E
:1004F0000DB9FC42F9D4304E718930890331737BD8
:100500000330327B89B280B20AF038FA0028ECDB83
:100510002744B178F378002D07F10307194427F039
:10052000030700FB01F10CBF0020384600F082FCFD
:1005300007440DB9002FD8DB01203C4600F0E6FA55
:10054000A0B1B17B91B1FC1D002D4FF025034FF000
:10055000280224F007040CBF0020204602F0A0FA75
:100560000028C2DB04440DB9002CBEDBB37CABB168
:10057000012000F0CBFA88B1B37B7BB10734002DAA
:10058000B17C24F007040CBF0020204604F0BCFF1F
:100590000028AADB04440DB9002CA6DBF36A1BB1CA
:1005A00035B1F4620020A2E7002DFBD120469EE782
:1005B0002834FBD599E700BF780A00201FB572B632
:1005C000194B1D6BE5B9BFF34F8F1849184BCA681B
:1005D00002F4E0621343CB60BFF34F8F00BFFDE72F
:1005E000B4FBF6F4D3B20132002CF9D103F11002BE
:1005F0006A4402F80C4C0A2233B901A8A847E2E782
:10060000044600220A26EDE7013BDBB203F11004A9
:100610000DEB0406B0FBF2F402FB1400303006F8D8
:100620000C0C2046E8E700BF780A002000ED00E04F
:100630000400FA050C4B07B55A7B68468DF801207B
:100640001A7B8DF800205A891B89ADF80420ADF87B
:10065000023003F087FC18B1E8219C20FFF7AEFFC1
:1006600003B05DF804FB00BF780A002038B50546EA
:1006700070B309F047FA10B94FF0FF3038BD07F0FA
:1006800011FFB0F5FA7FF7D8144C15482563002503
:1006900000F0B8F92A222946A01C84F834502570AD
:1006A000E5620CF063FC0123A3701B2323816381AB
:1006B00040F20323A3810323A3730823A374EFF35E
:1006C000108472B600F026FC2CB962B62046D5E73D
:1006D0006FF01500D2E72846D0E700BF780A002067
:1006E0003506000038B51446002849D1264D95F846
:1006F0003430032B41D071B112B96FF0150038BD01
:10070000013906293CD8DFE801F0043B153B2A3BC0
:1007100033001378AB700020FFF7DAFE0028B7BF74
:10072000012302236FF00B0085F83430A8BF85F851
:100730003430E4E71379002BDFD05379002BDCD081
:100740001288FB2AD9D81A2A6388D6D91B3BE02BFA
:10075000D3D82368A288AB600C4B9A80DBE70120DA
:1007600000F0D4F9237808B1012BC6D9AB73D2E7D6
:100770001388FF2BC1D8AB74CDE74FF0FF30BEE735
:100780006FF02C00BBE700BF780A0020800A002031
:10079000F8B50D46064630B329B311F0070422D14F
:1007A000124F97F83430012B02D16FF00B00F8BDD7
:1007B000032B02D14FF0FF30F9E700F081F8002859
:1007C000F8D02846FFF784FE0028EEDB0CF0CEF9C7
:1007D0003046F96A03F05AFCFFF72CFF032320464A
:1007E00087F83430E3E76FF01500E0E7780A00207F
:1007F00010B5074C94F83430032B03D103F062FC9E
:1008000004F040FA0AF010F9002084F8340010BD1A
:10081000780A002050B1074B03F1140253F8041B6F
:10082000934240F8041BF9D1002070476FF0150087
:10083000704700BF7CAC0200094B10B593F8344000
:100840005CB903F007FC0749012000F057F9204686
:10085000054900F053F9204610BD4FF0FF30FBE78B
:10086000780A002081040000AD040000054B10B59B
:1008700093F834401CB90BF07AF9204610BD4FF0C4
:10088000FF30FBE7780A0020054B10B593F83440A1
:100890001CB90BF06FF9204610BD4FF0FF30FBE79D
:1008A000780A002002680020014B1A60704700BFE0
:1008B000B00A0020014B1B68184700BFB00A002097
:1008C000024B1868003818BF01207047B00A00209A
:1008D0002DE9F8430446184E00F104081648C6F8FE
:1008E000008004F0E7F90228054606D112492046A7
:1008F00009F09BFB2846BDE8F8830428FAD131466D
:10090000204609F0CAFBB0F5817F03D3722108208D
:10091000FFF754FE0028E1D0277894F8029038467B
:1009200000F020F80028D9D03E2FE3D1484600F04F
:1009300059F80028DED1D1E7B40A0020074B4FF068
:10094000FF3141F6FF72C3E9001205490022C1E9F7
:1009500000221F21C3E90212704700BF400000209F
:10096000B80B00203F280CD801380B4BC0F34212C3
:1009700000F01F0053F8223023FA00F000F00100CD
:100980007047FF2806D04038044BC0F3421200F0F5
:100990001F00EFE70120704740000020B80B002047
:1009A000074B0146006849681A4603C240F48C228E
:1009B0001A6041F0107242F4FF625A60704700BF43
:1009C000400000200246024B0068516803C3704794
:1009D000B80B00200246024B0068516803C3704701
:1009E000480000200138064BC0F3421200F01F00FF
:1009F00003EB82039B6823FA00F000F001007047CC
:100A000040000020014B1860704700BFC00B002061
:100A100010B5FFF793FF0AF03AFE034B04461B683C
:100A200003B19847204610BDC00B002070B50C885C
:100A3000C27CA6B2C4F30E04931C058804F118020C
:100A40001D44825AADB21A4443882A44013AB2FB8B
:100A5000F5F202FB054292B29342044B8BBF334046
:100A6000B34313439BB20B8070BD00BF0080FFFFF8
:100A70004A1E062A08B50346084604D84FF4D17129
:100A80001520FFF79BFD094A914202D940F2A311BC
:100A9000F6E711B903B1196008BD2BB11B6800223C
:100AA000C3E901211A1D1A600430F5E7FAFFFF7F40
:100AB00010B5114B00EB41041A786389B3FBF2F3D4
:100AC00003FB0223013A1A44B2F5706F027928BF82
:100AD00000231A448378B2FBF3F0194403FB10207F
:100AE000091AB1FBF3F003FB101313446FEA4343FD
:100AF0006FEA5343638110BDC40B0020024B03EB2C
:100B000080035960704700BFC40B0020034B03EB08
:100B100080035868003818BF01207047C40B0020BC
:100B20002DE9F04F10F0070A85B0054604D040F2D9
:100B300061111720FFF742FD544F04464FF0010B9F
:100B400007F10C06B146B04657F8043B8DF80BA0F0
:100B50003BB101A898479DF80A30082B01D9E8213C
:100B6000E7E79DF80B1081BB05B13160B94506F18F
:100B70000406E9D12DB30023DFF814E102221E465A
:100B80008EF8003058F82200013A60B190F804A0C5
:100B90008178BAF1FF0F64D14FF000078E420771E0
:100BA0003CBFCEB20123511CECD10BB18EF80060DA
:100BB000022640F6FF6A58F82670002F63D1013EE6
:100BC000F9D2601B05B0BDE8F08F9DF80AC04A1D40
:100BD000BCF1020FE64604EB420438BF4FF0020EB0
:100BE00053000EF1FF300444CEF100002040BDF868
:100BF00008406444CCF1000C013C04EA0C04B4F558
:100C0000803F01D3F82194E775B1C31A336099701E
:100C10001C8083F803B09DF80C201A71019A4FEAEA
:100C2000124C1A81A3F806C004FB01049EE758F891
:100C30002C90B9F1000F06D099F804B0D34504BF49
:100C400099F802904F440CF1FF3CBCF1000FEEDA32
:100C50003944FF29A2D90BB18EF8006040F2271168
:100C600067E794460027F0E707EB410309F1010924
:100C70003846A3F80AA0FFF71BFF5FFA89F1BB789B
:100C80008B42F1D89BE74FF00009F6E7C80B002034
:100C9000C40B0020F8B54FF6FF7305460380184BD0
:100CA00003EB81031869B8B186780379B3FBF6F2D8
:100CB00006FB1233DBB219460A1D00EB4202B2F901
:100CC00002705488002F09DB0131B1FBF6F206FBFC
:100CD0001211C9B28B42EFD10020F8BDFF29FBD021
:100CE000C4F30E03C4782B8024B94FF4D5711720B8
:100CF000FFF764FC5380BDE8F84009F01EBE00BF5A
:100D0000C40B00201D4B03EB810370B51C69054625
:100D100044B3030404D54FF4DC711720FFF74EFCF5
:100D20000146204609F0ECFDFF28014604D020468C
:100D3000BDE8704009F001BEA078B5FBF0F300FB00
:100D40001353DBB219460A1D04EB4206B6F90260E2
:100D5000002E09DB0131B1FBF0F200FB1211C9B228
:100D60008B42F0D1002070BDFF29FBD08B4204EBF9
:100D700042021CBF0023E3705580D8E7C40B00205B
:100D8000094B03EB8103014610B51C69204609F0AD
:100D9000B7FDFF28014604D02046BDE8104009F009
:100DA000CCBD002010BD00BFC40B0020F8B5104B17
:100DB000074603EB810301461C69204609F0A0FDAC
:100DC000FF28054611D0E688238953EA064606D057
:100DD0000146204609F0B1FD01463846B04720469D
:100DE0002946FFF765FE0020F8BD0520FCE700BF9F
:100DF000C40B002038B50E4B0446827903EB820306
:100E0000186908B9052038BD8278E1799142F9D294
:100E10004B1CE37100EB41035D89B3F90A30002BF1
:100E2000F3DBA58009F089FD20600020EBE700BF1F
:100E3000C40B002070B5044610F003000E4603D02A
:100E40004E211820FFF7BAFBFFF712FE054624B12A
:100E5000034831460460FFF70BFE284670BD00BF13
:100E6000E00B00202DE9F14FDFF870B01E46074679
:100E70000D46DBF8003090469DF828A09DF82C9098
:100E80001BB960211820FFF799FB52460921404603
:100E900009F0B8FB4A4684B20921304609F0B2FB9A
:100EA00081B2DBF80000214409F0FFFC386018B97A
:100EB000286001B0BDE8F08F044453464146092242
:100EC0002C60386809F062FB4B46092231462868DD
:100ED00001B0BDE8F04F09F059BB00BFE00B0020A6
:100EE00070B50E46044609F0A0FB0546304609F0F1
:100EF0009CFB044B2A1821461868BDE8704009F095
:100F0000F8BC00BFE00B0020014B186809F0C1BC21
:100F1000E00B00201E4B01224FF0FF3000211B6828
:100F20005A60C3F80803C3F80015C3F80425194B29
:100F30001B685A60C3F80803C3F8001540F6FE7139
:100F4000154B1648C3F8081501680BB2002B0BDBD4
:100F500001F01F015B098A402033114941F8232029
:100F6000BFF34F8FBFF36F8F026813B2002B09DB03
:100F700001215B0902F01F02603301FA02F2084905
:100F800041F82320044B40F6FE72C3F80825704751
:100F9000D4170020D017002000200850E8170020A8
:100FA00000E100E00A4606481E2302F8033BC3683E
:100FB000C1F803300369536043699360704700BF11
:100FC000E80B0020024B5A8C02435A845B6A184794
:100FD000E80B0020014B00215B6A1847E80B00205A
:100FE00010B5154C06F078F905F06AFD208DFFF775
:100FF000F1FF237E63B12246104904F1190052F833
:101000000C3BE36063685360A36893600BF09BF94B
:101010000B4B228D93E8030004F000FB236B188830
:1010200004F026FAA36B94F8341094F8350098472E
:10103000002384F83C3010BDE80B0020A50F000011
:10104000140C0020034B93F83C300BB1FFF7C8BFE2
:10105000704700BFE80B002008B5094B93F83C200F
:10106000022A04D040F231212720FFF7A7FADA7ACA
:1010700042F00102DA72BDE80840FFF7B1BF00BFDD
:10108000E80B002003280B4B10B5044605D11A6C61
:10109000D278022A01D1002010BD586C09F044FB1F
:1010A0000028F9D1032CF6D003F008F980F00100F4
:1010B000C0B2F1E7E80B002037B5634C0023256B85
:1010C0008DF8053095F88C2094F848300AB1043337
:1010D000DBB295F8681028B9FF2B03D195F8693079
:1010E0008B4202D0FF2005F0B9FF95F88230032B28
:1010F00000F29E80DFE803F00232819494F84930D8
:101100005248ADF80630A5F8583003F0B1F850B1A8
:10111000216C4FF48070FFF755FF012385F87D3077
:1011200084F84A301CE00DF105020DF10601606CF7
:1011300009F0A2FA206488B195F8C73073B99DF818
:1011400005302BB9038001218370206C0BF0B0F8BF
:10115000236CBDF806205A700123E1E73C4B236461
:10116000216C95F883300878DB0003F0080200F06A
:10117000F30300F00300134395F88420920002F07B
:101180000402134323F010030B70FFF77BFF0028CA
:10119000206C14BF1023002302781343037095F8CA
:1011A0008B30002B47D04378002B44D0206F06F0C3
:1011B0004BF90123216F84F89830206CD5E938234E
:1011C000C4E92223002206F009FB18B9216C206F24
:1011D00005F08EFB95F86910012006F0B5F9226C38
:1011E0000123118884F8A030A4F8A1109178194A3D
:1011F00084F83C30917003B030BDB5F858300DF133
:1012000005020DF10601606CADF8063009F034FA04
:1012100020640028A0D140F2D1212720FFF7CEF989
:101220000A4803F025F8002896D140F2DB21F4E7C4
:1012300040F2E921F1E706F007F905F041FC002151
:10124000206C0BF0BCFCC5E7E80B0020280C00204C
:10125000330C0020890C002010B50A4CD4F8A430BF
:1012600023B940F2CE412720FFF7A8F9B4F8A8200F
:101270001846D4F8AC10033208F018FEC4F8AC00DD
:1012800010BD00BFE80B00202DE9F0434D4C85B0A8
:1012900006460F4694F83C30012B04D040F2DC4166
:1012A0002720FFF78BF9256B02A8216C09F0BEFB04
:1012B00095F87C309DF808802BB10021042085F83A
:1012C0007C10FFF77FFEB8F1030F74D195F88230E0
:1012D0001BB9216C0220FFF775FE032300E00123F8
:1012E00085F8823095F88C30B3B1236B4FF000084D
:1012F00094F8489084F89880D5E93A01C4E922012D
:1013000093F8690009F0A3FB4A4603462E490220E0
:10131000CDF8008005F096FA002E3DD1002F3BD08D
:10132000D4F8B03030469847B0B394F834309BBB13
:10133000D4F8B430256BC4F8AC3095F88C3094F800
:10134000480073BBFF2895F8691003D195F8683001
:101350008B4201D005F082FE95F88C3023B3206FCC
:1013600006F072F80023216F84F89830D4F8AC00AE
:10137000D5E93A23C4E9222305F0BAFA002006F0A1
:1013800099F895F86810002006F0DEF8022384F83A
:101390003C3005B0BDE8F08305B0BDE8F043FFF791
:1013A0001FBE0430C0B2CDE7D4F8AC0006F04CF854
:1013B00005F086FBE2E79DF80C30002B8FD002236E
:1013C0008EE700BFE80B0020600C0020064B10B534
:1013D00093F83C2002F0FF0422B91C7604F016F9C1
:1013E000204610BD0C24FBE7E80B00200B4B0C4AF9
:1013F00070B506460D461A60FFF7E8FF18B1ED21FB
:101400002720FFF7DBF8074C012104F14B000AF01D
:101410004FFFC4F8B460256770BD00BF9000002086
:10142000481A0000E80B0020024B012283F8B82084
:10143000704700BFE80B0020F0B585B06B4C02ADE3
:101440000A9F85E8030094F83C1001F0FF0611B9EB
:101450000AB103B127B94FF4BE712720FFF7AEF8E8
:1014600095E8030004F12C0C6262C4F8B030A76365
:1014700084F8B86084F8346084F8B96084F8356022
:1014800084F8A06084F84A60668426858CE80300AE
:10149000256B05F015FE05F013FB95F9700005F5B9
:1014A000807705F067FE686A05F0C0FFE86905F01F
:1014B00067FE95F89C0005F06DFE95F868204C4B92
:1014C000304604F1780653F822104FF47A7301F590
:1014D000FA71B1FBF3F16E3105F0EAFE454B186885
:1014E00005F0AAFF2B6963646B69C4F8BC3005F191
:1014F000F0031868083353F8041C3246BB4203C299
:101500001646F6D159683C4A236BD5F8000193F88A
:10151000686003C293F88620253A012A03D993F81C
:101520008720252A5DD193F8E2312BB1012E03D01B
:10153000012B0CBF0126022605F130073146384643
:101540000AF03EFF31460AF06CFDAB8F95F869104A
:10155000834228BF0346384684F849300AF020FF0A
:1015600095F8691095F88C700429B5F8446008BFA7
:1015700003210AF056FD0FB9043080B2B04295F84D
:101580008B3028BF3046C0B284F8C00084F84800D1
:1015900093B1012395F8680084F89830D5E9382391
:1015A000C4E9222309F053FA0022034613490092AA
:1015B0000420FB2205F046F90120FFF77DFD002302
:1015C00023606360A360B5F8803063802B8823803C
:1015D00095F89C302371EB6E0BB101221A6005B0B7
:1015E000F0BD032E08BF0426A6E700BFE80B0020CD
:1015F00090AC020090000020780C0020600C0020CD
:1016000008B5094B93F83C201AB9BDE80840FFF72C
:10161000E7BC93F83C30012B04D040F20F21272087
:10162000FEF7CCFF08BD00BFE80B0020014B187689
:10163000704700BFE80B00202DE9FF41334C034603
:101640000E4602A8D4F8AC10256B09F0EFF913F0A0
:1016500001089DF80C7003F002002BD0002384F8E1
:10166000C13090B1FFF7F8FD0DF1020201A9D4F8E5
:10167000BC0009F004F9019809F0E7F80122306094
:101680003946D4F8BC0009F08FF8B8F1000F0ED03D
:10169000D5E93A32013342F10002C5E93A3295F810
:1016A0008430012B0CBF0023012385F8843004B063
:1016B000BDE8F08194F8C130032B21D801A252F883
:1016C00023F000BF63160000D5160000EF160000DF
:1016D000EF1600000028EAD0FFF7BEFD00223946D1
:1016E000D4F8BC0004B0BDE8F04109F05DB80028B2
:1016F000DDD0D4F8BC0004B0BDE8F04109F0BBB8BF
:1017000040F27A412720FEF759FF00BFE80B002086
:101710002DE9F04F0023A54C87B080468946276B02
:10172000CDE9023394F83C30022B04D040F25F51F3
:101730002720FEF743FF238D590606D44020FFF7EC
:1017400049FC238D43F040032385D4F8AC1004A852
:1017500009F06CF997F88C30B8F1000F00F0C080F8
:101760009DF811B09DF814507BB105F0B7F960B940
:101770005DB197F884305B4507D1012384F835309B
:10178000FFF72EFC07B0BDE8F08FA9B2A4F8A810AF
:10179000E9B1D4F8BC0008F0E8FFC4F8A400238D38
:1017A0009DF8122043F40073238597F883309A4202
:1017B0006DD0266B96F88230ABB3022B11D102A903
:1017C000606C08F07BFF28B940F21441B0E7C4F820
:1017D000A410E4E7D6E93832013342F10002C6E949
:1017E00038324FF0000A96F87D3086F882A093B127
:1017F00086F87DA002F04CFD10B940F22B4197E72E
:1018000051460820FFF7DEFBD6E93832013342F1BA
:101810000002C6E9383296F88330012B0CBF002352
:10182000012386F88330238D4FF0000A43F40063D0
:10183000238597F884305B4527D19DF81030266BBF
:10184000022B26D893B38DB3238D96F88C6043F486
:101850008053238505F0B8FB042894F8C03006D1E6
:10186000002E14BF1B221F22934228BF1346AB42F7
:101870002CD3D4F8A450002D40D094F8B830002BCD
:1018800000F091802020FFF7A5FB002536E0C2463E
:10189000CFE7032B0AD1238D0120D4F8AC1043F4F9
:1018A000805386F87C002385FFF78CFB96F8843004
:1018B000013B18BF012386F88430FDB1D6E93A32E6
:1018C000013342F10002C6E93A32DEE794F83430DF
:1018D000012043F0100384F8343006F073FED4E79F
:1018E0000BB105F00FF994F8B93000250133AA4681
:1018F00084F8B930238D43F48063238597F88B30C7
:1019000093B1012397F8680084F89830D7E9382319
:10191000C4E9222309F09BF80022034624490092DF
:101920000420FB2204F08EFFB9F1000F44D005F033
:101930002BFE002D7DD10125BAF1000F04D0B4F8A3
:1019400009300133A4F80930B8F1000F76D0B4F8AB
:1019500005300133A4F80530002384F8B930154868
:1019600003F074FD029830B108F06FFF216B002284
:10197000027203F0E3F9039B33B1216B00221A7268
:101980000C22039803F0A8F9002D7FF4F9AE238D03
:101990001B063FF5F7AE8020FFF71CFB238D43F0BD
:1019A00080032385EEE64546A8E700BFE80B00204C
:1019B000600C0020140C002094F8B930012BB6D82C
:1019C000D4F8B030012098470028B0D094F83430D3
:1019D000002BACD194F8A130DA06C3F3001005D582
:1019E000236C187800F00300FFF74CFBD4F8B430F8
:1019F000D4F8A4201B78C3F300132AB9B4F8A820A4
:101A000013B1B2FA82F35B09628C002A8FD10343CF
:101A10008DD01DB103A90120FFF70EFE0020FFF7B6
:101A20004BFB002D88D003A902200025FFF704FE00
:101A300082E703A90320FFF7FFFD7DE7B4F8073035
:101A40000133A4F807308AE759100000111700008D
:101A50008912000045100000024B00221B6883F829
:101A600070207047AC0C002008B502F0D7FE014B87
:101A7000187008BD50000020024B18686C3001F04F
:101A800055B800BFAC0C002038B50F4CFFF7F4FF81
:101A9000656801F021F863682860186820B940F291
:101AA000EC413220FEF78AFD09F0C7F910B940F287
:101AB000EE41F6E705F0C8FC002005F0FBFC63688A
:101AC00004221A7138BD00BFAC0C002070B52B4C3D
:101AD00006466368186809F0B0F9054620B941F276
:101AE000A8313220FEF76AFD236893F8543013B909
:101AF00041F2AE31F5E776B10AF0B4FB30B163687C
:101B00001A79022A0ED841F22E31EAE728460AF065
:101B1000C1FB0028F3D163681A79022A17D841F271
:101B20008E31DEE71A79082A02D941F22F31D8E73F
:101B30001B792846A26803F180431269033B52F8DF
:101B4000233098470C2812D941F2C131C9E71A79DC
:101B5000082A02D941F28F31C3E71B79A26803F149
:101B600080435269033B52F823309847EAE7A36861
:101B7000DB68BDE8704053F820301847AC0C0020FB
:101B800008B5074B93F900207F2A04D140F2923127
:101B90003220FEF713FD02707F221A7008BD00BFCD
:101BA0005000002010B504788EB004F00F0404A992
:101BB000224609F063F9FFF757FF042C33D11B4C81
:101BC000059A2368107893F8741088422BD15078C6
:101BD00093F87510884226D1907893F87610884251
:101BE00021D1D07893F8771088421CD1107993F8DE
:101BF0007810884217D1517993F87920914212D107
:101C00009DF8212093F87A309A420CD10DF10F0003
:101C1000FFF7B6FF9DF90F3004A90093237C227BC8
:101C2000606809F01CF903200EB010BDAC0C002058
:101C30000D4A536810B51979022904D84FF4A551FB
:101C40003220FEF7BBFC1979082902D941F2A141E3
:101C5000F6E71B79926803F180439268033BBDE885
:101C6000104052F823301847AC0C002010B5054C3A
:101C7000637B2BB105F04EFC04F060FD0023637321
:101C800010BD00BFAC0C002010B5064CFFF7EEFFF6
:101C9000012263681A71FFF7EFFE2068BDE810406B
:101CA00009F05BBBAC0C002010B500B919B9BDE858
:101CB0001040FFF7E9BF0D4A53681979082904D885
:101CC00041F270413220FEF779FC19790C2902D9D2
:101CD00041F27141F6E71B79926803F18043526843
:101CE000093BBDE8104052F823301847AC0C0020E7
:101CF00038B52F4CFFF7C0FE656800F0EDFE636855
:101D00002860186820B940F249413220FEF756FC9D
:101D100009F093F8054610B940F24B41F5E7236806
:101D200093F889306BB123681A6D93F88A10C3F861
:101D3000F02093F854200A4383F85420002283F8BB
:101D4000892063681A795AB11B79012B08D00021C8
:101D5000206809F0EFF918B9BDE83840FFF794BFE3
:101D60002368144A93F88830D05C05F013FA0121F7
:101D7000252005F073F9284605F066FB0121084689
:101D800005F034FAE81C02F023FC607320B104F083
:101D9000A9FC402005F0B2FB002362680821E37330
:101DA000A3732374D380032321735171137138BD3E
:101DB000AC0C00209CAC020070B53A4C0546636840
:101DC0001B79012B04D940F6F3013220FEF7F6FB14
:101DD00005F076F905F09EFB04F0B0FC324805F002
:101DE0002BFB324805F022FB314805F0C9F96B7A2C
:101DF00023B123681B6E0BB101221A602B7A032BCF
:101E000002D140F62211E0E72068B3B9032190F82F
:101E1000882090F84A500E460132B2FBF6F303EBED
:101E20004303D31ADAB245FA03F3DB0703D40139CB
:101E300011F0FF01F0D180F8882090F9580005F0EA
:101E400099F9FFF755FF256895F8483013B36FF0FF
:101E50000043D5E920129A4208BFB1F1FF3F19D0E3
:101E60000AF039FFD5E92023904271EB030311D327
:101E7000236893F8483073B9256802F08BFB044659
:101E80000AF029FF0B4BA4FB03341B1844EB01049D
:101E9000C5E9203470BD012002F0ACFB0028F9D068
:101EA000EAE700BFAC0C0020940000205555550017
:101EB000D6BE898E40420F002DE9F8435F4D0023C6
:101EC000064689466869D5F800800370437005F0BE
:101ED000D5FA074628B9032002F01EFF3846BDE8B0
:101EE000F883032E6C6945D1237823F00F0343F068
:101EF000030323700C236370D8F874306869C0F84A
:101F00000930B8F87830A0F80D3098F87A100AF057
:101F10009FF9002168690AF052FE2B6893F8482067
:101F200003F1420493F8418082B193F854205207A0
:101F300073D593F84C20002A6FD093F84D0002F02F
:101F4000C7FB00281CBF04464FF001082368414628
:101F50006869C0F80330A388A0F807300AF06BF96D
:101F6000374BD3F80C32002B5AD040F23461322078
:101F7000FEF724FB052EBFD123782222286840F2E9
:101F8000E24C23F02F03627043EA491141F005014E
:101F90002170036DDB69C4F80F30036D5A6AE27477
:101FA000110A120C217562759A8DB2FBFCF2A275B2
:101FB000996AB1FBFCF1E175C1F3072121769A69B9
:101FC000B2FBFCF26276C2F30722A2761A8CE276AA
:101FD000120A22775A8C6277120AA277D3F88F20DE
:101FE000C4F81F2093F8933084F82330036D93F8DE
:101FF0009A3094F8242003F01F0322F01F021343A9
:1020000084F8243002F0A6F894F8243003F01F037B
:1020100043EA401384F824306EE76B6858798EE702
:10202000052E7FF45BAF2B6821681A6DC2F80A1089
:10203000A188D1811B6D83F809804FE7AC0C00208B
:1020400000A0085010B500210320FFF735FF18B994
:10205000BDE81040FFF718BE074C0321206809F0C7
:1020600069F80028F4D00121084605F06DFA63688C
:1020700009221A7110BD00BFAC0C002038B5184DF4
:102080006B68186808F0D9FE044620B94FF4AB61BC
:102090003220FEF793FA6B680A22002128681A7131
:1020A00000F024FF2B6805201A6D237892F88E40EB
:1020B00004EA531404F001042146FFF7FDFE18B9A9
:1020C000BDE83840FFF7E0BD0421286809F032F888
:1020D0000028F5D02B681B6D83F88E4038BD00BFFB
:1020E000AC0C00202DE9F04F774C95B00546FFF77A
:1020F000BBFC236893F8543013F0060F04D0012280
:10210000962100200AF04FFD2E7828460AA906F0F5
:102110000F06324608F0B2FE0B9D4DB39DF83920F4
:10212000012A51D16B7903F0C003A3F140014B4266
:102130004B41627B4AB143B1656809F015FF6368A2
:1021400068715B7923730123A37363685879082846
:102150003CD10B999DF839000AF0ECFB626805460A
:102160000B9905329DF8390002F0F8F900283FD0AC
:10217000216891F8543013F0030207D0062E91F82D
:102180004B2043D8002A0CBF2A460122606802F087
:10219000010213F00403827107D0062E91F84C302F
:1021A00036D8002B0CBF2B46012303F00103C3716B
:1021B0000B9BFBB19DF8392081F87A201A684A6799
:1021C0009B88A1F8783015E00023B2E708AA0DF14A
:1021D0001F0102F0E5F920B94FF43A613220FEF711
:1021E000EDF908A99DF81F000AF0A4FB0546BFE71A
:1021F0006368D880062E00F2CC80DFE816F0670016
:10220000EA000B00CA00CA00CA002A000022BDE78B
:102210000023CAE705F060F8266896F854309A075C
:1022200001D1032533E06568AB79002BF9D008A80C
:10223000FFF7A6FC9DF9203002220AA90293284646
:10224000237B0193FF23009306F1420308F0F7FD7F
:10225000E7E76568AB79002B00F09B80266896F86D
:102260005420930719D508A8FFF78AFC9DF9203060
:102270002846062202930AA9237B09250193FF23FE
:10228000009306F1420308F0DAFD00232374FFF700
:10229000EDFC284615B0BDE8F08FD70779D5560775
:1022A00001D505F019F808A8FFF76AFC9DF9202070
:1022B00023680292227B42330192FF22009206227F
:1022C0000AA96068C2E700BFAC0C0020236893F83D
:1022D0005420550738D56168CA79002A34D00B9A42
:1022E00093F85A001578854256D1557893F85B00DB
:1022F000854251D1957893F85C0085424CD1D578D0
:1023000093F85D00854247D1157993F85E008542C8
:1023100042D1507993F85F2090423DD19DF8392009
:1023200093F85900101A4242424193F8560001288E
:102330004DD0002A4BD193F84D30082B02D04A796A
:102340009A4244D004F0C8FF6568AB79002B3CD0BA
:10235000266896F85420930720D508A8FFF710FCAC
:102360009DF920302846002202930AA9237B0925E3
:102370000193FF23009306F1420308F060FD01235F
:1023800023746368DA79002A81D19B79002B7FF46A
:102390007EAF04F0A1FF44E70022C6E7D70714D5BB
:1023A000560701D504F098FF08A8FFF7E9FB9DF94F
:1023B000202023680AA90292227B4233606801929E
:1023C000FF220092002208F03AFD0325D9E70A25F2
:1023D000D7E7616822688B799DF83A000593012858
:1023E00092F8483091F807B083F0010A40F0AA80D3
:1023F0000C98477907F0C007A7F140056F426F417D
:1024000092F85400400740F19F8092F84C00002859
:1024100000F09A8092F84D50082D00F097802846E1
:1024200002F07AF8002818BF8246002F00F0908052
:102430000C99284602F012F90646216891F84100ED
:10244000002E00F0878040F0020991F854205307D5
:1024500052D50B9A91F85A5092F800C0AC457BD1F6
:1024600092F801C091F85B50AC4575D192F802C06A
:1024700091F85C50AC456FD192F803C091F85D5073
:10248000AC4569D192F804C091F85E50AC4563D177
:10249000557991F85F2095425ED19DF8395091F8B9
:1024A0005920A5EB020CDCF1000545EB0C05626838
:1024B0005279082A52D091F84D80A8EB0202D2F14D
:1024C000000848EB0208002E4BD1BAF1000F4AD0A9
:1024D0000C9B42319DF83A2009F011FDBBF1000F31
:1024E00008D0236893F85630012B54D013B955EA1D
:1024F000080350D104F0F0FE236893F854309B0792
:102500003FF48FAE04F0E8FE059B002B3FF489AE4C
:1025100020680C9B00F142019DF83A2090F84100A0
:1025200009F0EDFC08B92568FEB108A8FFF728FB03
:102530009DF92020236802924233227BCDE900924C
:102540000122BDE600275BE74D7965E7002674E7C9
:102550003E4672E7814678E70025A8E74FF000087D
:10256000B1E70120BAE73046B8E795F85520023ABE
:10257000012A3FF656AE002F3FF453AE08A8FFF7EE
:10258000FFFA9DF920300293237B0193FE230093F1
:1025900005F14203D4E70028ACD00A2577E600BF56
:1025A00013B53E4CFFF762FB002240F2E240236885
:1025B0005A721A6D118859819169B1FBF0F1198431
:1025C000118C528C598469469A844FF47F42606919
:1025D000DA844FF6FF721A8509F026FE216891F819
:1025E000483001F11402E3B163691B785B0618D52A
:1025F0009DF8053003F0C003402B12D10098BDF8C0
:1026000004304861938001F10E02207B082837D006
:102610000D3101F0C5FF38B941F2F7313220FDF735
:10262000CDFF00234B61EDE723685A7B42F00202A5
:102630005A735A6FC3F81A20B3F87820DA832368E4
:1026400093F95810186D02F0CDF82068144909F07C
:1026500071FE20681349036D2A301A88A0F80920FA
:1026600093F88E30C37209F06EFE0221206800F0EC
:102670003DFCFFF701FA02B0BDE81040FFF7ECB9EE
:1026800091F87A304B734B6FC1F80E30B1F8783057
:1026900093800023C1F81A30CB83D0E7AC0C002024
:1026A000D1AA00006FAA0000036D10B5044623B93B
:1026B0004FF456713220FDF781FF02220749427222
:1026C0001B884381FF2380F827304FF6FF73038573
:1026D00009F030FE0023236510BD00BFD1AA000021
:1026E000F8B5174F0E46012178610020FEF70AFB6E
:1026F000054620B940F67C013220FDF75FFFF82245
:1027000000210AF033FC01210846FEF7FBFA0446DB
:1027100018B1F82200210AF029FCBB6813B940F671
:102720008601E9E7304608F087FA284608F0C9FC38
:1027300024B12046BDE8F84008F0C3BCF8BD00BF96
:10274000AC0C0020014B024A9A607047AC0C002090
:10275000F8000020036810B523B940F66711322055
:10276000FDF72CFF044A13606C3353609368BDE897
:1027700010401B68184700BFAC0C002038B590F81B
:102780004030044613F0FD0F04F1420114BF012054
:10279000002084F8410001F0B7FD94F84030023B7E
:1027A000DBB2012B94BF0123002384F8483018D8F2
:1027B00001F0F0FE05460AF08EFA0A4BA5FB033540
:1027C0001B1845EB0105C4E9203594F8483043B1A6
:1027D000002001F00FFF20B940F60F213220FDF755
:1027E000EDFE38BD40420F000149363009F0A5BD6D
:1027F00091AA000008B508F00EF9054AD2E84F3F4B
:102800000133DBB2C2E8413F0029F7D108BD00BF68
:10281000C40C00202DE9F84F0D461E460021464B02
:102820009346046801601A789DF828709DF82C8002
:102830009DF930909DF834A032B9A4F10801586890
:10284000BDE8F84FFFF7D6BF1A2204F109000AF0DD
:102850008DFB0123A372BBF1060F3DD8DFE80BF01F
:102860000421273C313C2B00E37A23F0130343F08F
:102870001303E3720123B8F1080F04F10E0284F888
:10288000189023754FF0FF03A3754FF07F03E37596
:1028900045D004F10D01404601F082FE08BBC12184
:1028A0001CE0E37A23F0150343F01503E1E7E37A34
:1028B00043F01003DDE7E37A23F0120343F0120341
:1028C000D7E7E27A4AF01A0A22F01B020AF01B0A42
:1028D00042EA0A02E272CDE740F22B413320FDF7D3
:1028E0006DFE637B43F002036373E37A5B071FD5DE
:1028F000BA1E04F11C03012A8BBFAA683268116852
:10290000E2618ABFE161B28892889A80E77600230B
:1029100023720A492046BDE8F84F09F00EBD6B7CD2
:1029200063736B681968C4F80E109B889380DCE7AA
:10293000FF23E376EBE700BFC40C00204129000031
:102940002DE9F04305468DB00C4600200121FEF72D
:1029500017FA064620B940F2C7113320FDF72EFEC4
:102960009030A5F108084D4F08F0ADFB18B196F86E
:102970005430042B19D1304608F053F90646A0B95B
:1029800041467868FFF736FF8DF804600223002087
:102990008DF805309DF8043063F307009DF805308D
:1029A00063F30F200DB0BDE8F08302A905F1230009
:1029B00008F094FAEE7A04F10D0316F0100607D031
:1029C0009DF8186018460599324607F06FFA0346DD
:1029D000E97AC80601D45B21BFE74907AA7A95F8CE
:1029E0000DE004F1060005F10E0C2AD595F81B90B8
:1029F000B9F1FE0F25D11121E27084F805E02170B4
:102A000011010122023122716170D5F80E20C4F843
:102A10000620BCF80420828084F80C90EA69C4F88F
:102A20000D202A8C9A802B7EE37441467868FFF74C
:102A3000E1FE23796FF34613237104238DF80430EC
:102A4000A4E706F10A030321E27053432170023325
:102A500084F805E06370D5F80E30C4F80630BCF891
:102A600004308380267326442B7E7373EA7A12F037
:102A7000080002D004232371D7E702F00303032BDD
:102A800001D12071D1E7520701D50123F3E7022BD1
:102A9000F1D00BB92171C8E7A2215EE7C40C002078
:102AA000233270B5054692B20C461E4607F07BFFF6
:102AB00025B1034A556014725672147070BD00BF80
:102AC000C40C002010B5034C606807F08EFF237A19
:102AD000237010BDC40C002038B5134D686807F092
:102AE0008AFF044620B940F247113320FDF766FD06
:102AF000D5E84F3F013BDBB2C5E8413F0029F7D1A4
:102B000004F10805232228460AF030FA7F23012227
:102B10002846E377FF23A377637584F82330E37CAB
:102B200062F34613E37438BDC40C0020016810B58D
:102B3000044631B1034B08395868FFF75BFE0023A8
:102B4000236010BDC40C00202DE9F04F04468FB067
:102B50001F468946BDF8608006920AF0BCF8D4F89A
:102B6000B430039020460493059108F0CBF9069BFE
:102B70008346002F00F05081002B00F0C0800746F4
:102B8000039B13F5FA65059B43F1000602F0E2FD95
:102B9000824604F1C8005146079002F0B1FDD4F816
:102BA000F01011B1079808F000FBBBF1000F18D02E
:102BB000D4F8D0B0BAF1000F16D0DAF808005A46AF
:102BC000DAE90031CDE90056C01841F1000109F001
:102BD000BBFE8345824607D240F266312120FDF7D5
:102BE000EDFCD4F8B0B0E5E7D4F8B0301AEB050549
:102BF00003F2CF7046F100068244BAFBF3FA03FBFE
:102C00000AFAB5EB0A0366F10002C4E93232B8F100
:102C1000000F6BD14FF0FF326FF00043C4E9242363
:102C200001204FF47A7804F0D3FD00F52240B13052
:102C3000D4E92413B0FBF8F007934B1B079A00F577
:102C4000017862EB0600012B70F100024FF00002E8
:102C5000C0F2DB80DDF810C09C45824100DB0493AC
:102C6000DDF810A0D4F8B400069B824528BF824648
:102C7000C4F8BCA02BB1D4E93223C4E92656C4E978
:102C80002A234FF0000BC4F8B8802A46334620466A
:102C90000491C4E9285689F809B008F03CF9C9F84C
:102CA000048089F80800002F00F0B1800123059A04
:102CB00089F80030DDE90331C81A079B63EB020392
:102CC000012873F1000206DB654981427BEB0303B7
:102CD000ACBF83468B46ABEB0801C9F81010C24568
:102CE00034BF002001200FB0BDE8F08F42F2107316
:102CF00029463246E8FB0312C4E9241290E7002873
:102D000000F08D806FF00043D4E924129A4208BF8E
:102D1000B1F1FF3F75D001204FF47A7504F058FDF2
:102D2000069B00F522408DF82030B130039BB0FBAC
:102D3000F5F013F1AB02059B00F5017508A843F10E
:102D400000030995CDE90C230223ADF8283006F0E5
:102D500061FA074610B940F292413FE7D4E92432C4
:102D60000C99059E5B1A0D9962EB01025B1B049B9B
:102D700062F10002039D002AB8BF002304934FE7CD
:102D800001208DF820B004F023FD00F522404FF41F
:102D90007A73D4F8A010B130D4F8B0508DF829B0BF
:102DA000B0FBF3F000F501700990D4E932030A1A80
:102DB000B2FBF5F26A431218204643F10003CDE955
:102DC0000C2308F0A8F829468DF8280008A809F077
:102DD000F7F8DDE90C5640E0D4E9262320460791B8
:102DE00008F081F800FB08F807992A4618EB0A005A
:102DF000334641F10001C4E93201204608F073F87E
:102E00000EE70746039D059E0AE7049228E789F826
:102E10000070C9E9045662E7002B7FF4B1AE039B52
:102E20004FF0000BD4F8B080D4E932A1A3EB0A052F
:102E30001AEB0803B5FBF8F508FB05F541F10006B0
:102E4000ED1846F10006002FC6D0039BEB1AAA2B03
:102E500096D818EB050546F100065F46E0E600BF90
:102E60000040420F70B504460D4690F8F43003F070
:102E7000FF0623B140F29A212120FDF79FFB11B9F3
:102E800040F29B21F8E701460C4806F085F920281E
:102E900084F8F70010D0C4F8F05095F8C83103F06A
:102EA000FF0113B14FF42971E6E784F8F6102046CC
:102EB00008F020FA012070BD3046FCE715B2000092
:102EC00038B504460D460146074806F065F9202846
:102ED00084F8F70005D02046294608F00BFA0120B7
:102EE00038BD0020FCE700BF15B2000001292DE924
:102EF000F341044604D902294DD040F6030120E0F5
:102F0000D0E9266740F2396504F064F8D4F8F0801F
:102F1000751947F100062D18D8F8187046F100060B
:102F200002F012FC04F1C80383420DD03A46CDE909
:102F30000056D8E9680109F007FD874205D240F242
:102F40007A312120FDF73AFB0020254B1A68D4F88E
:102F5000F030824297BF40F2E2419A69B0FBF1F251
:102F600001FB120288BF801841F6690198BF821ADE
:102F70009A6241F66A029A859A6A821A8A4202D94C
:102F800040F29571DDE7401946F10006C3E9680695
:102F900002B0BDE8F081D0F8F03013B94FF4F4611D
:102FA000CFE7002540F2011283F8C851A3F868204A
:102FB000FF2683F86A60D0F8F0002946303001F02F
:102FC000DBFED4F8F00008F017FAC4F8F05084F8EB
:102FD000F66004F0D7F902B0BDE8F04105F0F4BFA7
:102FE000D00C0020F7B501231F4E00273370CDE928
:102FF00000776846FDF7FEFE0546E8B10023337012
:1030000003B0F0BD90F8C90106F05AFA94F8C9016E
:1030100006F048FC94F8C90184F8C85106F0E2F8BB
:1030200010B94FF4DE711BE0202304F5D07084F852
:10303000C93102F049FBDAE7009B002BD9D093F8A5
:10304000C821002AD5D018884FF6FF739842D5D0F2
:103050002946FDF795FE04460028D3D140F2CD1154
:103060003520FDF7ABFA00BFD40C002038B50C4B6F
:10307000054690F8682090F8690053F8224004F063
:10308000A7FB4FF47A71002204F5856404442846B6
:10309000B4FBF1F1BDE83840F03109F0DCB900BF14
:1030A000A0AC02002DE9F84305460C46164691F8FF
:1030B00086801F4623B100220121204603F074FAC6
:1030C00094F8C831032B3DD8DFE803F002393339D7
:1030D00026B940F242213520FDF770FA01234FF066
:1030E0000009204684F8C831FFF7C0FF2046D4E924
:1030F000683219EB030342F10002C4E96832C5E902
:10310000043200232B7094F886600B3EF3B21A2B26
:1031100097BF304E0126DE40F64398BF06F0010609
:1031200086F0010609F0F7FC00B176B100232B729E
:1031300011E00323D4F8D09184F8C831D6E7D4F84D
:103140001890D3E74FF41F71C5E794F8C831012BED
:10315000DAB22AD12A72002304F130006B7209F02E
:103160001DF968609FB3A8F10D08B8F1010F2ED9C1
:103170004946284608F024FF1FFA80F8204609F047
:10318000CAFC0746D6B9804518D309FB00F22E7257
:10319000D4E968319B1841F10001C5E90431B9F166
:1031A000000F04D140F2CB2195E70223BFE7494647
:1031B000284608F005FF38441FFA80F801224146EE
:1031C000204603F0F1F9D5E90423C4E96823BDE8FA
:1031D000F88300BF050000042DE9B841044620B97A
:1031E00040F201113520FDF7E9F907295BD8DFE846
:1031F00001F00443433F5A49505790F8C83113B97E
:1032000040F20911EEE703F00FF900284ED0DFF885
:10321000A080A56998F801301BB9236B9D4228BF97
:103220001D4604F1300009F0B9F800F12907022029
:10323000ED1B06F093FA022125EAE575854228BFC9
:103240000546284606F0D0FA00B92F440023AC22E8
:103250003946204609F0F2F8C8F80400A06906F0E3
:103260004FFA08B9FB21BDE7BDE8B84109F015BC2C
:10327000BDE8B84104F090B901220021BDE8B84191
:1032800008F08EB8012005F09DF9BDE8B84107F0BF
:10329000ECBB90F8C831042B08D040F22F11A1E705
:1032A0004FF49A719EE74FF49C719BE7BDE8B8819B
:1032B000D40C0020024B0022C3E90022FFF792BE8B
:1032C000D40C0020014B5870704700BFD40C002074
:1032D00038B5044620B940F29F113520FDF76EF94C
:1032E00090F8C83103F0FF0513B14FF4D071F4E743
:1032F00090F8C931202B02D040F2A111EDE7014630
:10330000044805F049FF202884F8C90114BF284665
:103310000D2038BDD931000008B503F05BFE054B28
:103320005A6882422ABF1878002080F0010000F01D
:10333000010008BDD40C002010B50446042937D87C
:10334000DFE801F00315111932001C4B1B7803F064
:10335000FF0243B9012108F023F804F013F8BDE897
:10336000104005F031BE042384F8C831F5E703238B
:1033700084F8C83110BD8369C0F8D031D0E97A2310
:103380008262B0F8E62183618285D0F8F021026282
:1033900041F64B5293428CBF0023012380F87230D8
:1033A000FFF764FE0223E3E7BDE81040FFF75EBECF
:1033B0004FF45D713520FDF701F900BFD40C0020FA
:1033C00010B5044608F040F808B9002010BDE043ED
:1033D00008F03AF80028F8D0E31683EAA4635A1EEE
:1033E0001A42F2D0204609F07BF81828EDD8A3B293
:1033F000B3EB144F04D184EA142313F0FF1FE4D07D
:10340000034B63405A1E1A4214BF01200020DDE71F
:10341000D6BE898EF0B5070C164BA7F5AA4203EA73
:103420009023543A012A20D927F4004042F6AA22D8
:10343000801A18BF0120002216211F24164687EA91
:10344000060562EA0505013511D0DD0301394FEAB1
:103450005303ADB245EA56064FEAC4354FEA540469
:10346000ADB245EA5202EAD1F0BD0020E3E7002008
:10347000FAE700BFE0FF3F0010B50446084807F038
:10348000C3FC0849204607F024FE204607F010FC44
:1034900020B12046FFF772F9002010BD1220FCE792
:1034A000E40C0020EC0C00202DE9FF4106780746D3
:1034B000012E40F0878031460020FDF761FC054673
:1034C00020B940F68F613920FDF778F8BB88002BD2
:1034D00072D107F0A6FB002870D195F8F430002BCC
:1034E0006ED12846FFF7C8FF0446002860D1DFF8F8
:1034F000408131463046FDF743FC98F81C300646C3
:103500001BB110B940F6AB61DDE7D8F81820039283
:10351000002B45D096F8F430002B41D07B88002B4F
:103520003ED198F808303046D8F81420009303AB09
:1035300098F80A1007F034FC90B3304607F0F3FD1A
:1035400006F14003074605F14002643653F8041BB8
:10355000B34242F8041BF9D12846FFF78DFF02461B
:1035600010B140F6CD61AEE70C2F07D101462846D9
:10357000FFF7A6FCE0B940F6D161A4E717B140F629
:10358000D661A0E798F809302846296D43F0040376
:1035900085F85430FFF766FC50B940F6D86192E7E1
:1035A000BA8828467988FFF78BFC002808BF0724D3
:1035B000204604B0BDE8F0811124F9E73A24F7E78A
:1035C0000C24F5E701210020FDF7DAFB054610B9D0
:1035D00040F6EB6177E707F020FD04460028E7D1CD
:1035E00095F8543095F8892022B195F88A20134334
:1035F00085F88900053B012BDAD82B6D13B940F60D
:10360000FB6160E701210846FDF7BAFB2946F82275
:10361000064606F04BFC0423316D304686F85430E4
:10362000FFF720FC0028C3D14FF470614BE700BFC7
:10363000DC0C002038B508F061FC154C00F078FF78
:1036400000F070FD04F1100508F055FE01F008F9D6
:1036500001F06CFF01F02CF900230E4A0E491360B3
:103660000E4A238062600E4A84F8203011601B21CC
:10367000537491805382938293750A4A106808327A
:1036800012F8041CA060217307CA85E8070038BD42
:10369000DC0C00201001002003021B001B0048016D
:1036A0002C110020ACAC0200044B41F64C52C3E993
:1036B00002221B221A74FFF7BDBF00BF2C1100208D
:1036C000024B1B6803B118470C2070471001002003
:1036D000014B93F926007047DC0C0020034B5A88FD
:1036E00002801B7883700020704700BF2C110020DF
:1036F00013B5837804461A2B09D8042B05D9012267
:1037000002FA03F3114A134205D1122017E0292BC4
:1037100001D03B2BF9D12088B0F5706FF5D2694606
:1037200008F02CFC68B9019B93F8182102F0FF0007
:103730004AB9A27883F81921FF2283F8182102B030
:1037400010BD0220FBE70C20F9E700BF2000380481
:1037500038B50478427804F00103857804F0020457
:1037600052EA030101D1112038BDBCB9002DFAD0B5
:10377000002B08BF144601E000242546204607F030
:10378000D6FE0028EFD0284607F0D1FE0028EAD068
:10379000054B00209C74DD749882E5E7002BEBD18B
:1037A00014461D46EAE700BF2C11002013B500881F
:1037B000694608F0E3FB18B10224204602B010BDB0
:1037C000019807F077FE0028F6D0019890F82A318A
:1037D0000BB13A24F1E790F8D23003F0FF04002B4C
:1037E000F7D190F8C9309B0703D1FF2380F82A3125
:1037F000E3E70249CA3008F0A6FDDEE7C3C80000CF
:10380000F8B503780446032B02D912252846F8BDE3
:103810004378032BF9D8467E0EB11125F6E783785D
:10382000012BF2D100F074FCC307F6D5A27812F098
:10383000010514D0E178A568012923694AD8A3F2CB
:1038400053703C49884247D86FF41C7CA5F6C410DD
:103850006144884240D89D4234BF1225002590071C
:1038600012D5E078A3680128216937D8324881420F
:1038700036D8A3F6C41CA0F6C410844530D88B42B9
:1038800034BF122300231D43510712D5E178A268EB
:103890000129236926D8A3F6C4102849884223D8D1
:1038A000A2F6C41088421FD89A4238BF1226354368
:1038B000EDB2002DAAD1237E013B062BA5D8012114
:1038C0002846FDF75DFA064680B94FF45961392064
:1038D000FCF774FE1225C2E73025C0E71223D2E7B9
:1038E0003023D0E71226E2E73026E0E7903007F0F9
:1038F000EAFB18B196F854309A0719D1E278A1780A
:10390000012AB4F800C0A06814BFB2FA82F2022201
:10391000267E18BF5209CB07094B48BF2769197289
:103920005A72A3F80AC01E731974C3E905076DE73C
:103930000C256BE73CF670028FFD7002CBF3700232
:10394000DC0C002000B589B0437940F271218DF87C
:10395000043083798DF8053001238DF80630037823
:103960008DF80730B0F801304B430393B0F80320D3
:103970004A430C49097B0592A2F6C4128DF81C102B
:1039800000218DF81D1008498A4209D8A3F6C413F6
:103990008B4205D801A8FFF733FF09B05DF804FB9F
:1039A0003020FAE7DC0C00203C369C002DE9F04F7B
:1039B000437A8BB00546990744BF43F00103437235
:1039C000447A620704D1122738460BB0BDE8F08F65
:1039D00014F0F80FF7D1022CF5D000F099FB34EA7F
:1039E000000340F0B98195F84870002F40F0B48191
:1039F000012CE8D1AB69B14AA3F25371914200F2B4
:103A0000A981EA689342DED8B5F842302A8E019344
:103A1000AB8F698D0093A88CEB8E07F095FD002885
:103A200000F098812B789A1E022A40F29581012B92
:103A3000C9D813B9AB78012BC5D86B78032BC2D882
:103A400095F84930013B062BBDD801210020FDF738
:103A500097F99B4B06461B7F73B901210846FDF77A
:103A60008FF9002818BF064606F1900007F02BFBDF
:103A70008046D8B10C27A7E7903007F024FB002838
:103A8000EBD06FF00043D6E924129A4208BFB1F19F
:103A9000FF3FE2D16B7A3046EA68009305F11803E4
:103AA000697807F07DF980460028D6D0304607F0C7
:103AB000BEF808B13A2787E7304607F0B2F88246E9
:103AC0000028F7D101460DF11600FDF7E3F8044692
:103AD000002800F03D817B4B5146DFF8EC911868DF
:103AE0001B7907902046BDF816B08DF8203000F005
:103AF00029FE764B40F2E242A4F800B0C4F8D83177
:103B0000D9F80830236395F84A3005EB4303988CC5
:103B10005B8D504302FB03F184F872A001F05EFE5E
:103B200040F2E242A061A4F8B421C4F8B0012046FA
:103B300007F056FC039000F0E5FA039B10F0200F0D
:103B400099F810206387624B0EBF1B21B9F804104F
:103B5000B9F802001B6814BFA4F85A00A4F85A1060
:103B6000A4F85C1084F838201BB194F97010584602
:103B70009847B9F804304FF0010BB9F8022004F16E
:103B8000100099F801100333A4F82EB0033201910C
:103B90009BB299F8001092B2009104F11401FDF764
:103BA00061F9236923B941F232113920FCF706FD8E
:103BB000636913B941F23311F7E707F055FCE0618F
:103BC00001F03EF920F07F40D9F80C1060622046E9
:103BD00095F84A3005EB43031A8EDB8E228463840A
:103BE00007F0FBFB07A904F18E0008F074FAFF232D
:103BF00084F8DC31324B9B6A23B15A4604F58D714F
:103C00002046984799F812A099F813B0B9F8149083
:103C1000BAF1000F40F0EE8000F07AFA8246BBF174
:103C2000000F40F0E38000F073FA8346BAF1000F12
:103C300021D1092701F004F90C230121B0FBF3F293
:103C400002FB1300C0B2431DDBB2082B96BF0D3040
:103C500084F89A3084F89A00204600F073FD002F13
:103C600040F0C2802046FFF733FBB8F1000F0FD0C1
:103C7000A0B10746ABE00028DBD006A920468DF8AE
:103C800018A08DF819B0ADF81A9008F0EDF9D1E749
:103C90000028EED16978304607F03CF805F1030AB8
:103CA000AA7829783046534606F0E1FF002855D11E
:103CB000B8F1000F4AD11220DBE700BF3CF67002DA
:103CC000DC0C0020331D03002C110020FC0C002014
:103CD00014010020DDF81C904C4564D0BBF10000BD
:103CE00009F1030399F80220514618BF012008F09A
:103CF00006F9002857D009F10A0399F8092004F1C0
:103D00000A01607A08F0FBF800284CD00B275EE02F
:103D1000EB6807A930468DF81C8008936B7ADB07A7
:103D200041BFAB69099301238DF81C3007F0D1F92D
:103D300095F84910304606F097FF21463046FFF7C8
:103D400091F800287FF440AE072740E012273EE0BC
:103D50000D2739E6302737E6112735E6B8F1000F91
:103D600002D13046FEF70AFD5346AA78297830463C
:103D700006F0DDFFB8F1000F02D1042386F85430BD
:103D800034655246AB78304613F0FD0F14BF012165
:103D9000002106F0E7FF2B7853B995F802B00BF03D
:103DA000FD0BCDE9073307A8FDF724F8002891D0D3
:103DB0000121304606F0F1FFB8F1000FA8D0042130
:103DC000304606F07EFF00287FF4FEAD0C272088E9
:103DD00000F00EFA00212088FCF7E8FF00283FF4ED
:103DE000F3AD41F2FE31E0E6384642E700283FF409
:103DF00020AF42E7BBF1000F7FF43FAF13E700BFF6
:103E000010B5437994B0032B56D823F002030279FE
:103E10008DF80630D0F806308DF80420CDF8073044
:103E20004389027BADF80B3001238DF8052040F269
:103E300071228DF80D3003885343049341884A431F
:103E40000792A2F6C412847B417B41EA0421ADF8BB
:103E50002810047CC17B41EA0421ADF82E10847C3B
:103E6000417C41EA0421ADF83410047DC17C41EA73
:103E70000421ADF83A10417D847D41EA0421ADF87A
:103E80004010C17D007E41EA00210D48ADF846108A
:103E900000218DF84C108DF84E100A49007B8A42A3
:103EA0008DF84D000AD8A3F6C4138B4206D801A89A
:103EB000FFF77CFD14B010BD1220FBE73020F9E7BE
:103EC000DC0C00203C369C0038B501210020FCF7BA
:103ED00057FF054620B941F231413920FCF76EFB0E
:103EE000903007F0F0F81E4B1B7F5BB3F0B195F8F4
:103EF0005430053B012B19D8284607F014F9044625
:103F000010B141F23C41E8E72846FEF7CDFB95F8B9
:103F100054302246214623F00403284685F85430C5
:103F2000FEF7CEFF80B941F24141D6E701210846B4
:103F3000FCF726FF054610B941F24841CDE7903025
:103F400007F0C1F810B90C24204638BD284607F008
:103F5000EAF804460028F7D12846FEF7A5FBF3E768
:103F6000DC0C00200278034672B1427862B14288CC
:103F70001A2A09D982881A2A06D90068034A1060C9
:103F800000209B8893807047122070472C110020DE
:103F900002680020014B9A60704700BF2C1100207E
:103FA00002680020014BDA60704700BF2C1100202E
:103FB0000378A3F10A02112A9BBF024A00201220B3
:103FC000137470472C1100200378FF2B15D1437810
:103FD000FF2B12D18378FF2B0FD1C378FF2B0CD18D
:103FE000037923F0E0021F2A07D113F0E00F04D079
:103FF0005B09034A0020137370471220704700BF0B
:10400000DC0C002008B501F03FFBFFF753F9FFF788
:104010005FFB01460248BDE80840FEF761BB00BFF8
:10402000080D002008B5FEF78DFBFFF7EBFF07F04A
:1040300063FF074800F58471FDF7D8F9002006F00A
:1040400084FC08F064FDBDE8084000F02BBE00BF12
:10405000080D002010B5094C094904F5037007F05C
:1040600095FD04F50470074907F090FD04F505700F
:104070000549BDE8104007F089BD00BF080D0020CC
:1040800018010020200100202801002038B5094C2B
:104090000D4600F0E3FDD4F80C02C4F8045107F01B
:1040A0006DFDFFF701FB00F0E3FE012384F81832F9
:1040B00038BD00BF080D0020014B93F8180270476F
:1040C000080D002010B5074CD4F8100207F056FD7B
:1040D000D4F8140207F052FDFFF7ACFA002384F87D
:1040E000183210BD080D0020C2080549012300F058
:1040F000070003FA00F08B5C18438854704700BF38
:1041000058000020014BD3E90001704758000020FF
:10411000034B1868C0F30020400040F001007047D6
:104120005800002008B504F0BDF90023074A32F812
:104130002310814205D302EB83039B78044A13705A
:1041400008BD01330C2BF2D10023F7E7C0AC02000D
:10415000210F0020024B1878072828BF072070473E
:10416000210F002010B54468238884F86711A4F853
:10417000683194F86830012B06D0022B04D040F24D
:1041800049310620FCF71AFA84F86A3194F869304C
:10419000012B01D0022BF2D184F86B3104F5AF7002
:1041A000034908F0D0F8002384F8243110BD00BF83
:1041B000F9BB000040680749038800F25110A0F8DD
:1041C000093010F8F13CC37210F8F03C037308F0AA
:1041D000B4B800BF0FBC0000044B002283F82220BB
:1041E0004FF6FF729A84DA841A857047220F0020F6
:1041F000054B9A8C824201BF002283F822204FF6A1
:10420000FF729A84704700BF220F0020014BD884B0
:10421000704700BF220F0020094A03464FF6FF7186
:10422000908C884206D192F82210012905D00120F5
:104230001A6070470020186070470020704700BF68
:10424000220F0020064B93F82220012A1BBF0120D9
:10425000DA8C002083F8220018BF9A84704700BFD0
:10426000220F0020014B1885704700BF220F00204D
:10427000064B0246198D988C884205D193F822008E
:1042800018B101201360704700207047220F0020F2
:10429000094B998C1A8D914201D0002070474FF63E
:1042A000FF729A8493F82220002AF6D0002201207F
:1042B00083F82220704700BF220F0020054B998C05
:1042C0001A8D914203BF93F82200B0FA80F04009A2
:1042D00001207047220F002050B90A4A01201346DE
:1042E00003F8010B0868C2F801008A889A807047B9
:1042F000012805D1034B0A68D8719A608A889A818F
:10430000704700BF4C0F002048B90A4B187880B1A5
:10431000D3F80120B3F805300A608B80704701287C
:1043200006D1044BD87920B19A689B890A60F4E7DA
:10433000002070474C0F002020B9054B187800F082
:104340000100704701280ABF014B0020D879F6E729
:104350004C0F0020F7B58B8800228DF80600ADF8D1
:10436000043008680B4B8DF8072001461C7803F5D4
:10437000AC73019DD0B2844201D8082007E0D3E994
:10438000007601320833AE4208BF8F42F2D103B04B
:10439000F0BD00BF600F0020084B0146002230B581
:1043A0005C7803F58173D0B2844201D8082004E020
:1043B00013F8015B01328D42F5D130BD600F002052
:1043C000F0B5254D89B095F8984105F299116846E8
:1043D000224605F06BFD2146684607F0AEFD044617
:1043E000B8B300EB400102A8C9B2FCF763FA601E43
:1043F00095F8A1610124C0B295F8982105E0731CDD
:10440000B3FBF2F102FB1133DEB206F120030DEB38
:10441000030111F8203C002BF1D100EB400201F820
:10442000204C06EB460320322B446A4412F8187CD9
:1044300083F8A27112F8177C12F8162C83F8A37176
:1044400083F8A4210138AB19C0B283F89941FF2841
:10445000D2D109B0F0BD00BF600F002070B5064694
:1044600088B00C46002A4ED0294A92F8A131D018C3
:1044700090F8991119B9FF212820FCF79FF803EB58
:1044800043010133114491F8A251E57091F8A35111
:1044900091F8A41125716171002180F8991192F8A9
:1044A0009811B3FBF1F001FB103382F8A13192F8BF
:1044B000C23123B9174902F5DD7007F041FF657974
:1044C0000D220021684605F03F0545F04005657165
:1044D00008F04CFDE37804AA69468DF80F303046A9
:1044E00023798DF80D508DF80E30042308F0BCFCB4
:1044F0009DF81F3023709DF81E3063709DF81D30AD
:10450000A37008B070BD03216018FCF7D3F9D6E79B
:10451000600F0020C1430000044B5A78824286BFDE
:104520001B1893F842010020704700BF600F002065
:10453000064B00224FF461711A8083F8C32183F87F
:10454000C421A3F8C61183F8C2217047600F002070
:10455000014B83F8C4017047600F002010B514466A
:10456000FFF7F8FE082803D1012000F0010010BD7C
:10457000FFF712FF064B5A788242F5D904B120703A
:10458000184490F83A31012BEED090F84A01ECE74C
:10459000600F0020014BB3F8C6017047600F002088
:1045A0000A4B30B55C7884420ED9184490F8020169
:1045B0002B3003EBC004A5790D7053F83000106068
:1045C0000120A388938030BD0020FCE7600F00200D
:1045D0000246074810B590F8C34124B1417821B193
:1045E000023002F04DF8204610BD0C46FBE700BF3C
:1045F000600F0020F8B50646174C48B3617804F503
:10460000A17007F09AFC94F89851074604F29910AB
:10461000294607F092FC2D1AEDB2AF421AD80025B8
:1046200006270FE0E21892F8422152B907FB034136
:1046300004EB0313324601F5857103F18200FFF7A5
:104640000DFF01356278EBB29A42EBD80120F8BD3C
:104650000546E5E70020FAE7600F0020F0B51B4EA5
:1046600089B007460D46737883422CD9331893F8E6
:10467000424144BB0D222146684608F077FCEB78A6
:1046800006EB071004AA8DF80F3069462B798230AB
:104690008DF80E306B798DF80D30042308F0E4FBB3
:1046A0002A789DF81F309A420AD16A789DF81E3008
:1046B0009A4205D1AC789DF81D00231A5C425C41FA
:1046C000204609B0F0BD0020FBE700BF600F0020CE
:1046D000074B5A78824209D91A1892F842212AB90E
:1046E000062202FB003000F58570704700207047FD
:1046F000600F002030B5002442F21075A0F8404051
:10470000B0F844404C43B4FBF2F4A0F84440541ECB
:1047100005FB0343B3FBF2F3A0F84230084BB3FBB5
:10472000F2F30133A0F84830838F05FB0344436B59
:104730005943B4FBF2F4B1FBF2F28463426330BD3F
:10474000005A620270B504460D4659BB4FF40A7216
:1047500008F00CFC012384F8DE5084F88E306FF0F2
:10476000360384F8D930042384F8DA306FF03B0341
:1047700084F8DB306F2384F8DC306FF03C0384F87E
:10478000DD306FF07F0384F8DF302B2384F8D830DE
:10479000FE2384F80E317F2384F88530202384F8AB
:1047A000C93170BD012912D182690D4B11461344E4
:1047B000B3FBF2F3C0F8B03040F6B833A0F8B43031
:1047C000438C04F17800BDE87040FFF793BF0229E5
:1047D000E7D1B0F8F231D0F8EC218169F1E700BF00
:1047E0007FC3C901034B80F870101B680BB10088B0
:1047F0001847704730010020074B93F900301844E8
:10480000142804DC10F17F0F03DB40B27047142042
:1048100070476FF07E007047281100207F2307B596
:104820000DF107008DF8073002F082FE9DF9073088
:1048300068B10A4A5078404240B21844142808DC53
:1048400010F17F0F07DB40B203B05DF804FB1846A0
:10485000FAE71420F8E76FF07E00F5E72811002052
:10486000024B00221A705A70704700BF28110020B6
:10487000054B1B7833B9054B1A681B79026003712D
:1048800001207047002070472A110020600000209E
:10489000054BFF221A70054A0168116001791171F8
:1048A00000221A70704700BF2A110020600000200B
:1048B000064B07B518681B79009068468DF80430E0
:1048C000FFF7E6FF03B05DF804FB00BF331D0300F4
:1048D0000346407898B1DB783F2B05D8084AD35C73
:1048E0001B1A58425841704703F11402D2B2022AEF
:1048F00004D8034A134413F8AC3CF1E70120704795
:10490000F4AC02003F2908B5C17003D80B4B5B5CC7
:10491000437008BD01F11403DBB2022B04D8074B2E
:10492000194411F8AC3CF3E7FF2904D04FF48A6135
:104930002A20FBF743FE0123EAE700BFF4AC0200A4
:104940002DE9F347894669461546984607F016FB58
:10495000044698BB019E2DB9012086F88D0002B057
:10496000BDE8F087D6F810A02946504605F02FFE86
:1049700001460028F3D0134B5B88AB4220D350464E
:1049800005F05FFF96F88D3007460480002B847099
:104990000CBF4946022107F08BFC41462A46F81C11
:1049A00005F084FA2946504605F04BFE18B97E21E1
:1049B0002B20FBF703FE86F88D40D0E70120CEE7E1
:1049C0002046CCE72C110020024B987DC04300F01C
:1049D000010070472C11002083230B70014B1B78C2
:1049E000CB707047441100202DE9F84FD0F80480B7
:1049F0000D46D8F81460304605F015FF044618B986
:104A0000FF211020FBF7DAFD0146304605F019FFC3
:104A1000B4F800B082461FFA8BF717B940F20311C1
:104A2000EFE71E4B00F103091B688BB9B8F80030A3
:104A3000A5F806B0AB8000236B729AF8003003F043
:104A40000303012B0FD0022B0DD040F21D11D8E72C
:104A50003A464946B8F80000984704460028E5D190
:104A60002046BDE8F88F30462B7205F0F0FE044674
:104A700010B94FF49371C4E7FB2F02D940F23511FE
:104A8000BFE7286810B94FF49B71BAE73A46494628
:104A900005F00CFA304605F036FEE1E7340100205F
:104AA0002DE9F3478246894605270025DFF84C812A
:104AB000D9F8103053B11B7A1BB980211020FBF7B5
:104AC0007DFDD9F81040B4B9002070E0D9F8044059
:104AD000237A012BF8D0EFF3108372B6D9F80420B3
:104AE0001268C9F8042003B962B6C9F81040237AE5
:104AF0000BB9A621E2E7267AF6B22772731E0B2BBA
:104B000069D8DFE803F065061C3362683C686868B2
:104B10006857636813B94FF4D771CFE72046514601
:104B200098470420EFF3108372B6227A052AD1B297
:104B30005BD12572C9F81050ABB962B613E0636857
:104B400013B940F2B711B9E75146204698470346DA
:104B5000ADF80400C0B2C3F30723012B3ED0022BF3
:104B6000E0D1C9F810500028A2D020E0636813B942
:104B700040F2BF11A2E7204698470020D2E76368C1
:104B80000BB9B5219AE70D2200248AF800200122F2
:104B9000198818698AF80220AAF803108AF80520F3
:104BA0008AF8064005F0AFFD0420C9F8104002B0B5
:104BB000BDE8F087D8F800305146204698470346B4
:104BC00060B10220C9F81050F1E74FF4FB7175E7AE
:104BD00040F2F91172E74FF4FE716FE72672002878
:104BE000E5D1002B7FF464AF6EE711B940F21D21CF
:104BF00064E7002B7FF45CAF62B659E73801002010
:104C000070B5144C14260021231D3246184608F0B6
:104C1000ADF903460125257404333246002104F121
:104C20001800C4E9013308F0A1F984F8245004F114
:104C30001C03094AC4E906330023E362236384F8B2
:104C40003430C4F83530C4F8393084F83D3013605E
:104C500070BD00BF441100203401002010B5084C85
:104C60002378FF2B04D04FF4A0711020FBF7A6FC93
:104C700005F024F82070BDE81040FFF7C1BF00BF69
:104C80006500002010B5034C207805F033F8FF23B1
:104C9000237010BD65000020014B187805F03AB86C
:104CA00065000020014B024A1A607047380100205D
:104CB000E949000010B506490446FFF7F1FE28B99E
:104CC00020460449BDE81040FFF7EABE10BD00BF12
:104CD0005C11002048110020134610B5027A22B161
:104CE00040F299211020FBF769FC0A460146024870
:104CF000BDE8104007F001BB48110020044890F8BF
:104D000034301BB903492C3007F014BB704700BF87
:104D100044110020EDC200000346064890F83E20F2
:104D20003AB190F83D2022B9034900F8353B07F02D
:104D300001BB704744110020D94900000A4610B554
:104D4000037A23B140F2A1211020FBF737FC014682
:104D500007230248BDE8104007F0CFBA5C110020DD
:104D60001346027A0AB1037270470A4601460148A7
:104D700007F0C3BA481100201B234FF01B12838495
:104D8000038482618382C260038539B94FF4A473BE
:104D9000034AC3844384C261C3820261704700BF77
:104DA0004801480103460846F0B4B3F85420B3F86C
:104DB0004840B3F856109442B3F84460DF8F28BFE0
:104DC0001446B3F84C20B3F842508A42DC8728BF1F
:104DD0000A46B3F846109142A3F8422038BF114664
:104DE000A64238BF2646A742A3F84610A3F844605F
:104DF0001FD1AA1A18BF0122B3F84A50B3F8504085
:104E0000B3F85270A5429E8FB3F8401028BF2546D4
:104E1000B3F84E40BC429D8728BF3C46AE42A3F843
:104E2000404002D1A14200D12AB10449F0BC07F0B0
:104E30008ABA0122E0E7F0BC704700BF4DC3000012
:104E4000094AD2E90003434083EAB01181EA4321D1
:104E50004FEAF34311605360044B58434FEAF0604C
:104E600000EB8000704700BF68000020BB79379ED0
:104E700010B50A4C08210948FBF71CFDD4E90023B2
:104E80001343F7D0064CFFF7DBFF2060FFF7D8FF96
:104E9000236860600343F6D010BD00BF68000020A7
:104EA00084110020A0F10B031046DBB23F2B10B59C
:104EB0000C4696BF0A49FE21C95C07F023FB68B97E
:104EC00064B12178272907D03F2908BF3E21104629
:104ED000BDE8104007F016BB2621F8E710BD00BF63
:104EE00037AD0200174B184A9A60184ADA62184A1E
:104EF0001A61184A5A61184A9A61184A1A63184A7C
:104F00005A62184ADA64184A9A64184A9A63184B23
:104F1000184A9A60184A1A62184A5A60184A1A605F
:104F2000184A9A62184ADA62184ADA60184A9A618C
:104F3000184A1A63184A9A64184ADA64184A5A6274
:104F4000704700BF3C01002033C6000041C700008D
:104F500015C70000D9C6000021520000B953000057
:104F6000C95200004DC8000069C800008552000009
:104F7000480200204FC600000BC8000063C60000B6
:104F80009DC600009FC700005DC70000C1C70000AC
:104F900081C70000E1C8000089C8000085C8000082
:104FA00025C80000054B064A9A65064ADA65064B95
:104FB000064A9A65064A1A66704700BF3C010020FF
:104FC0004BBD000033BE00004802002093BC00002F
:104FD0008DBE000070B50C46252A00F2CE80DFE8B9
:104FE00002F013363F4ACCCC3561636835356CCC62
:104FF000CCCCCC76353589899FCCA6CCCCCCCCCC4E
:10500000CCCCCCCCCCB2BCC4416840F2E240B1F8CC
:10501000E621D1F8EC31B2FBF0F22271D1F8E821AF
:10502000B3FBF0F3B2FBF0F2E371C3F30723627159
:10503000C2F307222372A271B1F8F03163721B0A26
:10504000A372B1F8F231E3721B0A237370BD436897
:10505000D3F8D831D3F801204A605B792372F5E7A1
:1050600002784368012A02D193F8103101E093F8E5
:1050700019312371EAE74368D3F81C224A60D3F858
:1050800020228A60B3F824228A81D3F8FC21C1F857
:105090000E20D3F80022C1F81220D3F80031C1F855
:1050A0001630D3E74368DFE70846BDE8704000F0FC
:1050B0003DB9BDE8704000F049B90F230B71592389
:1050C0004B7100238B716923CB713023C6E70278C3
:1050D00043684AB993F8102132B193F80D210A714F
:1050E00093F80C316371B1E793F80B21227193F8B7
:1050F0000A31F7E74368B3F854200A71120A4A717B
:10510000B3F812218A71120ACA71B3F850200A72D8
:10511000120A4A72B3F810318B721B0ACB7295E7F0
:10512000436893F826210A7193F82731DAE7456836
:1051300095F8E30106F0E6FD607195F8E20106F0EE
:10514000E1FD207182E70F4B1B68002B3FF47EAF1F
:1051500002462320BDE8704018470A4B1B68002B0D
:105160003FF474AF02462420F4E7064B1B68002B83
:105170003FF46CAF02462520ECE740F2D4415120C9
:10518000FBF71CFA540300203F2803D8064B53F8C2
:105190002000704700F11403DBB2022B01D8AC38B9
:1051A000F4E70020704700BF3C0100203F2803D8EF
:1051B000064B53F82000704700F11403DBB2022BBA
:1051C00001D8AC38F4E70020704700BF4802002047
:1051D000F7B5456804464FF6FF772E690DF10201D9
:1051E0000DF101023046ADF8027005F045FA01A953
:1051F000304605F063FA40B1019805F026FB61687E
:1052000000220272FFF79AFDE8E7044905F1A000C9
:1052100003B0BDE8F04007F090B800BFC7C500007C
:1052200038B54368044693F886201B2A24D100220F
:1052300083F8C72083F8C22083F82622436893F8B6
:10524000C81003F5C9701D8869B10C4983F8C820DE
:10525000A3F89C5183F89B2107F06CF86368002049
:1052600083F8860038BD012283F89B11A3F89C5176
:10527000034983F89E21EFE70220F3E7C5C600004B
:10528000B7C6000038B5446894F88750B5B94A6885
:105290000B4B896813400B4AC4F8D830C3F307633B
:1052A0000A4043F00803C4F8DC2084F8DB3007F040
:1052B00053F9042384F88730284638BD0125FBE7DD
:1052C0002FC904F76FDB0080406810B590F8863076
:1052D000042B25D14B688A68C0F8D830C3F3076324
:1052E000C0F8DC2043F0080380F8DB30002380F8AE
:1052F000C23080F8863080F82B3190F8742102F0AB
:10530000FF047AB9038800F5B670447243814B6894
:10531000C3608B680449036107F00CF8204610BD98
:105320000124FBE71C46F9E7E9C7000010B5044675
:10533000FEF7E8FE034A044B02400B406260A360A4
:1053400010BD00BF2FC904F76FDB008037B50C46D6
:105350004568FEF7D7FE084B084A03400A4095F817
:10536000D81000930B4001928DF800306B4603CBB0
:105370006060A16003B030BD2FC904F76FDB00800F
:10538000DB0410B5144604D5037D13B10023436339
:1053900010BD436B0133436307F083FAD0E90D235B
:1053A0009A42F5D30023034943632046BDE81040E9
:1053B00006F0C9BF3FC8000038B54468054694F8F8
:1053C0008630012B03D094F88730002B39D194F824
:1053D000C930980715D40A7984F8D320B1F805208C
:1053E000A4F8D420B1F80720A4F8D62043F0020294
:1053F00084F8C920DA070FD5134904F1CA0006F072
:10540000A2FF94F8C930DB0711D494F8873043B178
:1054100050214020FBF7D2F894F82A31002BEBD131
:10542000EFE70123284684F8873007F095F894F8D1
:1054300086300020012B03D184F8860084F8C20056
:1054400038BD0120FCE700BFC3C8000070B5456847
:105450000446FFF7E3F9054B014685F885001B6814
:105460001BB12046BDE87040184770BD5C030020AA
:10547000024B1B6803B11847704700BF5803002058
:10548000F0B5204E054600243078147080B1431EDC
:105490007768DBB2181B01280BDC07EBC40057F858
:1054A00034604068884208BFAE4212D114700120B7
:1054B000F0BD18194610C0F3470057F836C007EB87
:1054C000C60EAC45DEF804608E412CBF0346044690
:1054D000E0E7B54271EB000002D214700020E7E76C
:1054E00007EBC30057F833404068884208BFAC421E
:1054F00001D11370DBE7A542814128BF013313704E
:10550000ECE700BF9C11002010F0070208B503D0A3
:1055100063214820FBF752F818B1034B1972586009
:105520001A70C80008BD00BF9C110020014B00226A
:105530001A7070479C110020014B187A704700BF09
:105540009C1100202DE9D34307F0E8F90DF1070283
:1055500007460E46FFF794FF98B9114C2278237A3C
:1055600093420ED0616813466FF0604E9DF80700BD
:10557000984209D301EBC003013201202270C3E934
:10558000007602B0BDE8D08303EB0E00013B01EBD7
:10559000C000DBB2D0E90089C0E90289E6E700BFBC
:1055A0009C11002037B507F0B9F90DF10702FFF79C
:1055B00067FF0446A0B10C4A9DF8070013785568B0
:1055C000411C013B05EBC101DBB213701A1AD2B2C8
:1055D000D200834238BF002205EBC00007F0AEFCCA
:1055E000204603B030BD00BF9C1100200A4606488B
:1055F000822302F8033B0368C1F803304368536019
:1056000083689360704700BFA51100201622002117
:10561000014807F0ABBC00BFA511002017B402ABD6
:1056200003E903001548437D23B391F868200C304B
:10563000134B53F822304FF47A7203F2E733B3FB83
:10564000F2F3D1E968246E3244F100049B180A8811
:1056500044F1000440F8083CB1F8803020F80C2CEC
:105660000222084940F8044C20F80A3C03B010BC60
:10567000FFF776BB03B010BC704700BFA511002038
:1056800078AD0200ED550000014B00221A60704712
:10569000C011002008B5044B186810B9FFF7F4FFDB
:1056A00008BD0C20FCE700BFC0110020C3693BB956
:1056B00083692BB9034B1B681B1A5842584170472A
:1056C00001207047C011002010B5D0E906436BB12E
:1056D000D0E902219C611144DA680A44DA608269E7
:1056E0003AB1D3610023C0E9063310BD034A146008
:1056F000F5E7002BF6D0DA60F4E700BFC011002018
:1057000008B5C16191B90F4A1368836103B1D861CB
:1057100010600023C269C3609AB1D3687BB181680D
:105720008B420AD22D213720FAF748FF8B69886116
:105730008361002BEDD0D861EBE75B1AC3600023D7
:10574000D36008BDC0110020014B1868704700BF2E
:10575000C0110020034B00201B6803B97047184696
:105760009B69FAE7C01100200B4B002230B51B6883
:1057700004464FF0FF35104623B911B9002808BF81
:10578000104630BDDA68A24203D3AA423CBF154698
:1057900018461A469B69EFE7C011002038B5036A26
:1057A0001BB182689C68A24203D2CD213720FAF750
:1057B00005FFC1698569D9619D6141B18B619969B5
:1057C00041B1CB61C1680A44121BDA6038BD02499D
:1057D0000B60F4E7D960F9E7C0110020F8B5264B5B
:1057E0000446084600211D680B466DB95BB198421E
:1057F00025D3013CB0FBF3F11C4403FB01F5B4FBE2
:10580000F3F48C420ED9F8BD2E690BB19E4207D23B
:1058100026B94FF496713720FAF7D0FEA98A33469D
:10582000AD69E2E7B5FBF3F603FB165626B9B5FB07
:10583000F2F602FB1656DEB10139ED1AE1E7451E1C
:105840001D44B3FBF4F4B5FBF0F5AC42DBD3B3FB82
:10585000F5F605FB16374FB9B6FBF2F702FB1767F3
:1058600027B9B6FBF1F701FB17671FB10135ECE76C
:105870002846C8E73046C6E7C0110020154B5B68D4
:1058800093F8C20028B1B3F8BE10B3F8C02091421B
:105890001ED293F9C6202AB1B3F8C410B3F8C020C1
:1058A000914214D2B3F8BA20B3F8BC1091420ED290
:1058B000B3F8B80093F88A3023B9052894BF0020C4
:1058C0000120704782428CBF0020012070470120D8
:1058D000704700BFC4110020134B18285B6883F881
:1058E0000E0116D8114AC240D2071CD4112806D185
:1058F00093F8102152B10022A3F8BE207047072868
:1059000011D009280FD0152805D10022A3F8C420F2
:105910007047242807D0022881BF0022A3F8BE20A8
:10592000012283F8C2207047C41100200010080132
:1059300070B5204D6B6893F8E21109B993F86810BF
:1059400093F8E3210AB993F8692083F8681083F883
:105950006920FF2283F86A20174B1B680BB1686827
:10596000984700211348FEF7FDFB6868303006F0C9
:1059700015FD0646686800F23511FFF713FA042199
:105980006868FDF7D9FC6868303006F007FD86428C
:1059900004460CD202F026FE0146A01B192838BF8F
:1059A000192003F021FFB0FA80F0400970BD0120FA
:1059B000FCE700BFC411002068030020C378012B5E
:1059C00007D10D4B5B68B3F8DE3143721B0A83725B
:1059D00070473BB9084B5B68B3F8E43143731B0A6B
:1059E00083737047182B06D1034B5B68B3F8E03123
:1059F00083711B0AC3717047C41100200D4B02460E
:105A0000187A98B9012A07D15B68B3F858209B8FA0
:105A10009A420ED8FDF780BC5A89520708D55B68B8
:105A200093F88800063818BF01207047002070479F
:105A300001207047C411002038B590F88630044624
:105A40000D3B012B29D8B0F88030B0F8E4210133A8
:105A50009BB29A4221D1038840F2E24200250F49CD
:105A6000A0F88A3100F5C070C36E4572B3FBF2F343
:105A70008381B0F87030C381B0F87230038206F0D1
:105A800062FC84F8F45102212046FEF75BFE0321FC
:105A90002046FDF751FC84F8865038BD7DC60000D5
:105AA0002B4A38B50346084651891943518103F002
:105AB0000301032904D140F67A213620FAF77EFD4E
:105AC00013F0020118BFD060DC0748BF106121B19C
:105AD000C178062918D00B2923D0990644BF082184
:105AE0001172DB0532D55268C178B2F88030148C5F
:105AF0000129234403F106039BB219D1A2F8DE3138
:105B0000BDE83840FFF75ABF516891F88640192C1C
:105B1000E3D100240025C1E93A45012481F88C40F5
:105B2000DBE7516891F88640132CD6D10024F5E7C5
:105B300011B9A2F8E431E3E71829E1D1B2F8E21192
:105B4000002918BF1946A2F8E011D9E738BD00BFF7
:105B5000C411002008B50B790246232B0CD014D8B1
:105B6000142B03D003F0FB0112290ED1184601219A
:105B7000BDE8084006F042BF436893F88630282B02
:105B800003D1034B1B6803B19847002008BD00BF39
:105B9000640300200029034608BF1F21162870B5A2
:105BA0001BD009D803281ED0022803D9122814D0EC
:105BB000142812D000240EE0252808D82228F9D96C
:105BC000204B1C683CB12346BDE870401847FE28B6
:105BD00014BF00240224204670BD00211846BDE8F1
:105BE000704006F00BBF184D6B6893F88620172A9B
:105BF00001D0142A24D193F8C8200ABB83F8C72007
:105C000083F8C22093F89A3103F0FF0423B140F2E5
:105C1000D3313620FAF7D2FC6B681A8883F89B11CF
:105C2000A3F89C2183F89E4183F8264268680749BF
:105C300000F5C97006F07EFB6B6883F88640CAE702
:105C40000224C8E760030020C4110020B7C600008A
:105C50000E4B024609795B6893F88630A3F1100079
:105C60000C280BD9282B0BD01D2B0BD0052B0BD0C0
:105C7000202B14BFFE201620FFF78CBF0320FBE76C
:105C80002320F9E71420F7E71220F5E7C4110020DC
:105C90002DE9F341674C0E460746B4F80A80616867
:105CA00018F4007F01F178050CBFB1F8B82000238B
